{
  "abi": [
    {
      "inputs": [
        {
          "internalType": "address",
          "name": "world",
          "type": "address"
        }
      ],
      "stateMutability": "nonpayable",
      "type": "constructor"
    },
    {
      "inputs": [],
      "name": "BareComponent__NotImplemented",
      "type": "error"
    },
    {
      "inputs": [],
      "name": "OwnableWritable__NotWriter",
      "type": "error"
    },
    {
      "inputs": [],
      "name": "Ownable__NotOwner",
      "type": "error"
    },
    {
      "inputs": [],
      "name": "Ownable__NotTransitiveOwner",
      "type": "error"
    },
    {
      "anonymous": false,
      "inputs": [
        {
          "indexed": true,
          "internalType": "address",
          "name": "previousOwner",
          "type": "address"
        },
        {
          "indexed": true,
          "internalType": "address",
          "name": "newOwner",
          "type": "address"
        }
      ],
      "name": "OwnershipTransferred",
      "type": "event"
    },
    {
      "inputs": [
        {
          "internalType": "address",
          "name": "writer",
          "type": "address"
        }
      ],
      "name": "authorizeWriter",
      "outputs": [],
      "stateMutability": "nonpayable",
      "type": "function"
    },
    {
      "inputs": [],
      "name": "getEntities",
      "outputs": [
        {
          "internalType": "uint256[]",
          "name": "",
          "type": "uint256[]"
        }
      ],
      "stateMutability": "view",
      "type": "function"
    },
    {
      "inputs": [
        {
          "internalType": "uint16",
          "name": "value",
          "type": "uint16"
        }
      ],
      "name": "getEntitiesWithValue",
      "outputs": [
        {
          "internalType": "uint256[]",
          "name": "",
          "type": "uint256[]"
        }
      ],
      "stateMutability": "view",
      "type": "function"
    },
    {
      "inputs": [
        {
          "internalType": "bytes",
          "name": "value",
          "type": "bytes"
        }
      ],
      "name": "getEntitiesWithValue",
      "outputs": [
        {
          "internalType": "uint256[]",
          "name": "",
          "type": "uint256[]"
        }
      ],
      "stateMutability": "view",
      "type": "function"
    },
    {
      "inputs": [
        {
          "internalType": "uint256",
          "name": "entity",
          "type": "uint256"
        }
      ],
      "name": "getRawValue",
      "outputs": [
        {
          "internalType": "bytes",
          "name": "",
          "type": "bytes"
        }
      ],
      "stateMutability": "view",
      "type": "function"
    },
    {
      "inputs": [],
      "name": "getSchema",
      "outputs": [
        {
          "internalType": "string[]",
          "name": "keys",
          "type": "string[]"
        },
        {
          "internalType": "enum LibTypes.SchemaValue[]",
          "name": "values",
          "type": "uint8[]"
        }
      ],
      "stateMutability": "pure",
      "type": "function"
    },
    {
      "inputs": [
        {
          "internalType": "uint256",
          "name": "entity",
          "type": "uint256"
        }
      ],
      "name": "getValue",
      "outputs": [
        {
          "internalType": "uint16",
          "name": "",
          "type": "uint16"
        }
      ],
      "stateMutability": "view",
      "type": "function"
    },
    {
      "inputs": [],
      "name": "getValue",
      "outputs": [
        {
          "internalType": "uint16",
          "name": "",
          "type": "uint16"
        }
      ],
      "stateMutability": "view",
      "type": "function"
    },
    {
      "inputs": [
        {
          "internalType": "uint256",
          "name": "entity",
          "type": "uint256"
        }
      ],
      "name": "has",
      "outputs": [
        {
          "internalType": "bool",
          "name": "",
          "type": "bool"
        }
      ],
      "stateMutability": "view",
      "type": "function"
    },
    {
      "inputs": [],
      "name": "id",
      "outputs": [
        {
          "internalType": "uint256",
          "name": "",
          "type": "uint256"
        }
      ],
      "stateMutability": "view",
      "type": "function"
    },
    {
      "inputs": [],
      "name": "owner",
      "outputs": [
        {
          "internalType": "address",
          "name": "",
          "type": "address"
        }
      ],
      "stateMutability": "view",
      "type": "function"
    },
    {
      "inputs": [
        {
          "internalType": "address",
          "name": "indexer",
          "type": "address"
        }
      ],
      "name": "registerIndexer",
      "outputs": [],
      "stateMutability": "nonpayable",
      "type": "function"
    },
    {
      "inputs": [
        {
          "internalType": "address",
          "name": "_world",
          "type": "address"
        }
      ],
      "name": "registerWorld",
      "outputs": [],
      "stateMutability": "nonpayable",
      "type": "function"
    },
    {
      "inputs": [
        {
          "internalType": "uint256",
          "name": "entity",
          "type": "uint256"
        }
      ],
      "name": "remove",
      "outputs": [],
      "stateMutability": "nonpayable",
      "type": "function"
    },
    {
      "inputs": [
        {
          "internalType": "uint16",
          "name": "value",
          "type": "uint16"
        }
      ],
      "name": "set",
      "outputs": [],
      "stateMutability": "nonpayable",
      "type": "function"
    },
    {
      "inputs": [
        {
          "internalType": "uint256",
          "name": "entity",
          "type": "uint256"
        },
        {
          "internalType": "uint16",
          "name": "value",
          "type": "uint16"
        }
      ],
      "name": "set",
      "outputs": [],
      "stateMutability": "nonpayable",
      "type": "function"
    },
    {
      "inputs": [
        {
          "internalType": "uint256",
          "name": "entity",
          "type": "uint256"
        },
        {
          "internalType": "bytes",
          "name": "value",
          "type": "bytes"
        }
      ],
      "name": "set",
      "outputs": [],
      "stateMutability": "nonpayable",
      "type": "function"
    },
    {
      "inputs": [
        {
          "internalType": "address",
          "name": "account",
          "type": "address"
        }
      ],
      "name": "transferOwnership",
      "outputs": [],
      "stateMutability": "nonpayable",
      "type": "function"
    },
    {
      "inputs": [
        {
          "internalType": "address",
          "name": "writer",
          "type": "address"
        }
      ],
      "name": "unauthorizeWriter",
      "outputs": [],
      "stateMutability": "nonpayable",
      "type": "function"
    },
    {
      "inputs": [],
      "name": "world",
      "outputs": [
        {
          "internalType": "address",
          "name": "",
          "type": "address"
        }
      ],
      "stateMutability": "view",
      "type": "function"
    },
    {
      "inputs": [
        {
          "internalType": "address",
          "name": "operator",
          "type": "address"
        }
      ],
      "name": "writeAccess",
      "outputs": [
        {
          "internalType": "bool",
          "name": "",
          "type": "bool"
        }
      ],
      "stateMutability": "view",
      "type": "function"
    }
  ],
  "bytecode": {
    "object": "0x60806040523480156200001157600080fd5b5060405162003043380380620030438339810160408190526200003491620002b9565b807f6ff1af157fa1e1b9d39dd94ba1bb33ea6a1a0d2f214bb2c71eb60cc093c06fc38181620000633362000127565b60028190556001600160a01b03821615620000835762000083826200019b565b505060405162000093906200029d565b604051809103906000f080158015620000b0573d6000803e3d6000fd5b50600380546001600160a01b0319166001600160a01b0392909216919091179055604051620000df90620002ab565b604051809103906000f080158015620000fc573d6000803e3d6000fd5b50600480546001600160a01b0319166001600160a01b039290921691909117905550620002eb915050565b60006200013e6200025360201b62000d311760201c565b80546040519192506001600160a01b03808516929116907f8be0079c531659141344cd1fd0a4f28419497f9722a3daafe3b4186f6b6457e090600090a380546001600160a01b0319166001600160a01b0392909216919091179055565b620001a562000277565b6001600160a01b0316336001600160a01b031614620001d757604051632f7a8ee160e01b815260040160405180910390fd5b600080546001600160a01b0319166001600160a01b038316908117909155600254604051630f30347760e41b8152306004820152602481019190915263f303477090604401600060405180830381600087803b1580156200023757600080fd5b505af11580156200024c573d6000803e3d6000fd5b5050505050565b7f8a22373512790c48b83a1fe2efdd2888d4a917bcdc24d0adf63e60f67168046090565b60006200028e6200025360201b62000d311760201c565b546001600160a01b0316919050565b61084a8062001f6783390190565b61089280620027b183390190565b600060208284031215620002cc57600080fd5b81516001600160a01b0381168114620002e457600080fd5b9392505050565b611c6c80620002fb6000396000f3fe608060405234801561001057600080fd5b50600436106101775760003560e01c806375c0669c116100d8578063af640d0f1161008c578063bf4fe57e11610066578063bf4fe57e1461032e578063cccf7a8e14610341578063f2fde38b1461035457600080fd5b8063af640d0f146102e4578063b361be46146102fb578063b8bc073d1461030e57600080fd5b80638b282947116100bd5780638b282947146102b65780638da5cb5b146102c95780639d2c76b4146102d157600080fd5b806375c0669c14610280578063861eb9051461029357600080fd5b806336eed9891161012f5780634fef6a38116101145780634fef6a3814610244578063530d3e07146102575780636b122fe01461026a57600080fd5b806336eed9891461021e5780634cc822151461023157600080fd5b8063209652551161016057806320965255146101bc57806330b67baa146101c457806331b933b91461020957600080fd5b80630abbf0731461017c5780630ff4c91614610191575b600080fd5b61018f61018a36600461155f565b610367565b005b6101a461019f36600461157c565b610396565b60405161ffff90911681526020015b60405180910390f35b6101a46103bc565b6000546101e49073ffffffffffffffffffffffffffffffffffffffff1681565b60405173ffffffffffffffffffffffffffffffffffffffff90911681526020016101b3565b6102116103e3565b6040516101b39190611595565b61021161022c36600461155f565b61049e565b61018f61023f36600461157c565b6104c8565b61018f6102523660046115d9565b610510565b61018f61026536600461160f565b6105ee565b61027261060c565b6040516101b39291906116d9565b61018f61028e3660046115d9565b6106f8565b6102a66102a13660046115d9565b6107ae565b60405190151581526020016101b3565b61018f6102c43660046118d5565b610838565b6101e4610881565b61018f6102df3660046115d9565b6108c1565b6102ed60025481565b6040519081526020016101b3565b61021161030936600461191c565b6109ea565b61032161031c36600461157c565b610aa7565b6040516101b39190611959565b61018f61033c3660046115d9565b610b49565b6102a661034f36600461157c565b610c24565b61018f6103623660046115d9565b610cb8565b6040805161ffff831660208201526103939161060d91015b604051602081830303815290604052610838565b50565b6000806103a283610aa7565b8060200190518101906103b5919061196c565b9392505050565b6000806103ca61060d610aa7565b8060200190518101906103dd919061196c565b92915050565b600354604080517f410d59cc000000000000000000000000000000000000000000000000000000008152905160609273ffffffffffffffffffffffffffffffffffffffff169163410d59cc9160048083019260009291908290030181865afa158015610453573d6000803e3d6000fd5b505050506040513d6000823e601f3d9081017fffffffffffffffffffffffffffffffffffffffffffffffffffffffffffffffe01682016040526104999190810190611989565b905090565b6040805161ffff831660208201526060916103dd91016040516020818303038152906040526109ea565b6104d1336107ae565b610507576040517f406ed3da00000000000000000000000000000000000000000000000000000000815260040160405180910390fd5b61039381610d55565b7f8a22373512790c48b83a1fe2efdd2888d4a917bcdc24d0adf63e60f6716804605473ffffffffffffffffffffffffffffffffffffffff163314610580576040517f2f7a8ee100000000000000000000000000000000000000000000000000000000815260040160405180910390fd5b73ffffffffffffffffffffffffffffffffffffffff1660009081527f8ffeadc5cba727b8cc3cdef48739619490ea317fdb3baae1259089d06f92c9096020526040902080547fffffffffffffffffffffffffffffffffffffffffffffffffffffffffffffff00166001179055565b6040805161ffff831660208201526106089184910161037f565b5050565b604080516001808252818301909252606091829190816020015b6060815260200190600190039081610626575050604080516001808252818301909252919350602080830190803683370190505090506040518060400160405280600581526020017f76616c7565000000000000000000000000000000000000000000000000000000815250826000815181106106a5576106a5611a2f565b60200260200101819052506009816000815181106106c5576106c5611a2f565b602002602001019060218111156106de576106de6116aa565b908160218111156106f1576106f16116aa565b9052509091565b610701336107ae565b610737576040517f406ed3da00000000000000000000000000000000000000000000000000000000815260040160405180910390fd5b600580546001810182556000919091527f036b6384b5eca791c62761152d0c79bb0604c104a5fb6f4eb0703f3154bb3db00180547fffffffffffffffffffffffff00000000000000000000000000000000000000001673ffffffffffffffffffffffffffffffffffffffff92909216919091179055565b73ffffffffffffffffffffffffffffffffffffffff811660009081527f8ffeadc5cba727b8cc3cdef48739619490ea317fdb3baae1259089d06f92c909602052604081205460ff16806103dd5750610804610881565b73ffffffffffffffffffffffffffffffffffffffff168273ffffffffffffffffffffffffffffffffffffffff161492915050565b610841336107ae565b610877576040517f406ed3da00000000000000000000000000000000000000000000000000000000815260040160405180910390fd5b6106088282611014565b60006104997f8a22373512790c48b83a1fe2efdd2888d4a917bcdc24d0adf63e60f6716804605473ffffffffffffffffffffffffffffffffffffffff1690565b7f8a22373512790c48b83a1fe2efdd2888d4a917bcdc24d0adf63e60f6716804605473ffffffffffffffffffffffffffffffffffffffff163314610931576040517f2f7a8ee100000000000000000000000000000000000000000000000000000000815260040160405180910390fd5b600080547fffffffffffffffffffffffff00000000000000000000000000000000000000001673ffffffffffffffffffffffffffffffffffffffff83169081179091556002546040517ff3034770000000000000000000000000000000000000000000000000000000008152306004820152602481019190915263f3034770906044015b600060405180830381600087803b1580156109cf57600080fd5b505af11580156109e3573d6000803e3d6000fd5b5050505050565b60048054825160208401206040517f796c5e940000000000000000000000000000000000000000000000000000000081529283015260609173ffffffffffffffffffffffffffffffffffffffff9091169063796c5e9490602401600060405180830381865afa158015610a61573d6000803e3d6000fd5b505050506040513d6000823e601f3d9081017fffffffffffffffffffffffffffffffffffffffffffffffffffffffffffffffe01682016040526103dd9190810190611989565b6000818152600160205260409020805460609190610ac490611a5e565b80601f0160208091040260200160405190810160405280929190818152602001828054610af090611a5e565b8015610b3d5780601f10610b1257610100808354040283529160200191610b3d565b820191906000526020600020905b815481529060010190602001808311610b2057829003601f168201915b50505050509050919050565b7f8a22373512790c48b83a1fe2efdd2888d4a917bcdc24d0adf63e60f6716804605473ffffffffffffffffffffffffffffffffffffffff163314610bb9576040517f2f7a8ee100000000000000000000000000000000000000000000000000000000815260040160405180910390fd5b73ffffffffffffffffffffffffffffffffffffffff1660009081527f8ffeadc5cba727b8cc3cdef48739619490ea317fdb3baae1259089d06f92c9096020526040902080547fffffffffffffffffffffffffffffffffffffffffffffffffffffffffffffff00169055565b6003546040517fcccf7a8e0000000000000000000000000000000000000000000000000000000081526004810183905260009173ffffffffffffffffffffffffffffffffffffffff169063cccf7a8e90602401602060405180830381865afa158015610c94573d6000803e3d6000fd5b505050506040513d601f19601f820116820180604052508101906103dd9190611ab1565b7f8a22373512790c48b83a1fe2efdd2888d4a917bcdc24d0adf63e60f6716804605473ffffffffffffffffffffffffffffffffffffffff163314610d28576040517f2f7a8ee100000000000000000000000000000000000000000000000000000000815260040160405180910390fd5b610393816112ab565b7f8a22373512790c48b83a1fe2efdd2888d4a917bcdc24d0adf63e60f67168046090565b60045460008281526001602052604090819020905173ffffffffffffffffffffffffffffffffffffffff909216916385edea1391610d9291611ad3565b60405190819003812060e083901b7fffffffff000000000000000000000000000000000000000000000000000000001682526004820152602401602060405180830381865afa158015610de9573d6000803e3d6000fd5b505050506040513d601f19601f82011682018060405250810190610e0d9190611ba5565b600003610e175750565b60045460008281526001602052604090819020905173ffffffffffffffffffffffffffffffffffffffff90921691636526db7a91610e5491611ad3565b60405190819003812060e083901b7fffffffff00000000000000000000000000000000000000000000000000000000168252600482015260248101849052604401600060405180830381600087803b158015610eaf57600080fd5b505af1158015610ec3573d6000803e3d6000fd5b50506003546040517f4cc822150000000000000000000000000000000000000000000000000000000081526004810185905273ffffffffffffffffffffffffffffffffffffffff9091169250634cc822159150602401600060405180830381600087803b158015610f3357600080fd5b505af1158015610f47573d6000803e3d6000fd5b50505050610f54816112b4565b60005b6005548110156106085760058181548110610f7457610f74611a2f565b6000918252602090912001546040517f4cc822150000000000000000000000000000000000000000000000000000000081526004810184905273ffffffffffffffffffffffffffffffffffffffff90911690634cc8221590602401600060405180830381600087803b158015610fe957600080fd5b505af1158015610ffd573d6000803e3d6000fd5b50505050808061100c90611bbe565b915050610f57565b6003546040517f1003e2d20000000000000000000000000000000000000000000000000000000081526004810184905273ffffffffffffffffffffffffffffffffffffffff90911690631003e2d290602401600060405180830381600087803b15801561108057600080fd5b505af1158015611094573d6000803e3d6000fd5b505060045460008581526001602052604090819020905173ffffffffffffffffffffffffffffffffffffffff9092169350636526db7a92506110d591611ad3565b60405190819003812060e083901b7fffffffff00000000000000000000000000000000000000000000000000000000168252600482015260248101859052604401600060405180830381600087803b15801561113057600080fd5b505af1158015611144573d6000803e3d6000fd5b505060048054845160208601206040517f771602f7000000000000000000000000000000000000000000000000000000008152928301526024820186905273ffffffffffffffffffffffffffffffffffffffff16925063771602f79150604401600060405180830381600087803b1580156111be57600080fd5b505af11580156111d2573d6000803e3d6000fd5b505050506111e08282611322565b60005b6005548110156112a6576005818154811061120057611200611a2f565b6000918252602090912001546040517f0216b83800000000000000000000000000000000000000000000000000000000815273ffffffffffffffffffffffffffffffffffffffff90911690630216b838906112619086908690600401611c1d565b600060405180830381600087803b15801561127b57600080fd5b505af115801561128f573d6000803e3d6000fd5b50505050808061129e90611bbe565b9150506111e3565b505050565b610393816113d0565b60008181526001602052604081206112cb9161147c565b6000546040517f0de3b7b50000000000000000000000000000000000000000000000000000000081526004810183905273ffffffffffffffffffffffffffffffffffffffff90911690630de3b7b5906024016109b5565b60008281526001602090815260409091208251611341928401906114b6565b506000546040517fcfd3c57f00000000000000000000000000000000000000000000000000000000815273ffffffffffffffffffffffffffffffffffffffff9091169063cfd3c57f9061139a9085908590600401611c1d565b600060405180830381600087803b1580156113b457600080fd5b505af11580156113c8573d6000803e3d6000fd5b505050505050565b7f8a22373512790c48b83a1fe2efdd2888d4a917bcdc24d0adf63e60f671680460805460405173ffffffffffffffffffffffffffffffffffffffff8481169216907f8be0079c531659141344cd1fd0a4f28419497f9722a3daafe3b4186f6b6457e090600090a380547fffffffffffffffffffffffff00000000000000000000000000000000000000001673ffffffffffffffffffffffffffffffffffffffff92909216919091179055565b50805461148890611a5e565b6000825580601f10611498575050565b601f016020900490600052602060002090810190610393919061153a565b8280546114c290611a5e565b90600052602060002090601f0160209004810192826114e4576000855561152a565b82601f106114fd57805160ff191683800117855561152a565b8280016001018555821561152a579182015b8281111561152a57825182559160200191906001019061150f565b5061153692915061153a565b5090565b5b80821115611536576000815560010161153b565b61ffff8116811461039357600080fd5b60006020828403121561157157600080fd5b81356103b58161154f565b60006020828403121561158e57600080fd5b5035919050565b6020808252825182820181905260009190848201906040850190845b818110156115cd578351835292840192918401916001016115b1565b50909695505050505050565b6000602082840312156115eb57600080fd5b813573ffffffffffffffffffffffffffffffffffffffff811681146103b557600080fd5b6000806040838503121561162257600080fd5b8235915060208301356116348161154f565b809150509250929050565b6000815180845260005b8181101561166557602081850181015186830182015201611649565b81811115611677576000602083870101525b50601f017fffffffffffffffffffffffffffffffffffffffffffffffffffffffffffffffe0169290920160200192915050565b7f4e487b7100000000000000000000000000000000000000000000000000000000600052602160045260246000fd5b6000604082016040835280855180835260608501915060608160051b8601019250602080880160005b8381101561174e577fffffffffffffffffffffffffffffffffffffffffffffffffffffffffffffffa088870301855261173c86835161163f565b95509382019390820190600101611702565b50508584038187015286518085528782019482019350915060005b828110156117bc578451602281106117aa577f4e487b7100000000000000000000000000000000000000000000000000000000600052602160045260246000fd5b84529381019392810192600101611769565b5091979650505050505050565b7f4e487b7100000000000000000000000000000000000000000000000000000000600052604160045260246000fd5b604051601f82017fffffffffffffffffffffffffffffffffffffffffffffffffffffffffffffffe016810167ffffffffffffffff8111828210171561183f5761183f6117c9565b604052919050565b600082601f83011261185857600080fd5b813567ffffffffffffffff811115611872576118726117c9565b6118a360207fffffffffffffffffffffffffffffffffffffffffffffffffffffffffffffffe0601f840116016117f8565b8181528460208386010111156118b857600080fd5b816020850160208301376000918101602001919091529392505050565b600080604083850312156118e857600080fd5b82359150602083013567ffffffffffffffff81111561190657600080fd5b61191285828601611847565b9150509250929050565b60006020828403121561192e57600080fd5b813567ffffffffffffffff81111561194557600080fd5b61195184828501611847565b949350505050565b6020815260006103b5602083018461163f565b60006020828403121561197e57600080fd5b81516103b58161154f565b6000602080838503121561199c57600080fd5b825167ffffffffffffffff808211156119b457600080fd5b818501915085601f8301126119c857600080fd5b8151818111156119da576119da6117c9565b8060051b91506119eb8483016117f8565b8181529183018401918481019088841115611a0557600080fd5b938501935b83851015611a2357845182529385019390850190611a0a565b98975050505050505050565b7f4e487b7100000000000000000000000000000000000000000000000000000000600052603260045260246000fd5b600181811c90821680611a7257607f821691505b602082108103611aab577f4e487b7100000000000000000000000000000000000000000000000000000000600052602260045260246000fd5b50919050565b600060208284031215611ac357600080fd5b815180151581146103b557600080fd5b600080835481600182811c915080831680611aef57607f831692505b60208084108203611b27577f4e487b710000000000000000000000000000000000000000000000000000000086526022600452602486fd5b818015611b3b5760018114611b6a57611b97565b7fffffffffffffffffffffffffffffffffffffffffffffffffffffffffffffff00861689528489019650611b97565b60008a81526020902060005b86811015611b8f5781548b820152908501908301611b76565b505084890196505b509498975050505050505050565b600060208284031215611bb757600080fd5b5051919050565b60007fffffffffffffffffffffffffffffffffffffffffffffffffffffffffffffffff8203611c16577f4e487b7100000000000000000000000000000000000000000000000000000000600052601160045260246000fd5b5060010190565b828152604060208201526000611951604083018461163f56fea26469706673582212200eddeb638593fe5902f9f2305a5dba97d6727a73be2876a0d238df615a9d184f64736f6c634300080d0033608060405234801561001057600080fd5b5061001a3361001f565b6100b4565b600061003361009060201b6105431760201c565b80546040519192506001600160a01b03808516929116907f8be0079c531659141344cd1fd0a4f28419497f9722a3daafe3b4186f6b6457e090600090a380546001600160a01b0319166001600160a01b0392909216919091179055565b7f8a22373512790c48b83a1fe2efdd2888d4a917bcdc24d0adf63e60f67168046090565b610787806100c36000396000f3fe608060405234801561001057600080fd5b50600436106100885760003560e01c80638e7cb6e11161005b5780638e7cb6e114610100578063949d225d1461012a578063cccf7a8e1461013b578063f2fde38b1461015e57600080fd5b80631003e2d21461008d578063410d59cc146100a25780634cc82215146100c05780638da5cb5b146100d3575b600080fd5b6100a061009b36600461061b565b610171565b005b6100aa610233565b6040516100b79190610634565b60405180910390f35b6100a06100ce36600461061b565b61028b565b6100db6103ef565b60405173ffffffffffffffffffffffffffffffffffffffff90911681526020016100b7565b61011361010e36600461061b565b610434565b6040805192151583526020830191909152016100b7565b6000546040519081526020016100b7565b61014e61014936600461061b565b610467565b60405190151581526020016100b7565b6100a061016c366004610678565b6104ca565b7f8a22373512790c48b83a1fe2efdd2888d4a917bcdc24d0adf63e60f6716804605473ffffffffffffffffffffffffffffffffffffffff1633146101e1576040517f2f7a8ee100000000000000000000000000000000000000000000000000000000815260040160405180910390fd5b6101ea81610467565b61023057600080548282526001602081905260408320829055810182559080527f290decd9548b62a8d60345a988386fc84ba6bc95484008f6362f93160ef3e563018190555b50565b6060600080548060200260200160405190810160405280929190818152602001828054801561028157602002820191906000526020600020905b81548152602001906001019080831161026d575b5050505050905090565b7f8a22373512790c48b83a1fe2efdd2888d4a917bcdc24d0adf63e60f6716804605473ffffffffffffffffffffffffffffffffffffffff1633146102fb576040517f2f7a8ee100000000000000000000000000000000000000000000000000000000815260040160405180910390fd5b61030481610467565b156102305760008054610319906001906106b5565b81548110610329576103296106f3565b9060005260206000200154600060016000848152602001908152602001600020548154811061035a5761035a6106f3565b60009182526020808320909101929092558281526001918290526040812054815490929190819084908110610391576103916106f3565b9060005260206000200154815260200190815260200160002081905550600160008281526020019081526020016000206000905560008054806103d6576103d6610722565b6001900381819060005260206000200160009055905550565b600061042f7f8a22373512790c48b83a1fe2efdd2888d4a917bcdc24d0adf63e60f6716804605473ffffffffffffffffffffffffffffffffffffffff1690565b905090565b60008061044083610467565b61044f57506000928392509050565b50506000908152600160208190526040909120549091565b60008054810361047957506000919050565b60008281526001602052604081205490036104b55781600080815481106104a2576104a26106f3565b9060005260206000200154149050919050565b50600090815260016020526040902054151590565b7f8a22373512790c48b83a1fe2efdd2888d4a917bcdc24d0adf63e60f6716804605473ffffffffffffffffffffffffffffffffffffffff16331461053a576040517f2f7a8ee100000000000000000000000000000000000000000000000000000000815260040160405180910390fd5b61023081610567565b7f8a22373512790c48b83a1fe2efdd2888d4a917bcdc24d0adf63e60f67168046090565b7f8a22373512790c48b83a1fe2efdd2888d4a917bcdc24d0adf63e60f6716804608054604051610230928492909173ffffffffffffffffffffffffffffffffffffffff8085169216907f8be0079c531659141344cd1fd0a4f28419497f9722a3daafe3b4186f6b6457e090600090a380547fffffffffffffffffffffffff00000000000000000000000000000000000000001673ffffffffffffffffffffffffffffffffffffffff92909216919091179055565b60006020828403121561062d57600080fd5b5035919050565b6020808252825182820181905260009190848201906040850190845b8181101561066c57835183529284019291840191600101610650565b50909695505050505050565b60006020828403121561068a57600080fd5b813573ffffffffffffffffffffffffffffffffffffffff811681146106ae57600080fd5b9392505050565b6000828210156106ee577f4e487b7100000000000000000000000000000000000000000000000000000000600052601160045260246000fd5b500390565b7f4e487b7100000000000000000000000000000000000000000000000000000000600052603260045260246000fd5b7f4e487b7100000000000000000000000000000000000000000000000000000000600052603160045260246000fdfea2646970667358221220455e53745a45feea7dae971a2e61bdf3056132ddab3b40bb0e6f256b7af6173064736f6c634300080d0033608060405234801561001057600080fd5b5061001a3361001f565b6100b4565b600061003361009060201b6105691760201c565b80546040519192506001600160a01b03808516929116907f8be0079c531659141344cd1fd0a4f28419497f9722a3daafe3b4186f6b6457e090600090a380546001600160a01b0319166001600160a01b0392909216919091179055565b7f8a22373512790c48b83a1fe2efdd2888d4a917bcdc24d0adf63e60f67168046090565b6107cf806100c36000396000f3fe608060405234801561001057600080fd5b506004361061007d5760003560e01c806385edea131161005b57806385edea13146100d35780638da5cb5b14610101578063a0265ff81461012e578063f2fde38b1461015157600080fd5b80636526db7a14610082578063771602f714610097578063796c5e94146100aa575b600080fd5b610095610090366004610641565b610164565b005b6100956100a5366004610641565b610301565b6100bd6100b8366004610663565b6103b5565b6040516100ca919061067c565b60405180910390f35b6100f36100e1366004610663565b60009081526020819052604090205490565b6040519081526020016100ca565b610109610415565b60405173ffffffffffffffffffffffffffffffffffffffff90911681526020016100ca565b61014161013c366004610641565b61045a565b60405190151581526020016100ca565b61009561015f3660046106c0565b6104ed565b7f8a22373512790c48b83a1fe2efdd2888d4a917bcdc24d0adf63e60f6716804605473ffffffffffffffffffffffffffffffffffffffff1633146101d4576040517f2f7a8ee100000000000000000000000000000000000000000000000000000000815260040160405180910390fd5b6101de828261045a565b156102fd57600082815260208190526040902080546101ff906001906106fd565b8154811061020f5761020f61073b565b600091825260208083209091015484835282825260408084206001845281852086865290935290922054815481106102495761024961073b565b6000918252602080832090910192909255838152600182526040808220848352808452818320548684528385529183208584529381905283549193909291849081106102975761029761073b565b600091825260208083209091015483528281019390935260409182018120939093558483526001825280832084845282528083208390558483529082905290208054806102e6576102e661076a565b600190038181906000526020600020016000905590555b5050565b7f8a22373512790c48b83a1fe2efdd2888d4a917bcdc24d0adf63e60f6716804605473ffffffffffffffffffffffffffffffffffffffff163314610371576040517f2f7a8ee100000000000000000000000000000000000000000000000000000000815260040160405180910390fd5b61037b828261045a565b6102fd5760009182526020828152604080842080546001808552838720868852855292862081905585845291820181558452922090910155565b6000818152602081815260409182902080548351818402810184019094528084526060939283018282801561040957602002820191906000526020600020905b8154815260200190600101908083116103f5575b50505050509050919050565b60006104557f8a22373512790c48b83a1fe2efdd2888d4a917bcdc24d0adf63e60f6716804605473ffffffffffffffffffffffffffffffffffffffff1690565b905090565b6000828152602081905260408120548103610477575060006104e7565b600083815260016020908152604080832085845290915281205490036104c957600083815260208190526040812080548492906104b6576104b661073b565b90600052602060002001541490506104e7565b50600082815260016020908152604080832084845290915290205415155b92915050565b7f8a22373512790c48b83a1fe2efdd2888d4a917bcdc24d0adf63e60f6716804605473ffffffffffffffffffffffffffffffffffffffff16331461055d576040517f2f7a8ee100000000000000000000000000000000000000000000000000000000815260040160405180910390fd5b6105668161058d565b50565b7f8a22373512790c48b83a1fe2efdd2888d4a917bcdc24d0adf63e60f67168046090565b7f8a22373512790c48b83a1fe2efdd2888d4a917bcdc24d0adf63e60f6716804608054604051610566928492909173ffffffffffffffffffffffffffffffffffffffff8085169216907f8be0079c531659141344cd1fd0a4f28419497f9722a3daafe3b4186f6b6457e090600090a380547fffffffffffffffffffffffff00000000000000000000000000000000000000001673ffffffffffffffffffffffffffffffffffffffff92909216919091179055565b6000806040838503121561065457600080fd5b50508035926020909101359150565b60006020828403121561067557600080fd5b5035919050565b6020808252825182820181905260009190848201906040850190845b818110156106b457835183529284019291840191600101610698565b50909695505050505050565b6000602082840312156106d257600080fd5b813573ffffffffffffffffffffffffffffffffffffffff811681146106f657600080fd5b9392505050565b600082821015610736577f4e487b7100000000000000000000000000000000000000000000000000000000600052601160045260246000fd5b500390565b7f4e487b7100000000000000000000000000000000000000000000000000000000600052603260045260246000fd5b7f4e487b7100000000000000000000000000000000000000000000000000000000600052603160045260246000fdfea264697066735822122043b59568c19fc80221ef7b86418eccb9afb65b763bc0bbd03bda1b1b5d957ec364736f6c634300080d0033",
    "linkReferences": {}
  },
  "methodIdentifiers": {
    "authorizeWriter(address)": "4fef6a38",
    "getEntities()": "31b933b9",
    "getEntitiesWithValue(bytes)": "b361be46",
    "getEntitiesWithValue(uint16)": "36eed989",
    "getRawValue(uint256)": "b8bc073d",
    "getSchema()": "6b122fe0",
    "getValue()": "20965255",
    "getValue(uint256)": "0ff4c916",
    "has(uint256)": "cccf7a8e",
    "id()": "af640d0f",
    "owner()": "8da5cb5b",
    "registerIndexer(address)": "75c0669c",
    "registerWorld(address)": "9d2c76b4",
    "remove(uint256)": "4cc82215",
    "set(uint16)": "0abbf073",
    "set(uint256,bytes)": "8b282947",
    "set(uint256,uint16)": "530d3e07",
    "transferOwnership(address)": "f2fde38b",
    "unauthorizeWriter(address)": "bf4fe57e",
    "world()": "30b67baa",
    "writeAccess(address)": "861eb905"
  },
  "id": 66
}