{
  "abi": [
    {
      "inputs": [
        {
          "internalType": "contract IWorld",
          "name": "_world",
          "type": "address"
        },
        {
          "internalType": "address",
          "name": "_components",
          "type": "address"
        }
      ],
      "stateMutability": "nonpayable",
      "type": "constructor"
    },
    {
      "inputs": [],
      "name": "Ownable__NotOwner",
      "type": "error"
    },
    {
      "inputs": [],
      "name": "Ownable__NotTransitiveOwner",
      "type": "error"
    },
    {
      "anonymous": false,
      "inputs": [
        {
          "indexed": true,
          "internalType": "address",
          "name": "previousOwner",
          "type": "address"
        },
        {
          "indexed": true,
          "internalType": "address",
          "name": "newOwner",
          "type": "address"
        }
      ],
      "name": "OwnershipTransferred",
      "type": "event"
    },
    {
      "inputs": [
        {
          "internalType": "bytes",
          "name": "args",
          "type": "bytes"
        }
      ],
      "name": "execute",
      "outputs": [
        {
          "internalType": "bytes",
          "name": "",
          "type": "bytes"
        }
      ],
      "stateMutability": "nonpayable",
      "type": "function"
    },
    {
      "inputs": [
        {
          "internalType": "uint256",
          "name": "guildCrestId",
          "type": "uint256"
        }
      ],
      "name": "executeTyped",
      "outputs": [
        {
          "internalType": "bytes",
          "name": "",
          "type": "bytes"
        }
      ],
      "stateMutability": "nonpayable",
      "type": "function"
    },
    {
      "inputs": [],
      "name": "owner",
      "outputs": [
        {
          "internalType": "address",
          "name": "",
          "type": "address"
        }
      ],
      "stateMutability": "view",
      "type": "function"
    },
    {
      "inputs": [
        {
          "internalType": "address",
          "name": "account",
          "type": "address"
        }
      ],
      "name": "transferOwnership",
      "outputs": [],
      "stateMutability": "nonpayable",
      "type": "function"
    }
  ],
  "bytecode": {
    "object": "0x60806040523480156200001157600080fd5b50604051620018413803806200184183398101604081905262000034916200022c565b818162000041336200010f565b6001600160a01b03811615620000585780620000bd565b816001600160a01b031663ba62fbe46040518163ffffffff1660e01b8152600401602060405180830381865afa15801562000097573d6000803e3d6000fd5b505050506040513d601f19601f82011682018060405250810190620000bd91906200026b565b600080546001600160a01b03199081166001600160a01b0393841690811790925560018054909116928516928317905562000105919062000183602090811b620006d717901c565b5050505062000292565b600062000126620001ef60201b620007681760201c565b80546040519192506001600160a01b03808516929116907f8be0079c531659141344cd1fd0a4f28419497f9722a3daafe3b4186f6b6457e090600090a380546001600160a01b0319166001600160a01b0392909216919091179055565b7ff67304f10c7772c78e439bc5cb07781db345424de8878c18100fdaa64d197a8780546001600160a01b039384166001600160a01b0319918216179091557ff67304f10c7772c78e439bc5cb07781db345424de8878c18100fdaa64d197a868054929093169116179055565b7f8a22373512790c48b83a1fe2efdd2888d4a917bcdc24d0adf63e60f67168046090565b6001600160a01b03811681146200022957600080fd5b50565b600080604083850312156200024057600080fd5b82516200024d8162000213565b6020840151909250620002608162000213565b809150509250929050565b6000602082840312156200027e57600080fd5b81516200028b8162000213565b9392505050565b61159f80620002a26000396000f3fe608060405234801561001057600080fd5b506004361061004c5760003560e01c806309c5eabe146100515780633e991df31461007a5780638da5cb5b1461008d578063f2fde38b146100ba575b600080fd5b61006461005f366004611005565b6100cf565b60405161007191906110fb565b60405180910390f35b61006461008836600461110e565b6100f9565b610095610616565b60405173ffffffffffffffffffffffffffffffffffffffff9091168152602001610071565b6100cd6100c8366004611127565b61065b565b005b60606000828060200190518101906100e7919061115d565b90506100f2816100f9565b9392505050565b6000805460609133916101429073ffffffffffffffffffffffffffffffffffffffff167fde95e8412e4c1b59c183267e54d1bef716ab450b30c57bb7c5c88a38771301ab61078c565b6040517fcccf7a8e0000000000000000000000000000000000000000000000000000000081526004810186905290915073ffffffffffffffffffffffffffffffffffffffff82169063cccf7a8e90602401602060405180830381865afa1580156101b0573d6000803e3d6000fd5b505050506040513d601f19601f820116820180604052508101906101d49190611176565b61023f576040517f08c379a000000000000000000000000000000000000000000000000000000000815260206004820152600d60248201527f637265737420696e76616c69640000000000000000000000000000000000000060448201526064015b60405180910390fd5b600080546102839073ffffffffffffffffffffffffffffffffffffffff167f1eda1d28f6db5e8d259ef45f3ba538b7df923e0105b5098809b1ebfe9dd4983f61078c565b6040517f0ff4c9160000000000000000000000000000000000000000000000000000000081526004810187905290915060009073ffffffffffffffffffffffffffffffffffffffff831690630ff4c91690602401602060405180830381865afa1580156102f4573d6000803e3d6000fd5b505050506040513d601f19601f82011682018060405250810190610318919061115d565b9050610323816108d8565b600080546103679073ffffffffffffffffffffffffffffffffffffffff167ff899011875ecdd0cff874cbbf66c1a2682791e10ae993d0a0ef3d2530849a7de61078c565b73ffffffffffffffffffffffffffffffffffffffff1663209652556040518163ffffffff1660e01b8152600401600060405180830381865afa1580156103b1573d6000803e3d6000fd5b505050506040513d6000823e601f3d9081017fffffffffffffffffffffffffffffffffffffffffffffffffffffffffffffffe01682016040526103f791908101906111f6565b9050610407828260400151610ccd565b6040805160a0810182526001815260808084015160208301526000828401819052606083015267ffffffffffffffff42169082015290517fa829044000000000000000000000000000000000000000000000000000000000815273ffffffffffffffffffffffffffffffffffffffff86169163a82904409161048d918b91600401611320565b600060405180830381600087803b1580156104a757600080fd5b505af11580156104bb573d6000803e3d6000fd5b50506040517f4cc82215000000000000000000000000000000000000000000000000000000008152600481018a905273ffffffffffffffffffffffffffffffffffffffff86169250634cc822159150602401600060405180830381600087803b15801561052757600080fd5b505af115801561053b573d6000803e3d6000fd5b5050600054610583925073ffffffffffffffffffffffffffffffffffffffff1690507f53c6c48404020c13382f2b1b9b291c13f7e76aa44e5c76f2f9384b8aa97bfbe061078c565b6040517f1ab06ee5000000000000000000000000000000000000000000000000000000008152600481018990526024810184905273ffffffffffffffffffffffffffffffffffffffff9190911690631ab06ee590604401600060405180830381600087803b1580156105f457600080fd5b505af1158015610608573d6000803e3d6000fd5b505050505050505050919050565b60006106567f8a22373512790c48b83a1fe2efdd2888d4a917bcdc24d0adf63e60f6716804605473ffffffffffffffffffffffffffffffffffffffff1690565b905090565b7f8a22373512790c48b83a1fe2efdd2888d4a917bcdc24d0adf63e60f6716804605473ffffffffffffffffffffffffffffffffffffffff1633146106cb576040517f2f7a8ee100000000000000000000000000000000000000000000000000000000815260040160405180910390fd5b6106d481610e40565b50565b7ff67304f10c7772c78e439bc5cb07781db345424de8878c18100fdaa64d197a87805473ffffffffffffffffffffffffffffffffffffffff9384167fffffffffffffffffffffffff0000000000000000000000000000000000000000918216179091557ff67304f10c7772c78e439bc5cb07781db345424de8878c18100fdaa64d197a868054929093169116179055565b7f8a22373512790c48b83a1fe2efdd2888d4a917bcdc24d0adf63e60f67168046090565b6040517ffbdfa1ea00000000000000000000000000000000000000000000000000000000815260048101829052600090819073ffffffffffffffffffffffffffffffffffffffff85169063fbdfa1ea90602401600060405180830381865afa1580156107fc573d6000803e3d6000fd5b505050506040513d6000823e601f3d9081017fffffffffffffffffffffffffffffffffffffffffffffffffffffffffffffffe01682016040526108429190810190611387565b905080516000036108af576040517f08c379a000000000000000000000000000000000000000000000000000000000815260206004820152601160248201527f6964206e6f7420726567697374657265640000000000000000000000000000006044820152606401610236565b6108d0816000815181106108c5576108c561142d565b602002602001015190565b949350505050565b6000805433919061091f9073ffffffffffffffffffffffffffffffffffffffff167fd9a058a8db06aec9057108bd96cfe2e7f580ccef7b81e22c7f33b2889597c1f261078c565b60008054919250906109679073ffffffffffffffffffffffffffffffffffffffff167f53c6c48404020c13382f2b1b9b291c13f7e76aa44e5c76f2f9384b8aa97bfbe061078c565b60008054919250906109af9073ffffffffffffffffffffffffffffffffffffffff167fde95e8412e4c1b59c183267e54d1bef716ab450b30c57bb7c5c88a38771301ab61078c565b6040517ffbdfa1ea0000000000000000000000000000000000000000000000000000000081526004810186905290915060009073ffffffffffffffffffffffffffffffffffffffff85169063fbdfa1ea90602401600060405180830381865afa158015610a20573d6000803e3d6000fd5b505050506040513d6000823e601f3d9081017fffffffffffffffffffffffffffffffffffffffffffffffffffffffffffffffe0168201604052610a669190810190611387565b90506000805b8251811015610c5c57878573ffffffffffffffffffffffffffffffffffffffff16630ff4c916858481518110610aa457610aa461142d565b60200260200101516040518263ffffffff1660e01b8152600401610aca91815260200190565b602060405180830381865afa158015610ae7573d6000803e3d6000fd5b505050506040513d601f19601f82011682018060405250810190610b0b919061115d565b03610c4a5760008473ffffffffffffffffffffffffffffffffffffffff16630ff4c916858481518110610b4057610b4061142d565b60200260200101516040518263ffffffff1660e01b8152600401610b6691815260200190565b600060405180830381865afa158015610b83573d6000803e3d6000fd5b505050506040513d6000823e601f3d9081017fffffffffffffffffffffffffffffffffffffffffffffffffffffffffffffffe0168201604052610bc9919081019061145c565b90506002816000015163ffffffff161015610c40576040517f08c379a000000000000000000000000000000000000000000000000000000000815260206004820152601060248201527f686173206e6f20617574686f72697479000000000000000000000000000000006044820152606401610236565b6001925050610c5c565b80610c548161150a565b915050610a6c565b5080610cc4576040517f08c379a000000000000000000000000000000000000000000000000000000000815260206004820152601560248201527f6f70657261746f72206e6f7420696e206775696c6400000000000000000000006044820152606401610236565b50505050505050565b60008054610d119073ffffffffffffffffffffffffffffffffffffffff167f53c6c48404020c13382f2b1b9b291c13f7e76aa44e5c76f2f9384b8aa97bfbe061078c565b6040517ffbdfa1ea0000000000000000000000000000000000000000000000000000000081526004810185905290915060009073ffffffffffffffffffffffffffffffffffffffff83169063fbdfa1ea90602401600060405180830381865afa158015610d82573d6000803e3d6000fd5b505050506040513d6000823e601f3d9081017fffffffffffffffffffffffffffffffffffffffffffffffffffffffffffffffe0168201604052610dc89190810190611387565b90508263ffffffff16815110610e3a576040517f08c379a000000000000000000000000000000000000000000000000000000000815260206004820152601160248201527f6c61636b206f6620706f736974696f6e730000000000000000000000000000006044820152606401610236565b50505050565b7f8a22373512790c48b83a1fe2efdd2888d4a917bcdc24d0adf63e60f67168046080546040516106d4928492909173ffffffffffffffffffffffffffffffffffffffff8085169216907f8be0079c531659141344cd1fd0a4f28419497f9722a3daafe3b4186f6b6457e090600090a380547fffffffffffffffffffffffff00000000000000000000000000000000000000001673ffffffffffffffffffffffffffffffffffffffff92909216919091179055565b7f4e487b7100000000000000000000000000000000000000000000000000000000600052604160045260246000fd5b604051610100810167ffffffffffffffff81118282101715610f4757610f47610ef4565b60405290565b60405160a0810167ffffffffffffffff81118282101715610f4757610f47610ef4565b604051601f82017fffffffffffffffffffffffffffffffffffffffffffffffffffffffffffffffe016810167ffffffffffffffff81118282101715610fb757610fb7610ef4565b604052919050565b600067ffffffffffffffff821115610fd957610fd9610ef4565b50601f017fffffffffffffffffffffffffffffffffffffffffffffffffffffffffffffffe01660200190565b60006020828403121561101757600080fd5b813567ffffffffffffffff81111561102e57600080fd5b8201601f8101841361103f57600080fd5b803561105261104d82610fbf565b610f70565b81815285602083850101111561106757600080fd5b81602084016020830137600091810160200191909152949350505050565b60005b838110156110a0578181015183820152602001611088565b83811115610e3a5750506000910152565b600081518084526110c9816020860160208601611085565b601f017fffffffffffffffffffffffffffffffffffffffffffffffffffffffffffffffe0169290920160200192915050565b6020815260006100f260208301846110b1565b60006020828403121561112057600080fd5b5035919050565b60006020828403121561113957600080fd5b813573ffffffffffffffffffffffffffffffffffffffff811681146100f257600080fd5b60006020828403121561116f57600080fd5b5051919050565b60006020828403121561118857600080fd5b815180151581146100f257600080fd5b805163ffffffff811681146111ac57600080fd5b919050565b600082601f8301126111c257600080fd5b81516111d061104d82610fbf565b8181528460208386010111156111e557600080fd5b6108d0826020830160208701611085565b60006020828403121561120857600080fd5b815167ffffffffffffffff8082111561122057600080fd5b90830190610100828603121561123557600080fd5b61123d610f23565b8251815261124d60208401611198565b602082015261125e60408401611198565b604082015260608301518281111561127557600080fd5b611281878286016111b1565b60608301525060808301518281111561129957600080fd5b6112a5878286016111b1565b60808301525060a0830151828111156112bd57600080fd5b6112c9878286016111b1565b60a08301525060c0830151828111156112e157600080fd5b6112ed878286016111b1565b60c08301525060e08301518281111561130557600080fd5b611311878286016111b1565b60e08301525095945050505050565b8281526040602082015263ffffffff82511660408201526000602083015160a0606084015261135260e08401826110b1565b905060408401516080840152606084015160a084015267ffffffffffffffff60808501511660c0840152809150509392505050565b6000602080838503121561139a57600080fd5b825167ffffffffffffffff808211156113b257600080fd5b818501915085601f8301126113c657600080fd5b8151818111156113d8576113d8610ef4565b8060051b91506113e9848301610f70565b818152918301840191848101908884111561140357600080fd5b938501935b8385101561142157845182529385019390850190611408565b98975050505050505050565b7f4e487b7100000000000000000000000000000000000000000000000000000000600052603260045260246000fd5b60006020828403121561146e57600080fd5b815167ffffffffffffffff8082111561148657600080fd5b9083019060a0828603121561149a57600080fd5b6114a2610f4d565b6114ab83611198565b81526020830151828111156114bf57600080fd5b6114cb878286016111b1565b60208301525060408301516040820152606083015160608201526080830151925081831683146114fa57600080fd5b6080810192909252509392505050565b60007fffffffffffffffffffffffffffffffffffffffffffffffffffffffffffffffff8203611562577f4e487b7100000000000000000000000000000000000000000000000000000000600052601160045260246000fd5b506001019056fea2646970667358221220cdc0a93b4e883783de9d5e5c734e60043ac86867c20dd5595e259a2187348c8264736f6c634300080d0033",
    "linkReferences": {}
  },
  "methodIdentifiers": {
    "execute(bytes)": "09c5eabe",
    "executeTyped(uint256)": "3e991df3",
    "owner()": "8da5cb5b",
    "transferOwnership(address)": "f2fde38b"
  },
  "id": 181
}