{
  "abi": [
    {
      "inputs": [
        {
          "internalType": "address",
          "name": "world",
          "type": "address"
        },
        {
          "internalType": "uint256",
          "name": "id",
          "type": "uint256"
        }
      ],
      "stateMutability": "nonpayable",
      "type": "constructor"
    },
    {
      "inputs": [],
      "name": "BareComponent__NotImplemented",
      "type": "error"
    },
    {
      "inputs": [],
      "name": "OwnableWritable__NotWriter",
      "type": "error"
    },
    {
      "inputs": [],
      "name": "Ownable__NotOwner",
      "type": "error"
    },
    {
      "inputs": [],
      "name": "Ownable__NotTransitiveOwner",
      "type": "error"
    },
    {
      "anonymous": false,
      "inputs": [
        {
          "indexed": true,
          "internalType": "address",
          "name": "previousOwner",
          "type": "address"
        },
        {
          "indexed": true,
          "internalType": "address",
          "name": "newOwner",
          "type": "address"
        }
      ],
      "name": "OwnershipTransferred",
      "type": "event"
    },
    {
      "inputs": [
        {
          "internalType": "address",
          "name": "writer",
          "type": "address"
        }
      ],
      "name": "authorizeWriter",
      "outputs": [],
      "stateMutability": "nonpayable",
      "type": "function"
    },
    {
      "inputs": [
        {
          "internalType": "uint256",
          "name": "entity",
          "type": "uint256"
        }
      ],
      "name": "getBuffValue",
      "outputs": [
        {
          "internalType": "int32",
          "name": "",
          "type": "int32"
        }
      ],
      "stateMutability": "view",
      "type": "function"
    },
    {
      "inputs": [],
      "name": "getEntities",
      "outputs": [
        {
          "internalType": "uint256[]",
          "name": "",
          "type": "uint256[]"
        }
      ],
      "stateMutability": "view",
      "type": "function"
    },
    {
      "inputs": [
        {
          "internalType": "bytes",
          "name": "",
          "type": "bytes"
        }
      ],
      "name": "getEntitiesWithValue",
      "outputs": [
        {
          "internalType": "uint256[]",
          "name": "",
          "type": "uint256[]"
        }
      ],
      "stateMutability": "view",
      "type": "function"
    },
    {
      "inputs": [
        {
          "internalType": "uint256",
          "name": "entity",
          "type": "uint256"
        }
      ],
      "name": "getRawValue",
      "outputs": [
        {
          "internalType": "bytes",
          "name": "",
          "type": "bytes"
        }
      ],
      "stateMutability": "view",
      "type": "function"
    },
    {
      "inputs": [],
      "name": "getSchema",
      "outputs": [
        {
          "internalType": "string[]",
          "name": "keys",
          "type": "string[]"
        },
        {
          "internalType": "enum LibTypes.SchemaValue[]",
          "name": "values",
          "type": "uint8[]"
        }
      ],
      "stateMutability": "pure",
      "type": "function"
    },
    {
      "inputs": [
        {
          "internalType": "uint256",
          "name": "entity",
          "type": "uint256"
        }
      ],
      "name": "getValue",
      "outputs": [
        {
          "internalType": "int32",
          "name": "",
          "type": "int32"
        }
      ],
      "stateMutability": "view",
      "type": "function"
    },
    {
      "inputs": [
        {
          "internalType": "uint256",
          "name": "entity",
          "type": "uint256"
        }
      ],
      "name": "has",
      "outputs": [
        {
          "internalType": "bool",
          "name": "",
          "type": "bool"
        }
      ],
      "stateMutability": "view",
      "type": "function"
    },
    {
      "inputs": [],
      "name": "id",
      "outputs": [
        {
          "internalType": "uint256",
          "name": "",
          "type": "uint256"
        }
      ],
      "stateMutability": "view",
      "type": "function"
    },
    {
      "inputs": [],
      "name": "owner",
      "outputs": [
        {
          "internalType": "address",
          "name": "",
          "type": "address"
        }
      ],
      "stateMutability": "view",
      "type": "function"
    },
    {
      "inputs": [
        {
          "internalType": "address",
          "name": "",
          "type": "address"
        }
      ],
      "name": "registerIndexer",
      "outputs": [],
      "stateMutability": "nonpayable",
      "type": "function"
    },
    {
      "inputs": [
        {
          "internalType": "address",
          "name": "_world",
          "type": "address"
        }
      ],
      "name": "registerWorld",
      "outputs": [],
      "stateMutability": "nonpayable",
      "type": "function"
    },
    {
      "inputs": [
        {
          "internalType": "uint256",
          "name": "entity",
          "type": "uint256"
        }
      ],
      "name": "remove",
      "outputs": [],
      "stateMutability": "nonpayable",
      "type": "function"
    },
    {
      "inputs": [
        {
          "internalType": "uint256",
          "name": "entity",
          "type": "uint256"
        },
        {
          "internalType": "bytes",
          "name": "value",
          "type": "bytes"
        }
      ],
      "name": "set",
      "outputs": [],
      "stateMutability": "nonpayable",
      "type": "function"
    },
    {
      "inputs": [
        {
          "internalType": "uint256",
          "name": "entity",
          "type": "uint256"
        },
        {
          "internalType": "int32",
          "name": "value",
          "type": "int32"
        }
      ],
      "name": "set",
      "outputs": [],
      "stateMutability": "nonpayable",
      "type": "function"
    },
    {
      "inputs": [
        {
          "internalType": "address",
          "name": "account",
          "type": "address"
        }
      ],
      "name": "transferOwnership",
      "outputs": [],
      "stateMutability": "nonpayable",
      "type": "function"
    },
    {
      "inputs": [
        {
          "internalType": "address",
          "name": "writer",
          "type": "address"
        }
      ],
      "name": "unauthorizeWriter",
      "outputs": [],
      "stateMutability": "nonpayable",
      "type": "function"
    },
    {
      "inputs": [],
      "name": "world",
      "outputs": [
        {
          "internalType": "address",
          "name": "",
          "type": "address"
        }
      ],
      "stateMutability": "view",
      "type": "function"
    },
    {
      "inputs": [
        {
          "internalType": "address",
          "name": "operator",
          "type": "address"
        }
      ],
      "name": "writeAccess",
      "outputs": [
        {
          "internalType": "bool",
          "name": "",
          "type": "bool"
        }
      ],
      "stateMutability": "view",
      "type": "function"
    }
  ],
  "bytecode": {
    "object": "0x60806040523480156200001157600080fd5b506040516200158038038062001580833981016040819052620000349162000320565b8181620000413362000191565b60028190556001600160a01b038216156200006157620000618262000205565b5050600580546001600160a01b0319166001600160a01b03841690811790915560408051632e98bef960e21b8152905163ba62fbe4916004808201926020929091908290030181865afa158015620000bd573d6000803e3d6000fd5b505050506040513d601f19601f82011682018060405250810190620000e3919062000351565b600380546001600160a01b0319166001600160a01b03928316179055600554604080516306ac999760e11b815290519190921691630d59332e9160048083019260209291908290030181865afa15801562000142573d6000803e3d6000fd5b505050506040513d601f19601f8201168201806040525081019062000168919062000351565b600480546001600160a01b0319166001600160a01b039290921691909117905550620003789050565b6000620001a8620002bd60201b62000a761760201c565b80546040519192506001600160a01b03808516929116907f8be0079c531659141344cd1fd0a4f28419497f9722a3daafe3b4186f6b6457e090600090a380546001600160a01b0319166001600160a01b0392909216919091179055565b6200020f620002e1565b6001600160a01b0316336001600160a01b0316146200024157604051632f7a8ee160e01b815260040160405180910390fd5b600080546001600160a01b0319166001600160a01b038316908117909155600254604051630f30347760e41b8152306004820152602481019190915263f303477090604401600060405180830381600087803b158015620002a157600080fd5b505af1158015620002b6573d6000803e3d6000fd5b5050505050565b7f8a22373512790c48b83a1fe2efdd2888d4a917bcdc24d0adf63e60f67168046090565b6000620002f8620002bd60201b62000a761760201c565b546001600160a01b0316919050565b6001600160a01b03811681146200031d57600080fd5b50565b600080604083850312156200033457600080fd5b8251620003418162000307565b6020939093015192949293505050565b6000602082840312156200036457600080fd5b8151620003718162000307565b9392505050565b6111f880620003886000396000f3fe608060405234801561001057600080fd5b50600436106101515760003560e01c80638b282947116100cd578063b8bc073d11610081578063cccf7a8e11610066578063cccf7a8e146102ed578063d93c413f14610300578063f2fde38b1461031357600080fd5b8063b8bc073d146102ba578063bf4fe57e146102da57600080fd5b80639d2c76b4116100b25780639d2c76b41461027d578063af640d0f14610290578063b361be46146102a757600080fd5b80638b282947146102625780638da5cb5b1461027557600080fd5b80634fef6a38116101245780637203545311610109578063720354531461021957806375c0669c1461022c578063861eb9051461023f57600080fd5b80634fef6a38146101f05780636b122fe01461020357600080fd5b80630ff4c9161461015657806330b67baa1461018157806331b933b9146101c65780634cc82215146101db575b600080fd5b610169610164366004610d3d565b610326565b60405160039190910b81526020015b60405180910390f35b6000546101a19073ffffffffffffffffffffffffffffffffffffffff1681565b60405173ffffffffffffffffffffffffffffffffffffffff9091168152602001610178565b6101ce61034c565b6040516101789190610d56565b6101ee6101e9366004610d3d565b610380565b005b6101ee6101fe366004610d9a565b6103cb565b61020b6104a9565b604051610178929190610e6a565b610169610227366004610d3d565b610595565b6101ee61023a366004610d9a565b6105bd565b61025261024d366004610d9a565b6105ef565b6040519015158152602001610178565b6101ee610270366004611034565b61067a565b6101a16106c7565b6101ee61028b366004610d9a565b61070c565b61029960025481565b604051908152602001610178565b6101ce6102b536600461107b565b61034c565b6102cd6102c8366004610d3d565b610835565b60405161017891906110b8565b6101ee6102e8366004610d9a565b6108d7565b6102526102fb366004610d3d565b6109b2565b6101ee61030e3660046110da565b6109d4565b6101ee610321366004610d9a565b6109fd565b60008061033283610835565b806020019051810190610345919061110a565b9392505050565b60606040517f17d5b8e800000000000000000000000000000000000000000000000000000000815260040160405180910390fd5b610389336105ef565b6103bf576040517f406ed3da00000000000000000000000000000000000000000000000000000000815260040160405180910390fd5b6103c881610a9a565b50565b7f8a22373512790c48b83a1fe2efdd2888d4a917bcdc24d0adf63e60f6716804605473ffffffffffffffffffffffffffffffffffffffff16331461043b576040517f2f7a8ee100000000000000000000000000000000000000000000000000000000815260040160405180910390fd5b73ffffffffffffffffffffffffffffffffffffffff1660009081527f8ffeadc5cba727b8cc3cdef48739619490ea317fdb3baae1259089d06f92c9096020526040902080547fffffffffffffffffffffffffffffffffffffffffffffffffffffffffffffff00166001179055565b604080516001808252818301909252606091829190816020015b60608152602001906001900390816104c3575050604080516001808252818301909252919350602080830190803683370190505090506040518060400160405280600581526020017f76616c75650000000000000000000000000000000000000000000000000000008152508260008151811061054257610542611127565b602002602001018190525060038160008151811061056257610562611127565b6020026020010190602181111561057b5761057b610e3b565b9081602181111561058e5761058e610e3b565b9052509091565b6000806105a183610835565b8060200190518101906105b4919061110a565b90506000610345565b6040517f17d5b8e800000000000000000000000000000000000000000000000000000000815260040160405180910390fd5b73ffffffffffffffffffffffffffffffffffffffff811660009081527f8ffeadc5cba727b8cc3cdef48739619490ea317fdb3baae1259089d06f92c909602052604081205460ff168061067457506106456106c7565b73ffffffffffffffffffffffffffffffffffffffff168273ffffffffffffffffffffffffffffffffffffffff16145b92915050565b610683336105ef565b6106b9576040517f406ed3da00000000000000000000000000000000000000000000000000000000815260040160405180910390fd5b6106c38282610b08565b5050565b60006107077f8a22373512790c48b83a1fe2efdd2888d4a917bcdc24d0adf63e60f6716804605473ffffffffffffffffffffffffffffffffffffffff1690565b905090565b7f8a22373512790c48b83a1fe2efdd2888d4a917bcdc24d0adf63e60f6716804605473ffffffffffffffffffffffffffffffffffffffff16331461077c576040517f2f7a8ee100000000000000000000000000000000000000000000000000000000815260040160405180910390fd5b600080547fffffffffffffffffffffffff00000000000000000000000000000000000000001673ffffffffffffffffffffffffffffffffffffffff83169081179091556002546040517ff3034770000000000000000000000000000000000000000000000000000000008152306004820152602481019190915263f3034770906044015b600060405180830381600087803b15801561081a57600080fd5b505af115801561082e573d6000803e3d6000fd5b5050505050565b600081815260016020526040902080546060919061085290611156565b80601f016020809104026020016040519081016040528092919081815260200182805461087e90611156565b80156108cb5780601f106108a0576101008083540402835291602001916108cb565b820191906000526020600020905b8154815290600101906020018083116108ae57829003601f168201915b50505050509050919050565b7f8a22373512790c48b83a1fe2efdd2888d4a917bcdc24d0adf63e60f6716804605473ffffffffffffffffffffffffffffffffffffffff163314610947576040517f2f7a8ee100000000000000000000000000000000000000000000000000000000815260040160405180910390fd5b73ffffffffffffffffffffffffffffffffffffffff1660009081527f8ffeadc5cba727b8cc3cdef48739619490ea317fdb3baae1259089d06f92c9096020526040902080547fffffffffffffffffffffffffffffffffffffffffffffffffffffffffffffff00169055565b600081815260016020526040812080546109cb90611156565b15159392505050565b60408051600383900b60208201526106c39184910160405160208183030381529060405261067a565b7f8a22373512790c48b83a1fe2efdd2888d4a917bcdc24d0adf63e60f6716804605473ffffffffffffffffffffffffffffffffffffffff163314610a6d576040517f2f7a8ee100000000000000000000000000000000000000000000000000000000815260040160405180910390fd5b6103c881610bb6565b7f8a22373512790c48b83a1fe2efdd2888d4a917bcdc24d0adf63e60f67168046090565b6000818152600160205260408120610ab191610c6a565b6000546040517f0de3b7b50000000000000000000000000000000000000000000000000000000081526004810183905273ffffffffffffffffffffffffffffffffffffffff90911690630de3b7b590602401610800565b60008281526001602090815260409091208251610b2792840190610ca4565b506000546040517fcfd3c57f00000000000000000000000000000000000000000000000000000000815273ffffffffffffffffffffffffffffffffffffffff9091169063cfd3c57f90610b8090859085906004016111a9565b600060405180830381600087803b158015610b9a57600080fd5b505af1158015610bae573d6000803e3d6000fd5b505050505050565b7f8a22373512790c48b83a1fe2efdd2888d4a917bcdc24d0adf63e60f67168046080546040516103c8928492909173ffffffffffffffffffffffffffffffffffffffff8085169216907f8be0079c531659141344cd1fd0a4f28419497f9722a3daafe3b4186f6b6457e090600090a380547fffffffffffffffffffffffff00000000000000000000000000000000000000001673ffffffffffffffffffffffffffffffffffffffff92909216919091179055565b508054610c7690611156565b6000825580601f10610c86575050565b601f0160209004906000526020600020908101906103c89190610d28565b828054610cb090611156565b90600052602060002090601f016020900481019282610cd25760008555610d18565b82601f10610ceb57805160ff1916838001178555610d18565b82800160010185558215610d18579182015b82811115610d18578251825591602001919060010190610cfd565b50610d24929150610d28565b5090565b5b80821115610d245760008155600101610d29565b600060208284031215610d4f57600080fd5b5035919050565b6020808252825182820181905260009190848201906040850190845b81811015610d8e57835183529284019291840191600101610d72565b50909695505050505050565b600060208284031215610dac57600080fd5b813573ffffffffffffffffffffffffffffffffffffffff8116811461034557600080fd5b6000815180845260005b81811015610df657602081850181015186830182015201610dda565b81811115610e08576000602083870101525b50601f017fffffffffffffffffffffffffffffffffffffffffffffffffffffffffffffffe0169290920160200192915050565b7f4e487b7100000000000000000000000000000000000000000000000000000000600052602160045260246000fd5b6000604082016040835280855180835260608501915060608160051b8601019250602080880160005b83811015610edf577fffffffffffffffffffffffffffffffffffffffffffffffffffffffffffffffa0888703018552610ecd868351610dd0565b95509382019390820190600101610e93565b50508584038187015286518085528782019482019350915060005b82811015610f4d57845160228110610f3b577f4e487b7100000000000000000000000000000000000000000000000000000000600052602160045260246000fd5b84529381019392810192600101610efa565b5091979650505050505050565b7f4e487b7100000000000000000000000000000000000000000000000000000000600052604160045260246000fd5b600082601f830112610f9a57600080fd5b813567ffffffffffffffff80821115610fb557610fb5610f5a565b604051601f83017fffffffffffffffffffffffffffffffffffffffffffffffffffffffffffffffe0908116603f01168101908282118183101715610ffb57610ffb610f5a565b8160405283815286602085880101111561101457600080fd5b836020870160208301376000602085830101528094505050505092915050565b6000806040838503121561104757600080fd5b82359150602083013567ffffffffffffffff81111561106557600080fd5b61107185828601610f89565b9150509250929050565b60006020828403121561108d57600080fd5b813567ffffffffffffffff8111156110a457600080fd5b6110b084828501610f89565b949350505050565b6020815260006103456020830184610dd0565b8060030b81146103c857600080fd5b600080604083850312156110ed57600080fd5b8235915060208301356110ff816110cb565b809150509250929050565b60006020828403121561111c57600080fd5b8151610345816110cb565b7f4e487b7100000000000000000000000000000000000000000000000000000000600052603260045260246000fd5b600181811c9082168061116a57607f821691505b6020821081036111a3577f4e487b7100000000000000000000000000000000000000000000000000000000600052602260045260246000fd5b50919050565b8281526040602082015260006110b06040830184610dd056fea26469706673582212203962fd060dbd516fa48296b926668403d7f16600c5f2cecd2dc4e48d25af9c9864736f6c634300080d0033",
    "linkReferences": {}
  },
  "methodIdentifiers": {
    "authorizeWriter(address)": "4fef6a38",
    "getBuffValue(uint256)": "72035453",
    "getEntities()": "31b933b9",
    "getEntitiesWithValue(bytes)": "b361be46",
    "getRawValue(uint256)": "b8bc073d",
    "getSchema()": "6b122fe0",
    "getValue(uint256)": "0ff4c916",
    "has(uint256)": "cccf7a8e",
    "id()": "af640d0f",
    "owner()": "8da5cb5b",
    "registerIndexer(address)": "75c0669c",
    "registerWorld(address)": "9d2c76b4",
    "remove(uint256)": "4cc82215",
    "set(uint256,bytes)": "8b282947",
    "set(uint256,int32)": "d93c413f",
    "transferOwnership(address)": "f2fde38b",
    "unauthorizeWriter(address)": "bf4fe57e",
    "world()": "30b67baa",
    "writeAccess(address)": "861eb905"
  },
  "id": 163
}