{
  "abi": [
    {
      "inputs": [
        {
          "internalType": "contract IWorld",
          "name": "_world",
          "type": "address"
        },
        {
          "internalType": "address",
          "name": "_components",
          "type": "address"
        }
      ],
      "stateMutability": "nonpayable",
      "type": "constructor"
    },
    {
      "inputs": [],
      "name": "Ownable__NotOwner",
      "type": "error"
    },
    {
      "inputs": [],
      "name": "Ownable__NotTransitiveOwner",
      "type": "error"
    },
    {
      "anonymous": false,
      "inputs": [
        {
          "indexed": true,
          "internalType": "address",
          "name": "previousOwner",
          "type": "address"
        },
        {
          "indexed": true,
          "internalType": "address",
          "name": "newOwner",
          "type": "address"
        }
      ],
      "name": "OwnershipTransferred",
      "type": "event"
    },
    {
      "inputs": [
        {
          "internalType": "bytes",
          "name": "args",
          "type": "bytes"
        }
      ],
      "name": "execute",
      "outputs": [
        {
          "internalType": "bytes",
          "name": "",
          "type": "bytes"
        }
      ],
      "stateMutability": "nonpayable",
      "type": "function"
    },
    {
      "inputs": [
        {
          "components": [
            {
              "internalType": "uint256",
              "name": "component",
              "type": "uint256"
            },
            {
              "internalType": "uint256",
              "name": "entity",
              "type": "uint256"
            },
            {
              "internalType": "bytes",
              "name": "lastValue",
              "type": "bytes"
            },
            {
              "internalType": "bytes",
              "name": "newValue",
              "type": "bytes"
            },
            {
              "internalType": "bool",
              "name": "isSet",
              "type": "bool"
            }
          ],
          "internalType": "struct TriggerInfo",
          "name": "triggerInfo",
          "type": "tuple"
        }
      ],
      "name": "executeTyped",
      "outputs": [
        {
          "internalType": "bytes",
          "name": "",
          "type": "bytes"
        }
      ],
      "stateMutability": "nonpayable",
      "type": "function"
    },
    {
      "inputs": [],
      "name": "owner",
      "outputs": [
        {
          "internalType": "address",
          "name": "",
          "type": "address"
        }
      ],
      "stateMutability": "view",
      "type": "function"
    },
    {
      "inputs": [
        {
          "components": [
            {
              "internalType": "uint256",
              "name": "component",
              "type": "uint256"
            },
            {
              "internalType": "uint256",
              "name": "entity",
              "type": "uint256"
            },
            {
              "internalType": "bytes",
              "name": "lastValue",
              "type": "bytes"
            },
            {
              "internalType": "bytes",
              "name": "newValue",
              "type": "bytes"
            },
            {
              "internalType": "bool",
              "name": "isSet",
              "type": "bool"
            }
          ],
          "internalType": "struct TriggerInfo",
          "name": "triggerInfo",
          "type": "tuple"
        }
      ],
      "name": "solveLogic",
      "outputs": [
        {
          "internalType": "bytes",
          "name": "",
          "type": "bytes"
        }
      ],
      "stateMutability": "nonpayable",
      "type": "function"
    },
    {
      "inputs": [
        {
          "internalType": "address",
          "name": "account",
          "type": "address"
        }
      ],
      "name": "transferOwnership",
      "outputs": [],
      "stateMutability": "nonpayable",
      "type": "function"
    }
  ],
  "bytecode": {
    "object": "0x60806040523480156200001157600080fd5b506040516200123538038062001235833981016040819052620000349162000230565b81818181620000433362000113565b6001600160a01b038116156200005a5780620000bf565b816001600160a01b031663ba62fbe46040518163ffffffff1660e01b8152600401602060405180830381865afa15801562000099573d6000803e3d6000fd5b505050506040513d601f19601f82011682018060405250810190620000bf91906200026f565b600080546001600160a01b03199081166001600160a01b0393841690811790925560018054909116928516928317905562000107919062000187602090811b6200035817901c565b50505050505062000296565b60006200012a620001f360201b620003e91760201c565b80546040519192506001600160a01b03808516929116907f8be0079c531659141344cd1fd0a4f28419497f9722a3daafe3b4186f6b6457e090600090a380546001600160a01b0319166001600160a01b0392909216919091179055565b7ff67304f10c7772c78e439bc5cb07781db345424de8878c18100fdaa64d197a8780546001600160a01b039384166001600160a01b0319918216179091557ff67304f10c7772c78e439bc5cb07781db345424de8878c18100fdaa64d197a868054929093169116179055565b7f8a22373512790c48b83a1fe2efdd2888d4a917bcdc24d0adf63e60f67168046090565b6001600160a01b03811681146200022d57600080fd5b50565b600080604083850312156200024457600080fd5b8251620002518162000217565b6020840151909250620002648162000217565b809150509250929050565b6000602082840312156200028257600080fd5b81516200028f8162000217565b9392505050565b610f8f80620002a66000396000f3fe608060405234801561001057600080fd5b50600436106100675760003560e01c80638da5cb5b116100505780638da5cb5b146100a8578063f2fde38b146100d5578063ffc56da8146100ea57600080fd5b806309c5eabe1461006c57806382781c5114610095575b600080fd5b61007f61007a366004610b23565b6100fd565b60405161008c9190610bd2565b60405180910390f35b61007f6100a3366004610bf3565b610127565b6100b0610138565b60405173ffffffffffffffffffffffffffffffffffffffff909116815260200161008c565b6100e86100e3366004610caf565b61017d565b005b61007f6100f8366004610bf3565b6101f9565b60606000828060200190518101906101159190610d2a565b905061012081610127565b9392505050565b6060610132826101f9565b92915050565b60006101787f8a22373512790c48b83a1fe2efdd2888d4a917bcdc24d0adf63e60f6716804605473ffffffffffffffffffffffffffffffffffffffff1690565b905090565b7f8a22373512790c48b83a1fe2efdd2888d4a917bcdc24d0adf63e60f6716804605473ffffffffffffffffffffffffffffffffffffffff1633146101ed576040517f2f7a8ee100000000000000000000000000000000000000000000000000000000815260040160405180910390fd5b6101f68161040d565b50565b60208101518151606091907f6c062316985e8e531501d3a588aed06abfad54c545ae238fe2d6f51a6ab9bee814610291576040517f08c379a000000000000000000000000000000000000000000000000000000000815260206004820152600e60248201527f696e76616c696420736f7572636500000000000000000000000000000000000060448201526064015b60405180910390fd5b61029a81610416565b6102a381610687565b6000546102e69073ffffffffffffffffffffffffffffffffffffffff167f0f2f1f89defcb2e35e7a49b75f5a0777c977a6210b31a42137e9620ef524f0dc6107e8565b73ffffffffffffffffffffffffffffffffffffffff16634cc82215826040518263ffffffff1660e01b815260040161032091815260200190565b600060405180830381600087803b15801561033a57600080fd5b505af115801561034e573d6000803e3d6000fd5b5050505050919050565b7ff67304f10c7772c78e439bc5cb07781db345424de8878c18100fdaa64d197a87805473ffffffffffffffffffffffffffffffffffffffff9384167fffffffffffffffffffffffff0000000000000000000000000000000000000000918216179091557ff67304f10c7772c78e439bc5cb07781db345424de8878c18100fdaa64d197a868054929093169116179055565b7f8a22373512790c48b83a1fe2efdd2888d4a917bcdc24d0adf63e60f67168046090565b6101f681610934565b6000805461045a9073ffffffffffffffffffffffffffffffffffffffff167fd7eb4644b0f312b764e14b10dbe895c6ee4acad8c1eb37a4791309b4d942e4276107e8565b6040517f0ff4c9160000000000000000000000000000000000000000000000000000000081526004810184905290915060009073ffffffffffffffffffffffffffffffffffffffff831690630ff4c91690602401602060405180830381865afa1580156104cb573d6000803e3d6000fd5b505050506040513d601f19601f820116820180604052508101906104ef9190610dd6565b6040517f4cc822150000000000000000000000000000000000000000000000000000000081526004810185905290915073ffffffffffffffffffffffffffffffffffffffff831690634cc8221590602401600060405180830381600087803b15801561055a57600080fd5b505af115801561056e573d6000803e3d6000fd5b5050600080549092506105b8915073ffffffffffffffffffffffffffffffffffffffff167fe84ae06d0531147bba573e3e5c6876c59c1ba9645cd7e87eb5141ca18dcfd2846107e8565b6040805160808101825260049181019182527f6465616400000000000000000000000000000000000000000000000000000000606082015290815290915073ffffffffffffffffffffffffffffffffffffffff821690639a8536609084906020810161062542600a610def565b67ffffffffffffffff168152506040518363ffffffff1660e01b815260040161064f929190610e42565b600060405180830381600087803b15801561066957600080fd5b505af115801561067d573d6000803e3d6000fd5b5050505050505050565b600080546106cb9073ffffffffffffffffffffffffffffffffffffffff167f2f3c6eb2abe480dcea02a3f0d6883cd4e62a46b8207d85e1ff6f6e5cdee24b7a6107e8565b6040517f0ff4c9160000000000000000000000000000000000000000000000000000000081526004810184905290915060009073ffffffffffffffffffffffffffffffffffffffff831690630ff4c91690602401602060405180830381865afa15801561073c573d6000803e3d6000fd5b505050506040513d601f19601f820116820180604052508101906107609190610dd6565b6040517f4cc822150000000000000000000000000000000000000000000000000000000081526004810185905290915073ffffffffffffffffffffffffffffffffffffffff831690634cc8221590602401600060405180830381600087803b1580156107cb57600080fd5b505af11580156107df573d6000803e3d6000fd5b50505050505050565b6040517ffbdfa1ea00000000000000000000000000000000000000000000000000000000815260048101829052600090819073ffffffffffffffffffffffffffffffffffffffff85169063fbdfa1ea90602401600060405180830381865afa158015610858573d6000803e3d6000fd5b505050506040513d6000823e601f3d9081017fffffffffffffffffffffffffffffffffffffffffffffffffffffffffffffffe016820160405261089e9190810190610e84565b9050805160000361090b576040517f08c379a000000000000000000000000000000000000000000000000000000000815260206004820152601160248201527f6964206e6f7420726567697374657265640000000000000000000000000000006044820152606401610288565b61092c8160008151811061092157610921610f2a565b602002602001015190565b949350505050565b7f8a22373512790c48b83a1fe2efdd2888d4a917bcdc24d0adf63e60f671680460805460405173ffffffffffffffffffffffffffffffffffffffff8481169216907f8be0079c531659141344cd1fd0a4f28419497f9722a3daafe3b4186f6b6457e090600090a380547fffffffffffffffffffffffff00000000000000000000000000000000000000001673ffffffffffffffffffffffffffffffffffffffff92909216919091179055565b7f4e487b7100000000000000000000000000000000000000000000000000000000600052604160045260246000fd5b60405160a0810167ffffffffffffffff81118282101715610a3257610a326109e0565b60405290565b604051601f82017fffffffffffffffffffffffffffffffffffffffffffffffffffffffffffffffe016810167ffffffffffffffff81118282101715610a7f57610a7f6109e0565b604052919050565b600067ffffffffffffffff821115610aa157610aa16109e0565b50601f017fffffffffffffffffffffffffffffffffffffffffffffffffffffffffffffffe01660200190565b600082601f830112610ade57600080fd5b8135610af1610aec82610a87565b610a38565b818152846020838601011115610b0657600080fd5b816020850160208301376000918101602001919091529392505050565b600060208284031215610b3557600080fd5b813567ffffffffffffffff811115610b4c57600080fd5b61092c84828501610acd565b60005b83811015610b73578181015183820152602001610b5b565b83811115610b82576000848401525b50505050565b60008151808452610ba0816020860160208601610b58565b601f017fffffffffffffffffffffffffffffffffffffffffffffffffffffffffffffffe0169290920160200192915050565b6020815260006101206020830184610b88565b80151581146101f657600080fd5b600060208284031215610c0557600080fd5b813567ffffffffffffffff80821115610c1d57600080fd5b9083019060a08286031215610c3157600080fd5b610c39610a0f565b8235815260208301356020820152604083013582811115610c5957600080fd5b610c6587828601610acd565b604083015250606083013582811115610c7d57600080fd5b610c8987828601610acd565b60608301525060808301359250610c9f83610be5565b6080810192909252509392505050565b600060208284031215610cc157600080fd5b813573ffffffffffffffffffffffffffffffffffffffff8116811461012057600080fd5b600082601f830112610cf657600080fd5b8151610d04610aec82610a87565b818152846020838601011115610d1957600080fd5b61092c826020830160208701610b58565b600060208284031215610d3c57600080fd5b815167ffffffffffffffff80821115610d5457600080fd5b9083019060a08286031215610d6857600080fd5b610d70610a0f565b8251815260208301516020820152604083015182811115610d9057600080fd5b610d9c87828601610ce5565b604083015250606083015182811115610db457600080fd5b610dc087828601610ce5565b60608301525060808301519250610c9f83610be5565b600060208284031215610de857600080fd5b5051919050565b600067ffffffffffffffff808316818516808303821115610e39577f4e487b7100000000000000000000000000000000000000000000000000000000600052601160045260246000fd5b01949350505050565b8281526040602082015260008251604080840152610e636080840182610b88565b905067ffffffffffffffff6020850151166060840152809150509392505050565b60006020808385031215610e9757600080fd5b825167ffffffffffffffff80821115610eaf57600080fd5b818501915085601f830112610ec357600080fd5b815181811115610ed557610ed56109e0565b8060051b9150610ee6848301610a38565b8181529183018401918481019088841115610f0057600080fd5b938501935b83851015610f1e57845182529385019390850190610f05565b98975050505050505050565b7f4e487b7100000000000000000000000000000000000000000000000000000000600052603260045260246000fdfea26469706673582212207f2437dacff43c004ec87bbfe76e437ad67949f54f584f89f4e6845e060f931764736f6c634300080d0033",
    "linkReferences": {}
  },
  "methodIdentifiers": {
    "execute(bytes)": "09c5eabe",
    "executeTyped((uint256,uint256,bytes,bytes,bool))": "82781c51",
    "owner()": "8da5cb5b",
    "solveLogic((uint256,uint256,bytes,bytes,bool))": "ffc56da8",
    "transferOwnership(address)": "f2fde38b"
  },
  "id": 200
}