{
  "abi": [
    {
      "inputs": [
        {
          "internalType": "contract IWorld",
          "name": "_world",
          "type": "address"
        },
        {
          "internalType": "address",
          "name": "_components",
          "type": "address"
        }
      ],
      "stateMutability": "nonpayable",
      "type": "constructor"
    },
    {
      "inputs": [],
      "name": "Ownable__NotOwner",
      "type": "error"
    },
    {
      "inputs": [],
      "name": "Ownable__NotTransitiveOwner",
      "type": "error"
    },
    {
      "anonymous": false,
      "inputs": [
        {
          "indexed": true,
          "internalType": "address",
          "name": "previousOwner",
          "type": "address"
        },
        {
          "indexed": true,
          "internalType": "address",
          "name": "newOwner",
          "type": "address"
        }
      ],
      "name": "OwnershipTransferred",
      "type": "event"
    },
    {
      "inputs": [
        {
          "internalType": "bytes",
          "name": "args",
          "type": "bytes"
        }
      ],
      "name": "execute",
      "outputs": [
        {
          "internalType": "bytes",
          "name": "",
          "type": "bytes"
        }
      ],
      "stateMutability": "nonpayable",
      "type": "function"
    },
    {
      "inputs": [
        {
          "components": [
            {
              "internalType": "uint256",
              "name": "realHash",
              "type": "uint256"
            },
            {
              "internalType": "uint256",
              "name": "fogHash",
              "type": "uint256"
            },
            {
              "internalType": "uint256",
              "name": "width",
              "type": "uint256"
            },
            {
              "internalType": "uint256",
              "name": "height",
              "type": "uint256"
            },
            {
              "internalType": "uint256",
              "name": "terrainSeed",
              "type": "uint256"
            },
            {
              "internalType": "uint256",
              "name": "fogSeed",
              "type": "uint256"
            },
            {
              "internalType": "uint256",
              "name": "resourceSeed",
              "type": "uint256"
            },
            {
              "internalType": "uint256",
              "name": "terrainPerlin",
              "type": "uint256"
            },
            {
              "internalType": "uint256",
              "name": "resourcePerlin",
              "type": "uint256"
            },
            {
              "internalType": "uint256[2]",
              "name": "a",
              "type": "uint256[2]"
            },
            {
              "internalType": "uint256[2][2]",
              "name": "b",
              "type": "uint256[2][2]"
            },
            {
              "internalType": "uint256[2]",
              "name": "c",
              "type": "uint256[2]"
            },
            {
              "internalType": "uint256[]",
              "name": "powNonces",
              "type": "uint256[]"
            }
          ],
          "internalType": "struct DigInfo",
          "name": "digInfo",
          "type": "tuple"
        }
      ],
      "name": "executeTyped",
      "outputs": [
        {
          "internalType": "bytes",
          "name": "",
          "type": "bytes"
        }
      ],
      "stateMutability": "nonpayable",
      "type": "function"
    },
    {
      "inputs": [],
      "name": "owner",
      "outputs": [
        {
          "internalType": "address",
          "name": "",
          "type": "address"
        }
      ],
      "stateMutability": "view",
      "type": "function"
    },
    {
      "inputs": [
        {
          "internalType": "address",
          "name": "account",
          "type": "address"
        }
      ],
      "name": "transferOwnership",
      "outputs": [],
      "stateMutability": "nonpayable",
      "type": "function"
    }
  ],
  "bytecode": {
    "object": "0x60806040523480156200001157600080fd5b50604051620035433803806200354383398101604081905262000034916200022c565b818162000041336200010f565b6001600160a01b03811615620000585780620000bd565b816001600160a01b031663ba62fbe46040518163ffffffff1660e01b8152600401602060405180830381865afa15801562000097573d6000803e3d6000fd5b505050506040513d601f19601f82011682018060405250810190620000bd91906200026b565b600080546001600160a01b03199081166001600160a01b0393841690811790925560018054909116928516928317905562000105919062000183602090811b62000bd917901c565b5050505062000292565b600062000126620001ef60201b62000c6a1760201c565b80546040519192506001600160a01b03808516929116907f8be0079c531659141344cd1fd0a4f28419497f9722a3daafe3b4186f6b6457e090600090a380546001600160a01b0319166001600160a01b0392909216919091179055565b7ff67304f10c7772c78e439bc5cb07781db345424de8878c18100fdaa64d197a8780546001600160a01b039384166001600160a01b0319918216179091557ff67304f10c7772c78e439bc5cb07781db345424de8878c18100fdaa64d197a868054929093169116179055565b7f8a22373512790c48b83a1fe2efdd2888d4a917bcdc24d0adf63e60f67168046090565b6001600160a01b03811681146200022957600080fd5b50565b600080604083850312156200024057600080fd5b82516200024d8162000213565b6020840151909250620002608162000213565b809150509250929050565b6000602082840312156200027e57600080fd5b81516200028b8162000213565b9392505050565b6132a180620002a26000396000f3fe608060405234801561001057600080fd5b506004361061004c5760003560e01c806309c5eabe146100515780638da5cb5b1461007a578063af356f11146100a7578063f2fde38b146100ba575b600080fd5b61006461005f3660046123f7565b6100cf565b60405161007191906124aa565b60405180910390f35b6100826100f9565b60405173ffffffffffffffffffffffffffffffffffffffff9091168152602001610071565b6100646100b536600461264b565b61013e565b6100cd6100c8366004612773565b610b5d565b005b60606000828060200190518101906100e7919061287f565b90506100f28161013e565b9392505050565b60006101397f8a22373512790c48b83a1fe2efdd2888d4a917bcdc24d0adf63e60f6716804605473ffffffffffffffffffffffffffffffffffffffff1690565b905090565b60008054606091906101869073ffffffffffffffffffffffffffffffffffffffff167fd0deb8af54f5692432398f7f62bf53c9e54e6d6a9b4dbccb012b3fe04ea432d3610c8e565b73ffffffffffffffffffffffffffffffffffffffff1663209652556040518163ffffffff1660e01b815260040161016060405180830381865afa1580156101d1573d6000803e3d6000fd5b505050506040513d601f19601f820116820180604052508101906101f59190612995565b8051909150156103685760006040518061012001604052808560000151815260200185602001518152602001856080015181526020018560a0015181526020018560c0015181526020018560e001518152602001856101000151815260200185604001518152602001856060015181525090508160e0015173ffffffffffffffffffffffffffffffffffffffff1663c542c93b856101200151866101400151876101600151856040518563ffffffff1660e01b81526004016102ba9493929190612a98565b602060405180830381865afa1580156102d7573d6000803e3d6000fd5b505050506040513d601f19601f820116820180604052508101906102fb9190612b1c565b610366576040517f08c379a000000000000000000000000000000000000000000000000000000000815260206004820152601b60248201527f4661696c6564207265736f757263652070726f6f6620636865636b000000000060448201526064015b60405180910390fd5b505b60005433906103ad9073ffffffffffffffffffffffffffffffffffffffff167fd7eb4644b0f312b764e14b10dbe895c6ee4acad8c1eb37a4791309b4d942e427610c8e565b73ffffffffffffffffffffffffffffffffffffffff16630ff4c916826040518263ffffffff1660e01b81526004016103e791815260200190565b602060405180830381865afa158015610404573d6000803e3d6000fd5b505050506040513d601f19601f820116820180604052508101906104289190612b37565b846020015114610494576040517f08c379a000000000000000000000000000000000000000000000000000000000815260206004820152601860248201527f6e6f74207374616e64696e67206f6e207265736f757263650000000000000000604482015260640161035d565b600080546104d89073ffffffffffffffffffffffffffffffffffffffff167f9e0b856941fb70fc9b56c896d5f39a2079c3ed041dbc5e87efbf9c503b354b76610c8e565b73ffffffffffffffffffffffffffffffffffffffff1663209652556040518163ffffffff1660e01b815260040160e060405180830381865afa158015610522573d6000803e3d6000fd5b505050506040513d601f19601f820116820180604052508101906105469190612b68565b9050806080015167ffffffffffffffff1685604001511115801561057c57508060a0015167ffffffffffffffff16856060015111155b6105e2576040517f08c379a000000000000000000000000000000000000000000000000000000000815260206004820152601160248201527f726164697573206f766572206c696d6974000000000000000000000000000000604482015260640161035d565b806000015167ffffffffffffffff16816020015167ffffffffffffffff16106106c457611d4c8560e001511015801561063157508051610623906002612d49565b855161062f9190612d8e565b155b8015610659575060008160200151600261064b9190612d49565b86516106579190612d8e565b115b6106bf576040517f08c379a000000000000000000000000000000000000000000000000000000000815260206004820152601260248201527f6e6f207265736f7572636520746f206469670000000000000000000000000000604482015260640161035d565b610756565b611d4c8560e00151101580156106f0575080516106e2906002612d49565b85516106ee9190612d8e565b155b610756576040517f08c379a000000000000000000000000000000000000000000000000000000000815260206004820152601260248201527f6e6f207265736f7572636520746f206469670000000000000000000000000000604482015260640161035d565b6000805461079a9073ffffffffffffffffffffffffffffffffffffffff167f96b5cf7019465e93c7e5108d84c24e70f0d4aa63ab16b75f307df929278baad9610c8e565b6040517fcccf7a8e0000000000000000000000000000000000000000000000000000000081526004810185905290915073ffffffffffffffffffffffffffffffffffffffff82169063cccf7a8e90602401602060405180830381865afa158015610808573d6000803e3d6000fd5b505050506040513d601f19601f8201168201806040525081019061082c9190612b1c565b15806108cd57506040517f0ff4c9160000000000000000000000000000000000000000000000000000000081526004810184905273ffffffffffffffffffffffffffffffffffffffff821690630ff4c91690602401602060405180830381865afa15801561089e573d6000803e3d6000fd5b505050506040513d601f19601f820116820180604052508101906108c29190612db6565b63ffffffff16600114155b15610963576040517fd923c3c4000000000000000000000000000000000000000000000000000000008152600481018490526001602482015273ffffffffffffffffffffffffffffffffffffffff82169063d923c3c490604401600060405180830381600087803b15801561094157600080fd5b505af1158015610955573d6000803e3d6000fd5b505050506109636001610ddc565b61097586600001518760a001516111e5565b6020860151600080546109be9073ffffffffffffffffffffffffffffffffffffffff167fe364070e7addf383981cab98a86215b0a227507d32346ce1205f3e07167055c8610c8e565b90506000806000806109d5868d6101000151611760565b935093509350935060006109f38d602001518e610180015184611d71565b905060008111610a5f576040517f08c379a000000000000000000000000000000000000000000000000000000000815260206004820152600e60248201527f4e6f6e63657320696e76616c6964000000000000000000000000000000000000604482015260640161035d565b610a738d602001518e61018001518661209f565b8573ffffffffffffffffffffffffffffffffffffffff166384491fff8860405180606001604052808589610aa79190612dd1565b8152602001610ab68689612de8565b815267ffffffffffffffff428116602092830152604080517fffffffff0000000000000000000000000000000000000000000000000000000060e088901b168152600481019590955283516024860152918301516044850152910151166064820152608401600060405180830381600087803b158015610b3557600080fd5b505af1158015610b49573d6000803e3d6000fd5b505050505050505050505050505050919050565b7f8a22373512790c48b83a1fe2efdd2888d4a917bcdc24d0adf63e60f6716804605473ffffffffffffffffffffffffffffffffffffffff163314610bcd576040517f2f7a8ee100000000000000000000000000000000000000000000000000000000815260040160405180910390fd5b610bd68161220e565b50565b7ff67304f10c7772c78e439bc5cb07781db345424de8878c18100fdaa64d197a87805473ffffffffffffffffffffffffffffffffffffffff9384167fffffffffffffffffffffffff0000000000000000000000000000000000000000918216179091557ff67304f10c7772c78e439bc5cb07781db345424de8878c18100fdaa64d197a868054929093169116179055565b7f8a22373512790c48b83a1fe2efdd2888d4a917bcdc24d0adf63e60f67168046090565b6040517ffbdfa1ea00000000000000000000000000000000000000000000000000000000815260048101829052600090819073ffffffffffffffffffffffffffffffffffffffff85169063fbdfa1ea90602401600060405180830381865afa158015610cfe573d6000803e3d6000fd5b505050506040513d6000823e601f3d9081017fffffffffffffffffffffffffffffffffffffffffffffffffffffffffffffffe0168201604052610d449190810190612e00565b90508051600003610db1576040517f08c379a000000000000000000000000000000000000000000000000000000000815260206004820152601160248201527f6964206e6f742072656769737465726564000000000000000000000000000000604482015260640161035d565b610dd281600081518110610dc757610dc7612e35565b602002602001015190565b9150505b92915050565b60008054339190610e239073ffffffffffffffffffffffffffffffffffffffff167f189eafd1a01543209399086ef2e12962fca648be4826ce2b3eb2e53ed14bf141610c8e565b6000805491925090610e6b9073ffffffffffffffffffffffffffffffffffffffff167f3c3102d48c6d31b1a70ddf8b23d300c759379d6506f2ef221cf3056d7c54dca7610c8e565b6040517f720354530000000000000000000000000000000000000000000000000000000081526004810185905290915060009073ffffffffffffffffffffffffffffffffffffffff831690637203545390602401602060405180830381865afa158015610edc573d6000803e3d6000fd5b505050506040513d601f19601f82011682018060405250810190610f009190612e64565b6000805491925090610f489073ffffffffffffffffffffffffffffffffffffffff167fdc602e66a6d8c84d0c8d6c4292d80341393a1e04ff02909a12718a4216d3a9f7610c8e565b73ffffffffffffffffffffffffffffffffffffffff1663209652556040518163ffffffff1660e01b815260040160a060405180830381865afa158015610f92573d6000803e3d6000fd5b505050506040513d601f19601f82011682018060405250810190610fb69190612e87565b6040517f0ff4c9160000000000000000000000000000000000000000000000000000000081526004810187905290915060009073ffffffffffffffffffffffffffffffffffffffff861690630ff4c916906024016040805180830381865afa158015611026573d6000803e3d6000fd5b505050506040513d601f19601f8201168201806040525081019061104a9190612f11565b602083015181519192506000916110619042612f6c565b61106b9190612f95565b826020015161107a9190612fbc565b905063ffffffff841667ffffffffffffffff8216111561109d575063ffffffff83165b8767ffffffffffffffff168167ffffffffffffffff16101561111b576040517f08c379a000000000000000000000000000000000000000000000000000000000815260206004820152601560248201527f6c61636b206f6620616374696f6e20706f696e74730000000000000000000000604482015260640161035d565b6111258882612f6c565b60408051808201825267ffffffffffffffff42811682528381166020830190815292517f4e6641a9000000000000000000000000000000000000000000000000000000008152600481018c90529151811660248301529151909116604482015290915073ffffffffffffffffffffffffffffffffffffffff871690634e6641a990606401600060405180830381600087803b1580156111c357600080fd5b505af11580156111d7573d6000803e3d6000fd5b505050505050505050505050565b600080546112299073ffffffffffffffffffffffffffffffffffffffff167f4b1ac4c3aa37732e927cbff52c019e9fbdad0f3e454031afaefd319a3dc66ce4610c8e565b6040517fcccf7a8e0000000000000000000000000000000000000000000000000000000081526004810185905290915073ffffffffffffffffffffffffffffffffffffffff82169063cccf7a8e90602401602060405180830381865afa158015611297573d6000803e3d6000fd5b505050506040513d601f19601f820116820180604052508101906112bb9190612b1c565b15611501576040517f0ff4c9160000000000000000000000000000000000000000000000000000000081526004810184905260009073ffffffffffffffffffffffffffffffffffffffff831690630ff4c91690602401606060405180830381865afa15801561132e573d6000803e3d6000fd5b505050506040513d601f19601f820116820180604052508101906113529190612fe8565b90508263ffffffff16816000015163ffffffff161480156113a357508060400151806113a3575080604001511580156113a357504267ffffffffffffffff16816020015167ffffffffffffffff1610155b611409576040517f08c379a000000000000000000000000000000000000000000000000000000000815260206004820152601060248201527f666f67207365656420696e76616c696400000000000000000000000000000000604482015260640161035d565b8263ffffffff16816000015163ffffffff16148015611429575080604001515b156114345750505050565b6040805160608101825263ffffffff8581168252600060208301908152600183850190815293517f951f165900000000000000000000000000000000000000000000000000000000815260048101899052925190911660248301525167ffffffffffffffff16604482015290511515606482015273ffffffffffffffffffffffffffffffffffffffff83169063951f165990608401600060405180830381600087803b1580156114e357600080fd5b505af11580156114f7573d6000803e3d6000fd5b5050505050505050565b6001546040517f4f27da180000000000000000000000000000000000000000000000000000000081527fd65d260f5f5c04658319eb649c1b2668791985f80e1dc9150523f9df6efd57b4600482015263ffffffff84169173ffffffffffffffffffffffffffffffffffffffff1690634f27da1890602401602060405180830381865afa158015611595573d6000803e3d6000fd5b505050506040513d601f19601f820116820180604052508101906115b99190613036565b73ffffffffffffffffffffffffffffffffffffffff1663209652556040518163ffffffff1660e01b8152600401602060405180830381865afa158015611603573d6000803e3d6000fd5b505050506040513d601f19601f820116820180604052508101906116279190612db6565b63ffffffff1614611694576040517f08c379a000000000000000000000000000000000000000000000000000000000815260206004820152601060248201527f666f67207365656420696e76616c696400000000000000000000000000000000604482015260640161035d565b6040805160608101825263ffffffff8481168252600060208301908152600183850190815293517f951f165900000000000000000000000000000000000000000000000000000000815260048101889052925190911660248301525167ffffffffffffffff16604482015290511515606482015273ffffffffffffffffffffffffffffffffffffffff82169063951f165990608401600060405180830381600087803b15801561174357600080fd5b505af1158015611757573d6000803e3d6000fd5b50505050505050565b6000805481908190819081906117ac9073ffffffffffffffffffffffffffffffffffffffff167fedfbc254303008e09cc3e514d4150bac7c69acbeb4ac0177f668a82648a4119e610c8e565b60008054919250906117f49073ffffffffffffffffffffffffffffffffffffffff167fe364070e7addf383981cab98a86215b0a227507d32346ce1205f3e07167055c8610c8e565b6040517fcccf7a8e000000000000000000000000000000000000000000000000000000008152600481018a905260009750879650869550859450909150839060019073ffffffffffffffffffffffffffffffffffffffff85169063cccf7a8e90602401602060405180830381865afa158015611874573d6000803e3d6000fd5b505050506040513d601f19601f820116820180604052508101906118989190612b1c565b611b1c57600080546118e09073ffffffffffffffffffffffffffffffffffffffff167f449046c6526dd477102b464b5eeec34aaf8161a18f2ba1757f71638ac037f72f610c8e565b73ffffffffffffffffffffffffffffffffffffffff1663209652556040518163ffffffff1660e01b815260040160e060405180830381865afa15801561192a573d6000803e3d6000fd5b505050506040513d601f19601f8201168201806040525081019061194e9190613064565b905061195b60038b612d8e565b60208201518251919a5090611971908290612dd1565b61197b908c612d8e565b6119859190612de8565b606082015160408301519194509061199e9082906130e4565b602083015183516119af9190612dd1565b6119b9908d613107565b6119c3919061311b565b6119cd919061313d565b60ff1695508060a001518160a0015182608001516119eb9190612f6c565b826060015183604001516119ff91906130e4565b60ff1683602001518460000151611a169190612dd1565b611a20908e613107565b611a2a9190613107565b611a349190613162565b611a3e9190612fbc565b91508473ffffffffffffffffffffffffffffffffffffffff166378881ee28c60405180608001604052808d81526020018781526020018a81526020018667ffffffffffffffff168152506040518363ffffffff1660e01b8152600401611ae1929190600060a08201905083825282516020830152602083015160408301526040830151606083015267ffffffffffffffff60608401511660808301529392505050565b600060405180830381600087803b158015611afb57600080fd5b505af1158015611b0f573d6000803e3d6000fd5b5050505082975050611bce565b6040517f0ff4c916000000000000000000000000000000000000000000000000000000008152600481018b905260009073ffffffffffffffffffffffffffffffffffffffff861690630ff4c91690602401608060405180830381865afa158015611b8a573d6000803e3d6000fd5b505050506040513d601f19601f82011682018060405250810190611bae9190613189565b905080600001519850806020015192508060400151955080606001519150505b6040517fcccf7a8e000000000000000000000000000000000000000000000000000000008152600481018b905273ffffffffffffffffffffffffffffffffffffffff84169063cccf7a8e90602401602060405180830381865afa158015611c39573d6000803e3d6000fd5b505050506040513d601f19601f82011682018060405250810190611c5d9190612b1c565b15611d64576040517f0ff4c916000000000000000000000000000000000000000000000000000000008152600481018b905260009073ffffffffffffffffffffffffffffffffffffffff851690630ff4c91690602401606060405180830381865afa158015611cd0573d6000803e3d6000fd5b505050506040513d601f19601f82011682018060405250810190611cf491906131f3565b805160208201519099509750905067ffffffffffffffff821615611d6257600082826040015142611d259190612f6c565b611d2f9190612f95565b67ffffffffffffffff16905083611d46828b612de8565b10611d5357839850611d60565b611d5d818a612de8565b98505b505b505b5050505092959194509250565b600080548190611db79073ffffffffffffffffffffffffffffffffffffffff167f449046c6526dd477102b464b5eeec34aaf8161a18f2ba1757f71638ac037f72f610c8e565b73ffffffffffffffffffffffffffffffffffffffff1663209652556040518163ffffffff1660e01b815260040160e060405180830381865afa158015611e01573d6000803e3d6000fd5b505050506040513d601f19601f82011682018060405250810190611e259190613064565b845160c082015191925090811115611e99576040517f08c379a000000000000000000000000000000000000000000000000000000000815260206004820152601460248201527f706f774e6f6e636573206f766572206c696d6974000000000000000000000000604482015260640161035d565b60008054611edd9073ffffffffffffffffffffffffffffffffffffffff167f9274ed4310537239c4fa8297f7ce72f5452f785d00b8745f8408aa546020abc9610c8e565b905060005b82811015612094576000878281518110611efe57611efe612e35565b6020026020010151905060008982604051602001611f26929190918252602082015260400190565b604080517fffffffffffffffffffffffffffffffffffffffffffffffffffffffffffffffe081840301815291905280516020909101209050611f69886002613227565b611f739082612d8e565b15801561200c57506040517fcccf7a8e0000000000000000000000000000000000000000000000000000000081526004810182905273ffffffffffffffffffffffffffffffffffffffff85169063cccf7a8e90602401602060405180830381865afa158015611fe6573d6000803e3d6000fd5b505050506040513d601f19601f8201168201806040525081019061200a9190612b1c565b155b612072576040517f08c379a000000000000000000000000000000000000000000000000000000000815260206004820152601160248201527f706f772076616c756520696e76616c6964000000000000000000000000000000604482015260640161035d565b61207d876001612de8565b96505050808061208c90613233565b915050611ee2565b505050509392505050565b600080546120e39073ffffffffffffffffffffffffffffffffffffffff167f9274ed4310537239c4fa8297f7ce72f5452f785d00b8745f8408aa546020abc9610c8e565b905060005b8351811015612207578281101561220757600084828151811061210d5761210d612e35565b6020026020010151905060008682604051602001612135929190918252602082015260400190565b604080518083037fffffffffffffffffffffffffffffffffffffffffffffffffffffffffffffffe00181529082905280516020909101207f1ab06ee50000000000000000000000000000000000000000000000000000000082526004820181905260248201899052915073ffffffffffffffffffffffffffffffffffffffff851690631ab06ee590604401600060405180830381600087803b1580156121da57600080fd5b505af11580156121ee573d6000803e3d6000fd5b50505050505080806121ff90613233565b9150506120e8565b5050505050565b7f8a22373512790c48b83a1fe2efdd2888d4a917bcdc24d0adf63e60f6716804608054604051610bd6928492909173ffffffffffffffffffffffffffffffffffffffff8085169216907f8be0079c531659141344cd1fd0a4f28419497f9722a3daafe3b4186f6b6457e090600090a380547fffffffffffffffffffffffff00000000000000000000000000000000000000001673ffffffffffffffffffffffffffffffffffffffff92909216919091179055565b7f4e487b7100000000000000000000000000000000000000000000000000000000600052604160045260246000fd5b6040516101a0810167ffffffffffffffff81118282101715612315576123156122c2565b60405290565b604051610160810167ffffffffffffffff81118282101715612315576123156122c2565b60405160e0810167ffffffffffffffff81118282101715612315576123156122c2565b6040516060810167ffffffffffffffff81118282101715612315576123156122c2565b6040805190810167ffffffffffffffff81118282101715612315576123156122c2565b604051601f82017fffffffffffffffffffffffffffffffffffffffffffffffffffffffffffffffe016810167ffffffffffffffff811182821017156123ef576123ef6122c2565b604052919050565b6000602080838503121561240a57600080fd5b823567ffffffffffffffff8082111561242257600080fd5b818501915085601f83011261243657600080fd5b813581811115612448576124486122c2565b612478847fffffffffffffffffffffffffffffffffffffffffffffffffffffffffffffffe0601f840116016123a8565b9150808252868482850101111561248e57600080fd5b8084840185840137600090820190930192909252509392505050565b600060208083528351808285015260005b818110156124d7578581018301518582016040015282016124bb565b818111156124e9576000604083870101525b50601f017fffffffffffffffffffffffffffffffffffffffffffffffffffffffffffffffe016929092016040019392505050565b600082601f83011261252e57600080fd5b612536612385565b80604084018581111561254857600080fd5b845b8181101561256257803584526020938401930161254a565b509095945050505050565b600082601f83011261257e57600080fd5b612586612385565b80608084018581111561259857600080fd5b845b81811015612562576125ac878261251d565b845260209093019260400161259a565b600067ffffffffffffffff8211156125d6576125d66122c2565b5060051b60200190565b600082601f8301126125f157600080fd5b81356020612606612601836125bc565b6123a8565b82815260059290921b8401810191818101908684111561262557600080fd5b8286015b848110156126405780358352918301918301612629565b509695505050505050565b60006020828403121561265d57600080fd5b813567ffffffffffffffff8082111561267557600080fd5b90830190610240828603121561268a57600080fd5b6126926122f1565b823581526020830135602082015260408301356040820152606083013560608201526080830135608082015260a083013560a082015260c083013560c082015260e083013560e08201526101008084013581830152506101206126f78782860161251d565b9082015261016061270a8785830161256d565b61014083015261271e876101e0860161251d565b908201526102208301358281111561273557600080fd5b612741878286016125e0565b6101808301525095945050505050565b73ffffffffffffffffffffffffffffffffffffffff81168114610bd657600080fd5b60006020828403121561278557600080fd5b81356100f281612751565b600082601f8301126127a157600080fd5b6127a9612385565b8060408401858111156127bb57600080fd5b845b818110156125625780518452602093840193016127bd565b600082601f8301126127e657600080fd5b6127ee612385565b80608084018581111561280057600080fd5b845b81811015612562576128148782612790565b8452602090930192604001612802565b600082601f83011261283557600080fd5b81516020612845612601836125bc565b82815260059290921b8401810191818101908684111561286457600080fd5b8286015b848110156126405780518352918301918301612868565b60006020828403121561289157600080fd5b815167ffffffffffffffff808211156128a957600080fd5b9083019061024082860312156128be57600080fd5b6128c66122f1565b825181526020830151602082015260408301516040820152606083015160608201526080830151608082015260a083015160a082015260c083015160c082015260e083015160e082015261010080840151818301525061012061292b87828601612790565b9082015261016061293e878583016127d5565b610140830152612952876101e08601612790565b908201526102208301518281111561296957600080fd5b61274187828601612824565b8051801515811461298557600080fd5b919050565b805161298581612751565b600061016082840312156129a857600080fd5b6129b061231b565b6129b983612975565b81526129c76020840161298a565b60208201526129d86040840161298a565b60408201526129e96060840161298a565b60608201526129fa6080840161298a565b6080820152612a0b60a0840161298a565b60a0820152612a1c60c0840161298a565b60c0820152612a2d60e0840161298a565b60e0820152610100612a4081850161298a565b90820152610120612a5284820161298a565b90820152610140612a6484820161298a565b908201529392505050565b8060005b6002811015612a92578151845260209384019390910190600101612a73565b50505050565b6102208101612aa78287612a6f565b60408083018660005b6002811015612ad757612ac4838351612a6f565b9183019160209190910190600101612ab0565b50505050612ae860c0830185612a6f565b61010082018360005b6009811015612b10578151835260209283019290910190600101612af1565b50505095945050505050565b600060208284031215612b2e57600080fd5b6100f282612975565b600060208284031215612b4957600080fd5b5051919050565b805167ffffffffffffffff8116811461298557600080fd5b600060e08284031215612b7a57600080fd5b612b8261233f565b612b8b83612b50565b8152612b9960208401612b50565b6020820152612baa60408401612b50565b6040820152612bbb60608401612b50565b6060820152612bcc60808401612b50565b6080820152612bdd60a08401612b50565b60a0820152612bee60c08401612b50565b60c08201529392505050565b7f4e487b7100000000000000000000000000000000000000000000000000000000600052601160045260246000fd5b600181815b80851115612c8257817fffffffffffffffffffffffffffffffffffffffffffffffffffffffffffffffff04821115612c6857612c68612bfa565b80851615612c7557918102915b93841c9390800290612c2e565b509250929050565b600082612c9957506001610dd6565b81612ca657506000610dd6565b8160018114612cbc5760028114612cc657612ce2565b6001915050610dd6565b60ff841115612cd757612cd7612bfa565b50506001821b610dd6565b5060208310610133831016604e8410600b8410161715612d05575081810a610dd6565b612d0f8383612c29565b807fffffffffffffffffffffffffffffffffffffffffffffffffffffffffffffffff04821115612d4157612d41612bfa565b029392505050565b60006100f267ffffffffffffffff841683612c8a565b7f4e487b7100000000000000000000000000000000000000000000000000000000600052601260045260246000fd5b600082612d9d57612d9d612d5f565b500690565b805163ffffffff8116811461298557600080fd5b600060208284031215612dc857600080fd5b6100f282612da2565b600082821015612de357612de3612bfa565b500390565b60008219821115612dfb57612dfb612bfa565b500190565b600060208284031215612e1257600080fd5b815167ffffffffffffffff811115612e2957600080fd5b610dd284828501612824565b7f4e487b7100000000000000000000000000000000000000000000000000000000600052603260045260246000fd5b600060208284031215612e7657600080fd5b81518060030b81146100f257600080fd5b600060a08284031215612e9957600080fd5b60405160a0810181811067ffffffffffffffff82111715612ebc57612ebc6122c2565b604052612ec883612b50565b8152612ed660208401612b50565b6020820152612ee760408401612b50565b6040820152612ef860608401612b50565b6060820152608083015160808201528091505092915050565b600060408284031215612f2357600080fd5b6040516040810181811067ffffffffffffffff82111715612f4657612f466122c2565b604052612f5283612b50565b8152612f6060208401612b50565b60208201529392505050565b600067ffffffffffffffff83811690831681811015612f8d57612f8d612bfa565b039392505050565b600067ffffffffffffffff80841680612fb057612fb0612d5f565b92169190910492915050565b600067ffffffffffffffff808316818516808303821115612fdf57612fdf612bfa565b01949350505050565b600060608284031215612ffa57600080fd5b613002612362565b61300b83612da2565b815261301960208401612b50565b602082015261302a60408401612975565b60408201529392505050565b60006020828403121561304857600080fd5b81516100f281612751565b805160ff8116811461298557600080fd5b600060e0828403121561307657600080fd5b61307e61233f565b825181526020830151602082015261309860408401613053565b60408201526130a960608401613053565b60608201526130ba60808401612b50565b60808201526130cb60a08401612b50565b60a082015260c083015160c08201528091505092915050565b600060ff821660ff8416808210156130fe576130fe612bfa565b90039392505050565b60008261311657613116612d5f565b500490565b600060ff83168061312e5761312e612d5f565b8060ff84160691505092915050565b600060ff821660ff84168060ff0382111561315a5761315a612bfa565b019392505050565b600067ffffffffffffffff8084168061317d5761317d612d5f565b92169190910692915050565b60006080828403121561319b57600080fd5b6040516080810181811067ffffffffffffffff821117156131be576131be6122c2565b80604052508251815260208301516020820152604083015160408201526131e760608401612b50565b60608201529392505050565b60006060828403121561320557600080fd5b61320d612362565b825181526020830151602082015261302a60408401612b50565b60006100f28383612c8a565b60007fffffffffffffffffffffffffffffffffffffffffffffffffffffffffffffffff820361326457613264612bfa565b506001019056fea26469706673582212203179f608978a0df2d4fa6174d8b20969032ffec86de04d4aeb2dcdb823c89bf764736f6c634300080d0033",
    "linkReferences": {}
  },
  "methodIdentifiers": {
    "execute(bytes)": "09c5eabe",
    "executeTyped((uint256,uint256,uint256,uint256,uint256,uint256,uint256,uint256,uint256,uint256[2],uint256[2][2],uint256[2],uint256[]))": "af356f11",
    "owner()": "8da5cb5b",
    "transferOwnership(address)": "f2fde38b"
  },
  "id": 224
}