{
  "abi": [
    {
      "inputs": [
        {
          "internalType": "address",
          "name": "world",
          "type": "address"
        }
      ],
      "stateMutability": "nonpayable",
      "type": "constructor"
    },
    {
      "inputs": [],
      "name": "BareComponent__NotImplemented",
      "type": "error"
    },
    {
      "inputs": [],
      "name": "OwnableWritable__NotWriter",
      "type": "error"
    },
    {
      "inputs": [],
      "name": "Ownable__NotOwner",
      "type": "error"
    },
    {
      "inputs": [],
      "name": "Ownable__NotTransitiveOwner",
      "type": "error"
    },
    {
      "anonymous": false,
      "inputs": [
        {
          "indexed": true,
          "internalType": "address",
          "name": "previousOwner",
          "type": "address"
        },
        {
          "indexed": true,
          "internalType": "address",
          "name": "newOwner",
          "type": "address"
        }
      ],
      "name": "OwnershipTransferred",
      "type": "event"
    },
    {
      "inputs": [
        {
          "internalType": "address",
          "name": "writer",
          "type": "address"
        }
      ],
      "name": "authorizeWriter",
      "outputs": [],
      "stateMutability": "nonpayable",
      "type": "function"
    },
    {
      "inputs": [],
      "name": "getEntities",
      "outputs": [
        {
          "internalType": "uint256[]",
          "name": "",
          "type": "uint256[]"
        }
      ],
      "stateMutability": "view",
      "type": "function"
    },
    {
      "inputs": [
        {
          "internalType": "bytes",
          "name": "",
          "type": "bytes"
        }
      ],
      "name": "getEntitiesWithValue",
      "outputs": [
        {
          "internalType": "uint256[]",
          "name": "",
          "type": "uint256[]"
        }
      ],
      "stateMutability": "view",
      "type": "function"
    },
    {
      "inputs": [
        {
          "internalType": "uint256",
          "name": "entity",
          "type": "uint256"
        }
      ],
      "name": "getRawValue",
      "outputs": [
        {
          "internalType": "bytes",
          "name": "",
          "type": "bytes"
        }
      ],
      "stateMutability": "view",
      "type": "function"
    },
    {
      "inputs": [],
      "name": "getSchema",
      "outputs": [
        {
          "internalType": "string[]",
          "name": "keys",
          "type": "string[]"
        },
        {
          "internalType": "enum LibTypes.SchemaValue[]",
          "name": "values",
          "type": "uint8[]"
        }
      ],
      "stateMutability": "pure",
      "type": "function"
    },
    {
      "inputs": [],
      "name": "getValue",
      "outputs": [
        {
          "components": [
            {
              "internalType": "uint32",
              "name": "width",
              "type": "uint32"
            },
            {
              "internalType": "uint32",
              "name": "height",
              "type": "uint32"
            },
            {
              "internalType": "bytes",
              "name": "terrain",
              "type": "bytes"
            }
          ],
          "internalType": "struct MapConfig",
          "name": "",
          "type": "tuple"
        }
      ],
      "stateMutability": "view",
      "type": "function"
    },
    {
      "inputs": [
        {
          "internalType": "uint256",
          "name": "entity",
          "type": "uint256"
        }
      ],
      "name": "has",
      "outputs": [
        {
          "internalType": "bool",
          "name": "",
          "type": "bool"
        }
      ],
      "stateMutability": "view",
      "type": "function"
    },
    {
      "inputs": [],
      "name": "id",
      "outputs": [
        {
          "internalType": "uint256",
          "name": "",
          "type": "uint256"
        }
      ],
      "stateMutability": "view",
      "type": "function"
    },
    {
      "inputs": [],
      "name": "owner",
      "outputs": [
        {
          "internalType": "address",
          "name": "",
          "type": "address"
        }
      ],
      "stateMutability": "view",
      "type": "function"
    },
    {
      "inputs": [
        {
          "internalType": "address",
          "name": "",
          "type": "address"
        }
      ],
      "name": "registerIndexer",
      "outputs": [],
      "stateMutability": "nonpayable",
      "type": "function"
    },
    {
      "inputs": [
        {
          "internalType": "address",
          "name": "_world",
          "type": "address"
        }
      ],
      "name": "registerWorld",
      "outputs": [],
      "stateMutability": "nonpayable",
      "type": "function"
    },
    {
      "inputs": [
        {
          "internalType": "uint256",
          "name": "entity",
          "type": "uint256"
        }
      ],
      "name": "remove",
      "outputs": [],
      "stateMutability": "nonpayable",
      "type": "function"
    },
    {
      "inputs": [
        {
          "components": [
            {
              "internalType": "uint32",
              "name": "width",
              "type": "uint32"
            },
            {
              "internalType": "uint32",
              "name": "height",
              "type": "uint32"
            },
            {
              "internalType": "bytes",
              "name": "terrain",
              "type": "bytes"
            }
          ],
          "internalType": "struct MapConfig",
          "name": "mapConfig",
          "type": "tuple"
        }
      ],
      "name": "set",
      "outputs": [],
      "stateMutability": "nonpayable",
      "type": "function"
    },
    {
      "inputs": [
        {
          "internalType": "uint256",
          "name": "entity",
          "type": "uint256"
        },
        {
          "internalType": "bytes",
          "name": "value",
          "type": "bytes"
        }
      ],
      "name": "set",
      "outputs": [],
      "stateMutability": "nonpayable",
      "type": "function"
    },
    {
      "inputs": [
        {
          "internalType": "address",
          "name": "account",
          "type": "address"
        }
      ],
      "name": "transferOwnership",
      "outputs": [],
      "stateMutability": "nonpayable",
      "type": "function"
    },
    {
      "inputs": [
        {
          "internalType": "address",
          "name": "writer",
          "type": "address"
        }
      ],
      "name": "unauthorizeWriter",
      "outputs": [],
      "stateMutability": "nonpayable",
      "type": "function"
    },
    {
      "inputs": [],
      "name": "world",
      "outputs": [
        {
          "internalType": "address",
          "name": "",
          "type": "address"
        }
      ],
      "stateMutability": "view",
      "type": "function"
    },
    {
      "inputs": [
        {
          "internalType": "address",
          "name": "operator",
          "type": "address"
        }
      ],
      "name": "writeAccess",
      "outputs": [
        {
          "internalType": "bool",
          "name": "",
          "type": "bool"
        }
      ],
      "stateMutability": "view",
      "type": "function"
    }
  ],
  "bytecode": {
    "object": "0x60806040523480156200001157600080fd5b506040516200171c3803806200171c833981016040819052620000349162000200565b807f26cf7dc75ae68c708d2e4d32efa853730b92b0bf86104963fae257250466fa2562000061336200008a565b60028190556001600160a01b0382161562000081576200008182620000fe565b50505062000232565b6000620000a1620001b660201b62000b981760201c565b80546040519192506001600160a01b03808516929116907f8be0079c531659141344cd1fd0a4f28419497f9722a3daafe3b4186f6b6457e090600090a380546001600160a01b0319166001600160a01b0392909216919091179055565b62000108620001da565b6001600160a01b0316336001600160a01b0316146200013a57604051632f7a8ee160e01b815260040160405180910390fd5b600080546001600160a01b0319166001600160a01b038316908117909155600254604051630f30347760e41b8152306004820152602481019190915263f303477090604401600060405180830381600087803b1580156200019a57600080fd5b505af1158015620001af573d6000803e3d6000fd5b5050505050565b7f8a22373512790c48b83a1fe2efdd2888d4a917bcdc24d0adf63e60f67168046090565b6000620001f1620001b660201b62000b981760201c565b546001600160a01b0316919050565b6000602082840312156200021357600080fd5b81516001600160a01b03811681146200022b57600080fd5b9392505050565b6114da80620002426000396000f3fe608060405234801561001057600080fd5b50600436106101365760003560e01c80638b282947116100b2578063b361be4611610081578063bf4fe57e11610066578063bf4fe57e146102b2578063cccf7a8e146102c5578063f2fde38b146102d857600080fd5b8063b361be461461027f578063b8bc073d1461029257600080fd5b80638b2829471461023a5780638da5cb5b1461024d5780639d2c76b414610255578063af640d0f1461026857600080fd5b80634fef6a38116101095780636b122fe0116100ee5780636b122fe0146101ee57806375c0669c14610204578063861eb9051461021757600080fd5b80634fef6a38146101c85780635a9b8140146101db57600080fd5b8063209652551461013b57806330b67baa1461015957806331b933b91461019e5780634cc82215146101b3575b600080fd5b6101436102eb565b6040516101509190610ed9565b60405180910390f35b6000546101799073ffffffffffffffffffffffffffffffffffffffff1681565b60405173ffffffffffffffffffffffffffffffffffffffff9091168152602001610150565b6101a6610350565b6040516101509190610f1a565b6101c66101c1366004610f5e565b610384565b005b6101c66101d6366004610f77565b6103cf565b6101c66101e93660046110e0565b6104ad565b6101f66104e8565b6040516101509291906111b8565b6101c6610212366004610f77565b610708565b61022a610225366004610f77565b61073a565b6040519015158152602001610150565b6101c66102483660046112a8565b6107c5565b610179610812565b6101c6610263366004610f77565b610857565b61027160025481565b604051908152602001610150565b6101a661028d3660046112ef565b610350565b6102a56102a0366004610f5e565b610980565b6040516101509190611324565b6101c66102c0366004610f77565b610a22565b61022a6102d3366004610f5e565b610afd565b6101c66102e6366004610f77565b610b1f565b60408051606080820183526000808352602083018190529282015290808061031461060d610980565b8060200190518101906103279190611337565b6040805160608101825263ffffffff948516815293909216602084015290820152949350505050565b60606040517f17d5b8e800000000000000000000000000000000000000000000000000000000815260040160405180910390fd5b61038d3361073a565b6103c3576040517f406ed3da00000000000000000000000000000000000000000000000000000000815260040160405180910390fd5b6103cc81610bbc565b50565b7f8a22373512790c48b83a1fe2efdd2888d4a917bcdc24d0adf63e60f6716804605473ffffffffffffffffffffffffffffffffffffffff16331461043f576040517f2f7a8ee100000000000000000000000000000000000000000000000000000000815260040160405180910390fd5b73ffffffffffffffffffffffffffffffffffffffff1660009081527f8ffeadc5cba727b8cc3cdef48739619490ea317fdb3baae1259089d06f92c9096020526040902080547fffffffffffffffffffffffffffffffffffffffffffffffffffffffffffffff00166001179055565b6103cc61060d8260000151836020015184604001516040516020016104d4939291906113d7565b6040516020818303038152906040526107c5565b60408051600380825260808201909252606091829190816020015b606081526020019060019003908161050357505060408051600380825260808201909252919350602082016060803683370190505090506040518060400160405280600581526020017f77696474680000000000000000000000000000000000000000000000000000008152508260008151811061058357610583611409565b6020026020010181905250600a816000815181106105a3576105a3611409565b602002602001019060218111156105bc576105bc611189565b908160218111156105cf576105cf611189565b815250506040518060400160405280600681526020017f68656967687400000000000000000000000000000000000000000000000000008152508260018151811061061c5761061c611409565b6020026020010181905250600a8160018151811061063c5761063c611409565b6020026020010190602181111561065557610655611189565b9081602181111561066857610668611189565b815250506040518060400160405280600781526020017f7465727261696e00000000000000000000000000000000000000000000000000815250826002815181106106b5576106b5611409565b6020026020010181905250600f816002815181106106d5576106d5611409565b602002602001019060218111156106ee576106ee611189565b9081602181111561070157610701611189565b9052509091565b6040517f17d5b8e800000000000000000000000000000000000000000000000000000000815260040160405180910390fd5b73ffffffffffffffffffffffffffffffffffffffff811660009081527f8ffeadc5cba727b8cc3cdef48739619490ea317fdb3baae1259089d06f92c909602052604081205460ff16806107bf5750610790610812565b73ffffffffffffffffffffffffffffffffffffffff168273ffffffffffffffffffffffffffffffffffffffff16145b92915050565b6107ce3361073a565b610804576040517f406ed3da00000000000000000000000000000000000000000000000000000000815260040160405180910390fd5b61080e8282610c2a565b5050565b60006108527f8a22373512790c48b83a1fe2efdd2888d4a917bcdc24d0adf63e60f6716804605473ffffffffffffffffffffffffffffffffffffffff1690565b905090565b7f8a22373512790c48b83a1fe2efdd2888d4a917bcdc24d0adf63e60f6716804605473ffffffffffffffffffffffffffffffffffffffff1633146108c7576040517f2f7a8ee100000000000000000000000000000000000000000000000000000000815260040160405180910390fd5b600080547fffffffffffffffffffffffff00000000000000000000000000000000000000001673ffffffffffffffffffffffffffffffffffffffff83169081179091556002546040517ff3034770000000000000000000000000000000000000000000000000000000008152306004820152602481019190915263f3034770906044015b600060405180830381600087803b15801561096557600080fd5b505af1158015610979573d6000803e3d6000fd5b5050505050565b600081815260016020526040902080546060919061099d90611438565b80601f01602080910402602001604051908101604052809291908181526020018280546109c990611438565b8015610a165780601f106109eb57610100808354040283529160200191610a16565b820191906000526020600020905b8154815290600101906020018083116109f957829003601f168201915b50505050509050919050565b7f8a22373512790c48b83a1fe2efdd2888d4a917bcdc24d0adf63e60f6716804605473ffffffffffffffffffffffffffffffffffffffff163314610a92576040517f2f7a8ee100000000000000000000000000000000000000000000000000000000815260040160405180910390fd5b73ffffffffffffffffffffffffffffffffffffffff1660009081527f8ffeadc5cba727b8cc3cdef48739619490ea317fdb3baae1259089d06f92c9096020526040902080547fffffffffffffffffffffffffffffffffffffffffffffffffffffffffffffff00169055565b60008181526001602052604081208054610b1690611438565b15159392505050565b7f8a22373512790c48b83a1fe2efdd2888d4a917bcdc24d0adf63e60f6716804605473ffffffffffffffffffffffffffffffffffffffff163314610b8f576040517f2f7a8ee100000000000000000000000000000000000000000000000000000000815260040160405180910390fd5b6103cc81610cd8565b7f8a22373512790c48b83a1fe2efdd2888d4a917bcdc24d0adf63e60f67168046090565b6000818152600160205260408120610bd391610d8c565b6000546040517f0de3b7b50000000000000000000000000000000000000000000000000000000081526004810183905273ffffffffffffffffffffffffffffffffffffffff90911690630de3b7b59060240161094b565b60008281526001602090815260409091208251610c4992840190610dc6565b506000546040517fcfd3c57f00000000000000000000000000000000000000000000000000000000815273ffffffffffffffffffffffffffffffffffffffff9091169063cfd3c57f90610ca2908590859060040161148b565b600060405180830381600087803b158015610cbc57600080fd5b505af1158015610cd0573d6000803e3d6000fd5b505050505050565b7f8a22373512790c48b83a1fe2efdd2888d4a917bcdc24d0adf63e60f67168046080546040516103cc928492909173ffffffffffffffffffffffffffffffffffffffff8085169216907f8be0079c531659141344cd1fd0a4f28419497f9722a3daafe3b4186f6b6457e090600090a380547fffffffffffffffffffffffff00000000000000000000000000000000000000001673ffffffffffffffffffffffffffffffffffffffff92909216919091179055565b508054610d9890611438565b6000825580601f10610da8575050565b601f0160209004906000526020600020908101906103cc9190610e4a565b828054610dd290611438565b90600052602060002090601f016020900481019282610df45760008555610e3a565b82601f10610e0d57805160ff1916838001178555610e3a565b82800160010185558215610e3a579182015b82811115610e3a578251825591602001919060010190610e1f565b50610e46929150610e4a565b5090565b5b80821115610e465760008155600101610e4b565b60005b83811015610e7a578181015183820152602001610e62565b83811115610e89576000848401525b50505050565b60008151808452610ea7816020860160208601610e5f565b601f017fffffffffffffffffffffffffffffffffffffffffffffffffffffffffffffffe0169290920160200192915050565b60208152600063ffffffff808451166020840152806020850151166040840152506040830151606080840152610f126080840182610e8f565b949350505050565b6020808252825182820181905260009190848201906040850190845b81811015610f5257835183529284019291840191600101610f36565b50909695505050505050565b600060208284031215610f7057600080fd5b5035919050565b600060208284031215610f8957600080fd5b813573ffffffffffffffffffffffffffffffffffffffff81168114610fad57600080fd5b9392505050565b7f4e487b7100000000000000000000000000000000000000000000000000000000600052604160045260246000fd5b604051601f82017fffffffffffffffffffffffffffffffffffffffffffffffffffffffffffffffe016810167ffffffffffffffff8111828210171561102a5761102a610fb4565b604052919050565b63ffffffff811681146103cc57600080fd5b600067ffffffffffffffff82111561105e5761105e610fb4565b50601f017fffffffffffffffffffffffffffffffffffffffffffffffffffffffffffffffe01660200190565b600082601f83011261109b57600080fd5b81356110ae6110a982611044565b610fe3565b8181528460208386010111156110c357600080fd5b816020850160208301376000918101602001919091529392505050565b6000602082840312156110f257600080fd5b813567ffffffffffffffff8082111561110a57600080fd5b908301906060828603121561111e57600080fd5b60405160608101818110838211171561113957611139610fb4565b604052823561114781611032565b8152602083013561115781611032565b602082015260408301358281111561116e57600080fd5b61117a8782860161108a565b60408301525095945050505050565b7f4e487b7100000000000000000000000000000000000000000000000000000000600052602160045260246000fd5b6000604082016040835280855180835260608501915060608160051b8601019250602080880160005b8381101561122d577fffffffffffffffffffffffffffffffffffffffffffffffffffffffffffffffa088870301855261121b868351610e8f565b955093820193908201906001016111e1565b50508584038187015286518085528782019482019350915060005b8281101561129b57845160228110611289577f4e487b7100000000000000000000000000000000000000000000000000000000600052602160045260246000fd5b84529381019392810192600101611248565b5091979650505050505050565b600080604083850312156112bb57600080fd5b82359150602083013567ffffffffffffffff8111156112d957600080fd5b6112e58582860161108a565b9150509250929050565b60006020828403121561130157600080fd5b813567ffffffffffffffff81111561131857600080fd5b610f128482850161108a565b602081526000610fad6020830184610e8f565b60008060006060848603121561134c57600080fd5b835161135781611032565b602085015190935061136881611032565b604085015190925067ffffffffffffffff81111561138557600080fd5b8401601f8101861361139657600080fd5b80516113a46110a982611044565b8181528760208385010111156113b957600080fd5b6113ca826020830160208601610e5f565b8093505050509250925092565b600063ffffffff8086168352808516602084015250606060408301526114006060830184610e8f565b95945050505050565b7f4e487b7100000000000000000000000000000000000000000000000000000000600052603260045260246000fd5b600181811c9082168061144c57607f821691505b602082108103611485577f4e487b7100000000000000000000000000000000000000000000000000000000600052602260045260246000fd5b50919050565b828152604060208201526000610f126040830184610e8f56fea26469706673582212202efffe693d01a41a55f82b0d7f847d06f65a453c059ebb4561d07f683a5f622564736f6c634300080d0033",
    "linkReferences": {}
  },
  "methodIdentifiers": {
    "authorizeWriter(address)": "4fef6a38",
    "getEntities()": "31b933b9",
    "getEntitiesWithValue(bytes)": "b361be46",
    "getRawValue(uint256)": "b8bc073d",
    "getSchema()": "6b122fe0",
    "getValue()": "20965255",
    "has(uint256)": "cccf7a8e",
    "id()": "af640d0f",
    "owner()": "8da5cb5b",
    "registerIndexer(address)": "75c0669c",
    "registerWorld(address)": "9d2c76b4",
    "remove(uint256)": "4cc82215",
    "set((uint32,uint32,bytes))": "5a9b8140",
    "set(uint256,bytes)": "8b282947",
    "transferOwnership(address)": "f2fde38b",
    "unauthorizeWriter(address)": "bf4fe57e",
    "world()": "30b67baa",
    "writeAccess(address)": "861eb905"
  },
  "id": 100
}