{
  "abi": [
    {
      "inputs": [
        {
          "internalType": "address",
          "name": "world",
          "type": "address"
        }
      ],
      "stateMutability": "nonpayable",
      "type": "constructor"
    },
    {
      "inputs": [],
      "name": "BareComponent__NotImplemented",
      "type": "error"
    },
    {
      "inputs": [],
      "name": "OwnableWritable__NotWriter",
      "type": "error"
    },
    {
      "inputs": [],
      "name": "Ownable__NotOwner",
      "type": "error"
    },
    {
      "inputs": [],
      "name": "Ownable__NotTransitiveOwner",
      "type": "error"
    },
    {
      "anonymous": false,
      "inputs": [
        {
          "indexed": true,
          "internalType": "address",
          "name": "previousOwner",
          "type": "address"
        },
        {
          "indexed": true,
          "internalType": "address",
          "name": "newOwner",
          "type": "address"
        }
      ],
      "name": "OwnershipTransferred",
      "type": "event"
    },
    {
      "inputs": [
        {
          "internalType": "address",
          "name": "writer",
          "type": "address"
        }
      ],
      "name": "authorizeWriter",
      "outputs": [],
      "stateMutability": "nonpayable",
      "type": "function"
    },
    {
      "inputs": [],
      "name": "getEntities",
      "outputs": [
        {
          "internalType": "uint256[]",
          "name": "",
          "type": "uint256[]"
        }
      ],
      "stateMutability": "view",
      "type": "function"
    },
    {
      "inputs": [
        {
          "internalType": "bytes",
          "name": "",
          "type": "bytes"
        }
      ],
      "name": "getEntitiesWithValue",
      "outputs": [
        {
          "internalType": "uint256[]",
          "name": "",
          "type": "uint256[]"
        }
      ],
      "stateMutability": "view",
      "type": "function"
    },
    {
      "inputs": [
        {
          "internalType": "uint256",
          "name": "entity",
          "type": "uint256"
        }
      ],
      "name": "getRawValue",
      "outputs": [
        {
          "internalType": "bytes",
          "name": "",
          "type": "bytes"
        }
      ],
      "stateMutability": "view",
      "type": "function"
    },
    {
      "inputs": [],
      "name": "getSchema",
      "outputs": [
        {
          "internalType": "string[]",
          "name": "keys",
          "type": "string[]"
        },
        {
          "internalType": "enum LibTypes.SchemaValue[]",
          "name": "values",
          "type": "uint8[]"
        }
      ],
      "stateMutability": "pure",
      "type": "function"
    },
    {
      "inputs": [
        {
          "internalType": "uint256",
          "name": "entity",
          "type": "uint256"
        }
      ],
      "name": "getValue",
      "outputs": [
        {
          "components": [
            {
              "internalType": "uint256",
              "name": "difficulty",
              "type": "uint256"
            },
            {
              "internalType": "uint256",
              "name": "value",
              "type": "uint256"
            },
            {
              "internalType": "uint256",
              "name": "minuteLimit",
              "type": "uint256"
            },
            {
              "internalType": "uint64",
              "name": "recuitTime",
              "type": "uint64"
            }
          ],
          "internalType": "struct ResourceConfig",
          "name": "",
          "type": "tuple"
        }
      ],
      "stateMutability": "view",
      "type": "function"
    },
    {
      "inputs": [
        {
          "internalType": "uint256",
          "name": "entity",
          "type": "uint256"
        }
      ],
      "name": "has",
      "outputs": [
        {
          "internalType": "bool",
          "name": "",
          "type": "bool"
        }
      ],
      "stateMutability": "view",
      "type": "function"
    },
    {
      "inputs": [],
      "name": "id",
      "outputs": [
        {
          "internalType": "uint256",
          "name": "",
          "type": "uint256"
        }
      ],
      "stateMutability": "view",
      "type": "function"
    },
    {
      "inputs": [],
      "name": "owner",
      "outputs": [
        {
          "internalType": "address",
          "name": "",
          "type": "address"
        }
      ],
      "stateMutability": "view",
      "type": "function"
    },
    {
      "inputs": [
        {
          "internalType": "address",
          "name": "",
          "type": "address"
        }
      ],
      "name": "registerIndexer",
      "outputs": [],
      "stateMutability": "nonpayable",
      "type": "function"
    },
    {
      "inputs": [
        {
          "internalType": "address",
          "name": "_world",
          "type": "address"
        }
      ],
      "name": "registerWorld",
      "outputs": [],
      "stateMutability": "nonpayable",
      "type": "function"
    },
    {
      "inputs": [
        {
          "internalType": "uint256",
          "name": "entity",
          "type": "uint256"
        }
      ],
      "name": "remove",
      "outputs": [],
      "stateMutability": "nonpayable",
      "type": "function"
    },
    {
      "inputs": [
        {
          "internalType": "uint256",
          "name": "entity",
          "type": "uint256"
        },
        {
          "components": [
            {
              "internalType": "uint256",
              "name": "difficulty",
              "type": "uint256"
            },
            {
              "internalType": "uint256",
              "name": "value",
              "type": "uint256"
            },
            {
              "internalType": "uint256",
              "name": "minuteLimit",
              "type": "uint256"
            },
            {
              "internalType": "uint64",
              "name": "recuitTime",
              "type": "uint64"
            }
          ],
          "internalType": "struct ResourceConfig",
          "name": "resourceConfig",
          "type": "tuple"
        }
      ],
      "name": "set",
      "outputs": [],
      "stateMutability": "nonpayable",
      "type": "function"
    },
    {
      "inputs": [
        {
          "internalType": "uint256",
          "name": "entity",
          "type": "uint256"
        },
        {
          "internalType": "bytes",
          "name": "value",
          "type": "bytes"
        }
      ],
      "name": "set",
      "outputs": [],
      "stateMutability": "nonpayable",
      "type": "function"
    },
    {
      "inputs": [
        {
          "internalType": "address",
          "name": "account",
          "type": "address"
        }
      ],
      "name": "transferOwnership",
      "outputs": [],
      "stateMutability": "nonpayable",
      "type": "function"
    },
    {
      "inputs": [
        {
          "internalType": "address",
          "name": "writer",
          "type": "address"
        }
      ],
      "name": "unauthorizeWriter",
      "outputs": [],
      "stateMutability": "nonpayable",
      "type": "function"
    },
    {
      "inputs": [],
      "name": "world",
      "outputs": [
        {
          "internalType": "address",
          "name": "",
          "type": "address"
        }
      ],
      "stateMutability": "view",
      "type": "function"
    },
    {
      "inputs": [
        {
          "internalType": "address",
          "name": "operator",
          "type": "address"
        }
      ],
      "name": "writeAccess",
      "outputs": [
        {
          "internalType": "bool",
          "name": "",
          "type": "bool"
        }
      ],
      "stateMutability": "view",
      "type": "function"
    }
  ],
  "bytecode": {
    "object": "0x60806040523480156200001157600080fd5b506040516200172438038062001724833981016040819052620000349162000200565b807f426ca3776e558ba7bcca643f7ba84902b1f492ff8ead621ae8c07adcf972f4ba62000061336200008a565b60028190556001600160a01b0382161562000081576200008182620000fe565b50505062000232565b6000620000a1620001b660201b62000cb41760201c565b80546040519192506001600160a01b03808516929116907f8be0079c531659141344cd1fd0a4f28419497f9722a3daafe3b4186f6b6457e090600090a380546001600160a01b0319166001600160a01b0392909216919091179055565b62000108620001da565b6001600160a01b0316336001600160a01b0316146200013a57604051632f7a8ee160e01b815260040160405180910390fd5b600080546001600160a01b0319166001600160a01b038316908117909155600254604051630f30347760e41b8152306004820152602481019190915263f303477090604401600060405180830381600087803b1580156200019a57600080fd5b505af1158015620001af573d6000803e3d6000fd5b5050505050565b7f8a22373512790c48b83a1fe2efdd2888d4a917bcdc24d0adf63e60f67168046090565b6000620001f1620001b660201b62000cb41760201c565b546001600160a01b0316919050565b6000602082840312156200021357600080fd5b81516001600160a01b03811681146200022b57600080fd5b9392505050565b6114e280620002426000396000f3fe608060405234801561001057600080fd5b50600436106101365760003560e01c80638b282947116100b2578063b361be4611610081578063bf4fe57e11610066578063bf4fe57e146102ed578063cccf7a8e14610300578063f2fde38b1461031357600080fd5b8063b361be46146102ba578063b8bc073d146102cd57600080fd5b80638b282947146102755780638da5cb5b146102885780639d2c76b414610290578063af640d0f146102a357600080fd5b80634fef6a381161010957806375c0669c116100ee57806375c0669c1461022c57806378881ee21461023f578063861eb9051461025257600080fd5b80634fef6a38146102035780636b122fe01461021657600080fd5b80630ff4c9161461013b57806330b67baa1461019457806331b933b9146101d95780634cc82215146101ee575b600080fd5b61014e610149366004610f7b565b610326565b60405161018b919081518152602080830151908201526040808301519082015260609182015167ffffffffffffffff169181019190915260800190565b60405180910390f35b6000546101b49073ffffffffffffffffffffffffffffffffffffffff1681565b60405173ffffffffffffffffffffffffffffffffffffffff909116815260200161018b565b6101e16103af565b60405161018b9190610f94565b6102016101fc366004610f7b565b6103e3565b005b610201610211366004610fd8565b61042e565b61021e61050c565b60405161018b9291906110af565b61020161023a366004610fd8565b6107c5565b61020161024d3660046111e4565b6107f7565b610265610260366004610fd8565b61085a565b604051901515815260200161018b565b610201610283366004611339565b6108e5565b6101b461092e565b61020161029e366004610fd8565b610973565b6102ac60025481565b60405190815260200161018b565b6101e16102c8366004611380565b6103af565b6102e06102db366004610f7b565b610a9c565b60405161018b91906113bd565b6102016102fb366004610fd8565b610b3e565b61026561030e366004610f7b565b610c19565b610201610321366004610fd8565b610c3b565b61035b6040518060800160405280600081526020016000815260200160008152602001600067ffffffffffffffff1681525090565b60008060008061036a86610a9c565b80602001905181019061037d91906113d0565b6040805160808101825294855260208501939093529183015267ffffffffffffffff1660608201529695505050505050565b60606040517f17d5b8e800000000000000000000000000000000000000000000000000000000815260040160405180910390fd5b6103ec3361085a565b610422576040517f406ed3da00000000000000000000000000000000000000000000000000000000815260040160405180910390fd5b61042b81610cd8565b50565b7f8a22373512790c48b83a1fe2efdd2888d4a917bcdc24d0adf63e60f6716804605473ffffffffffffffffffffffffffffffffffffffff16331461049e576040517f2f7a8ee100000000000000000000000000000000000000000000000000000000815260040160405180910390fd5b73ffffffffffffffffffffffffffffffffffffffff1660009081527f8ffeadc5cba727b8cc3cdef48739619490ea317fdb3baae1259089d06f92c9096020526040902080547fffffffffffffffffffffffffffffffffffffffffffffffffffffffffffffff00166001179055565b60408051600480825260a08201909252606091829190816020015b606081526020019060019003908161052757505060408051600480825260a08201909252919350602082016080803683370190505090506040518060400160405280600a81526020017f646966666963756c747900000000000000000000000000000000000000000000815250826000815181106105a7576105a7611411565b6020026020010181905250600d816000815181106105c7576105c7611411565b602002602001019060218111156105e0576105e0611080565b908160218111156105f3576105f3611080565b815250506040518060400160405280600581526020017f76616c75650000000000000000000000000000000000000000000000000000008152508260018151811061064057610640611411565b6020026020010181905250600d8160018151811061066057610660611411565b6020026020010190602181111561067957610679611080565b9081602181111561068c5761068c611080565b815250506040518060400160405280600b81526020017f6d696e7574654c696d6974000000000000000000000000000000000000000000815250826002815181106106d9576106d9611411565b6020026020010181905250600d816002815181106106f9576106f9611411565b6020026020010190602181111561071257610712611080565b9081602181111561072557610725611080565b815250506040518060400160405280600a81526020017f72656375697454696d65000000000000000000000000000000000000000000008152508260038151811061077257610772611411565b6020026020010181905250600b8160038151811061079257610792611411565b602002602001019060218111156107ab576107ab611080565b908160218111156107be576107be611080565b9052509091565b6040517f17d5b8e800000000000000000000000000000000000000000000000000000000815260040160405180910390fd5b61085682826000015183602001518460400151856060015160405160200161084294939291909384526020840192909252604083015267ffffffffffffffff16606082015260800190565b6040516020818303038152906040526108e5565b5050565b73ffffffffffffffffffffffffffffffffffffffff811660009081527f8ffeadc5cba727b8cc3cdef48739619490ea317fdb3baae1259089d06f92c909602052604081205460ff16806108df57506108b061092e565b73ffffffffffffffffffffffffffffffffffffffff168273ffffffffffffffffffffffffffffffffffffffff16145b92915050565b6108ee3361085a565b610924576040517f406ed3da00000000000000000000000000000000000000000000000000000000815260040160405180910390fd5b6108568282610d46565b600061096e7f8a22373512790c48b83a1fe2efdd2888d4a917bcdc24d0adf63e60f6716804605473ffffffffffffffffffffffffffffffffffffffff1690565b905090565b7f8a22373512790c48b83a1fe2efdd2888d4a917bcdc24d0adf63e60f6716804605473ffffffffffffffffffffffffffffffffffffffff1633146109e3576040517f2f7a8ee100000000000000000000000000000000000000000000000000000000815260040160405180910390fd5b600080547fffffffffffffffffffffffff00000000000000000000000000000000000000001673ffffffffffffffffffffffffffffffffffffffff83169081179091556002546040517ff3034770000000000000000000000000000000000000000000000000000000008152306004820152602481019190915263f3034770906044015b600060405180830381600087803b158015610a8157600080fd5b505af1158015610a95573d6000803e3d6000fd5b5050505050565b6000818152600160205260409020805460609190610ab990611440565b80601f0160208091040260200160405190810160405280929190818152602001828054610ae590611440565b8015610b325780601f10610b0757610100808354040283529160200191610b32565b820191906000526020600020905b815481529060010190602001808311610b1557829003601f168201915b50505050509050919050565b7f8a22373512790c48b83a1fe2efdd2888d4a917bcdc24d0adf63e60f6716804605473ffffffffffffffffffffffffffffffffffffffff163314610bae576040517f2f7a8ee100000000000000000000000000000000000000000000000000000000815260040160405180910390fd5b73ffffffffffffffffffffffffffffffffffffffff1660009081527f8ffeadc5cba727b8cc3cdef48739619490ea317fdb3baae1259089d06f92c9096020526040902080547fffffffffffffffffffffffffffffffffffffffffffffffffffffffffffffff00169055565b60008181526001602052604081208054610c3290611440565b15159392505050565b7f8a22373512790c48b83a1fe2efdd2888d4a917bcdc24d0adf63e60f6716804605473ffffffffffffffffffffffffffffffffffffffff163314610cab576040517f2f7a8ee100000000000000000000000000000000000000000000000000000000815260040160405180910390fd5b61042b81610df4565b7f8a22373512790c48b83a1fe2efdd2888d4a917bcdc24d0adf63e60f67168046090565b6000818152600160205260408120610cef91610ea8565b6000546040517f0de3b7b50000000000000000000000000000000000000000000000000000000081526004810183905273ffffffffffffffffffffffffffffffffffffffff90911690630de3b7b590602401610a67565b60008281526001602090815260409091208251610d6592840190610ee2565b506000546040517fcfd3c57f00000000000000000000000000000000000000000000000000000000815273ffffffffffffffffffffffffffffffffffffffff9091169063cfd3c57f90610dbe9085908590600401611493565b600060405180830381600087803b158015610dd857600080fd5b505af1158015610dec573d6000803e3d6000fd5b505050505050565b7f8a22373512790c48b83a1fe2efdd2888d4a917bcdc24d0adf63e60f671680460805460405161042b928492909173ffffffffffffffffffffffffffffffffffffffff8085169216907f8be0079c531659141344cd1fd0a4f28419497f9722a3daafe3b4186f6b6457e090600090a380547fffffffffffffffffffffffff00000000000000000000000000000000000000001673ffffffffffffffffffffffffffffffffffffffff92909216919091179055565b508054610eb490611440565b6000825580601f10610ec4575050565b601f01602090049060005260206000209081019061042b9190610f66565b828054610eee90611440565b90600052602060002090601f016020900481019282610f105760008555610f56565b82601f10610f2957805160ff1916838001178555610f56565b82800160010185558215610f56579182015b82811115610f56578251825591602001919060010190610f3b565b50610f62929150610f66565b5090565b5b80821115610f625760008155600101610f67565b600060208284031215610f8d57600080fd5b5035919050565b6020808252825182820181905260009190848201906040850190845b81811015610fcc57835183529284019291840191600101610fb0565b50909695505050505050565b600060208284031215610fea57600080fd5b813573ffffffffffffffffffffffffffffffffffffffff8116811461100e57600080fd5b9392505050565b6000815180845260005b8181101561103b5760208185018101518683018201520161101f565b8181111561104d576000602083870101525b50601f017fffffffffffffffffffffffffffffffffffffffffffffffffffffffffffffffe0169290920160200192915050565b7f4e487b7100000000000000000000000000000000000000000000000000000000600052602160045260246000fd5b6000604082016040835280855180835260608501915060608160051b8601019250602080880160005b83811015611124577fffffffffffffffffffffffffffffffffffffffffffffffffffffffffffffffa0888703018552611112868351611015565b955093820193908201906001016110d8565b50508584038187015286518085528782019482019350915060005b8281101561119257845160228110611180577f4e487b7100000000000000000000000000000000000000000000000000000000600052602160045260246000fd5b8452938101939281019260010161113f565b5091979650505050505050565b7f4e487b7100000000000000000000000000000000000000000000000000000000600052604160045260246000fd5b67ffffffffffffffff8116811461042b57600080fd5b60008082840360a08112156111f857600080fd5b8335925060807fffffffffffffffffffffffffffffffffffffffffffffffffffffffffffffffe08201121561122c57600080fd5b506040516080810181811067ffffffffffffffff821117156112505761125061119f565b8060405250602084013581526040840135602082015260608401356040820152608084013561127e816111ce565b6060820152919491935090915050565b600082601f83011261129f57600080fd5b813567ffffffffffffffff808211156112ba576112ba61119f565b604051601f83017fffffffffffffffffffffffffffffffffffffffffffffffffffffffffffffffe0908116603f011681019082821181831017156113005761130061119f565b8160405283815286602085880101111561131957600080fd5b836020870160208301376000602085830101528094505050505092915050565b6000806040838503121561134c57600080fd5b82359150602083013567ffffffffffffffff81111561136a57600080fd5b6113768582860161128e565b9150509250929050565b60006020828403121561139257600080fd5b813567ffffffffffffffff8111156113a957600080fd5b6113b58482850161128e565b949350505050565b60208152600061100e6020830184611015565b600080600080608085870312156113e657600080fd5b8451935060208501519250604085015191506060850151611406816111ce565b939692955090935050565b7f4e487b7100000000000000000000000000000000000000000000000000000000600052603260045260246000fd5b600181811c9082168061145457607f821691505b60208210810361148d577f4e487b7100000000000000000000000000000000000000000000000000000000600052602260045260246000fd5b50919050565b8281526040602082015260006113b5604083018461101556fea2646970667358221220a579e9e7b83ecf811b97160e48eeb9c5c907e6bfcb60d849743d2c1df00a807664736f6c634300080d0033",
    "linkReferences": {}
  },
  "methodIdentifiers": {
    "authorizeWriter(address)": "4fef6a38",
    "getEntities()": "31b933b9",
    "getEntitiesWithValue(bytes)": "b361be46",
    "getRawValue(uint256)": "b8bc073d",
    "getSchema()": "6b122fe0",
    "getValue(uint256)": "0ff4c916",
    "has(uint256)": "cccf7a8e",
    "id()": "af640d0f",
    "owner()": "8da5cb5b",
    "registerIndexer(address)": "75c0669c",
    "registerWorld(address)": "9d2c76b4",
    "remove(uint256)": "4cc82215",
    "set(uint256,(uint256,uint256,uint256,uint64))": "78881ee2",
    "set(uint256,bytes)": "8b282947",
    "transferOwnership(address)": "f2fde38b",
    "unauthorizeWriter(address)": "bf4fe57e",
    "world()": "30b67baa",
    "writeAccess(address)": "861eb905"
  },
  "id": 137
}