{
  "abi": [
    {
      "inputs": [
        {
          "internalType": "contract IWorld",
          "name": "_world",
          "type": "address"
        },
        {
          "internalType": "address",
          "name": "_components",
          "type": "address"
        }
      ],
      "stateMutability": "nonpayable",
      "type": "constructor"
    },
    {
      "inputs": [],
      "name": "Ownable__NotOwner",
      "type": "error"
    },
    {
      "inputs": [],
      "name": "Ownable__NotTransitiveOwner",
      "type": "error"
    },
    {
      "anonymous": false,
      "inputs": [
        {
          "indexed": true,
          "internalType": "address",
          "name": "previousOwner",
          "type": "address"
        },
        {
          "indexed": true,
          "internalType": "address",
          "name": "newOwner",
          "type": "address"
        }
      ],
      "name": "OwnershipTransferred",
      "type": "event"
    },
    {
      "inputs": [
        {
          "internalType": "bytes",
          "name": "args",
          "type": "bytes"
        }
      ],
      "name": "execute",
      "outputs": [
        {
          "internalType": "bytes",
          "name": "",
          "type": "bytes"
        }
      ],
      "stateMutability": "nonpayable",
      "type": "function"
    },
    {
      "inputs": [
        {
          "internalType": "uint32",
          "name": "status",
          "type": "uint32"
        }
      ],
      "name": "executeTyped",
      "outputs": [
        {
          "internalType": "bytes",
          "name": "",
          "type": "bytes"
        }
      ],
      "stateMutability": "nonpayable",
      "type": "function"
    },
    {
      "inputs": [],
      "name": "owner",
      "outputs": [
        {
          "internalType": "address",
          "name": "",
          "type": "address"
        }
      ],
      "stateMutability": "view",
      "type": "function"
    },
    {
      "inputs": [
        {
          "internalType": "address",
          "name": "account",
          "type": "address"
        }
      ],
      "name": "transferOwnership",
      "outputs": [],
      "stateMutability": "nonpayable",
      "type": "function"
    }
  ],
  "bytecode": {
    "object": "0x60806040523480156200001157600080fd5b50604051620011be380380620011be83398101604081905262000034916200022c565b818162000041336200010f565b6001600160a01b03811615620000585780620000bd565b816001600160a01b031663ba62fbe46040518163ffffffff1660e01b8152600401602060405180830381865afa15801562000097573d6000803e3d6000fd5b505050506040513d601f19601f82011682018060405250810190620000bd91906200026b565b600080546001600160a01b03199081166001600160a01b0393841690811790925560018054909116928516928317905562000105919062000183602090811b6200071917901c565b5050505062000292565b600062000126620001ef60201b620007aa1760201c565b80546040519192506001600160a01b03808516929116907f8be0079c531659141344cd1fd0a4f28419497f9722a3daafe3b4186f6b6457e090600090a380546001600160a01b0319166001600160a01b0392909216919091179055565b7ff67304f10c7772c78e439bc5cb07781db345424de8878c18100fdaa64d197a8780546001600160a01b039384166001600160a01b0319918216179091557ff67304f10c7772c78e439bc5cb07781db345424de8878c18100fdaa64d197a868054929093169116179055565b7f8a22373512790c48b83a1fe2efdd2888d4a917bcdc24d0adf63e60f67168046090565b6001600160a01b03811681146200022957600080fd5b50565b600080604083850312156200024057600080fd5b82516200024d8162000213565b6020840151909250620002608162000213565b809150509250929050565b6000602082840312156200027e57600080fd5b81516200028b8162000213565b9392505050565b610f1c80620002a26000396000f3fe608060405234801561001057600080fd5b506004361061004c5760003560e01c806309c5eabe1461005157806309c903241461007a5780638da5cb5b1461008d578063f2fde38b146100ba575b600080fd5b61006461005f366004610a4c565b6100cf565b6040516100719190610aff565b60405180910390f35b610064610088366004610b84565b6100f9565b610095610658565b60405173ffffffffffffffffffffffffffffffffffffffff9091168152602001610071565b6100cd6100c8366004610bc3565b61069d565b005b60606000828060200190518101906100e79190610be0565b90506100f2816100f9565b9392505050565b60606000336001546040517f4f27da180000000000000000000000000000000000000000000000000000000081527f96b5cf7019465e93c7e5108d84c24e70f0d4aa63ab16b75f307df929278baad9600482015291925060009173ffffffffffffffffffffffffffffffffffffffff90911690634f27da1890602401602060405180830381865afa158015610192573d6000803e3d6000fd5b505050506040513d601f19601f820116820180604052508101906101b69190610bfd565b90508363ffffffff166001036105c5576000805461020a9073ffffffffffffffffffffffffffffffffffffffff167f189eafd1a01543209399086ef2e12962fca648be4826ce2b3eb2e53ed14bf1416107ce565b60008054919250906102529073ffffffffffffffffffffffffffffffffffffffff167f3c3102d48c6d31b1a70ddf8b23d300c759379d6506f2ef221cf3056d7c54dca76107ce565b6040517f720354530000000000000000000000000000000000000000000000000000000081526004810186905290915060009073ffffffffffffffffffffffffffffffffffffffff831690637203545390602401602060405180830381865afa1580156102c3573d6000803e3d6000fd5b505050506040513d601f19601f820116820180604052508101906102e79190610c1a565b600080549192509061032f9073ffffffffffffffffffffffffffffffffffffffff167fdc602e66a6d8c84d0c8d6c4292d80341393a1e04ff02909a12718a4216d3a9f76107ce565b73ffffffffffffffffffffffffffffffffffffffff1663209652556040518163ffffffff1660e01b815260040160a060405180830381865afa158015610379573d6000803e3d6000fd5b505050506040513d601f19601f8201168201806040525081019061039d9190610c5a565b6040517f0ff4c9160000000000000000000000000000000000000000000000000000000081526004810188905290915060009073ffffffffffffffffffffffffffffffffffffffff861690630ff4c916906024016040805180830381865afa15801561040d573d6000803e3d6000fd5b505050506040513d601f19601f820116820180604052508101906104319190610ce4565b602083015181519192506000916104489042610d6e565b6104529190610d97565b82602001516104619190610de5565b905063ffffffff841667ffffffffffffffff82161115610484575063ffffffff83165b60018167ffffffffffffffff16116104fd576040517f08c379a000000000000000000000000000000000000000000000000000000000815260206004820152601560248201527f6c61636b206f6620616374696f6e20706f696e7473000000000000000000000060448201526064015b60405180910390fd5b610508600182610d6e565b60408051808201825267ffffffffffffffff42811682528381166020830190815292517f4e6641a9000000000000000000000000000000000000000000000000000000008152600481018d90529151811660248301529151909116604482015290915073ffffffffffffffffffffffffffffffffffffffff871690634e6641a990606401600060405180830381600087803b1580156105a657600080fd5b505af11580156105ba573d6000803e3d6000fd5b505050505050505050505b6040517fd923c3c40000000000000000000000000000000000000000000000000000000081526004810183905263ffffffff8516602482015273ffffffffffffffffffffffffffffffffffffffff82169063d923c3c490604401600060405180830381600087803b15801561063957600080fd5b505af115801561064d573d6000803e3d6000fd5b505050505050919050565b60006106987f8a22373512790c48b83a1fe2efdd2888d4a917bcdc24d0adf63e60f6716804605473ffffffffffffffffffffffffffffffffffffffff1690565b905090565b7f8a22373512790c48b83a1fe2efdd2888d4a917bcdc24d0adf63e60f6716804605473ffffffffffffffffffffffffffffffffffffffff16331461070d576040517f2f7a8ee100000000000000000000000000000000000000000000000000000000815260040160405180910390fd5b6107168161091a565b50565b7ff67304f10c7772c78e439bc5cb07781db345424de8878c18100fdaa64d197a87805473ffffffffffffffffffffffffffffffffffffffff9384167fffffffffffffffffffffffff0000000000000000000000000000000000000000918216179091557ff67304f10c7772c78e439bc5cb07781db345424de8878c18100fdaa64d197a868054929093169116179055565b7f8a22373512790c48b83a1fe2efdd2888d4a917bcdc24d0adf63e60f67168046090565b6040517ffbdfa1ea00000000000000000000000000000000000000000000000000000000815260048101829052600090819073ffffffffffffffffffffffffffffffffffffffff85169063fbdfa1ea90602401600060405180830381865afa15801561083e573d6000803e3d6000fd5b505050506040513d6000823e601f3d9081017fffffffffffffffffffffffffffffffffffffffffffffffffffffffffffffffe01682016040526108849190810190610e11565b905080516000036108f1576040517f08c379a000000000000000000000000000000000000000000000000000000000815260206004820152601160248201527f6964206e6f74207265676973746572656400000000000000000000000000000060448201526064016104f4565b6109128160008151811061090757610907610eb7565b602002602001015190565b949350505050565b7f8a22373512790c48b83a1fe2efdd2888d4a917bcdc24d0adf63e60f6716804608054604051610716928492909173ffffffffffffffffffffffffffffffffffffffff8085169216907f8be0079c531659141344cd1fd0a4f28419497f9722a3daafe3b4186f6b6457e090600090a380547fffffffffffffffffffffffff00000000000000000000000000000000000000001673ffffffffffffffffffffffffffffffffffffffff92909216919091179055565b7f4e487b7100000000000000000000000000000000000000000000000000000000600052604160045260246000fd5b604051601f82017fffffffffffffffffffffffffffffffffffffffffffffffffffffffffffffffe016810167ffffffffffffffff81118282101715610a4457610a446109ce565b604052919050565b60006020808385031215610a5f57600080fd5b823567ffffffffffffffff80821115610a7757600080fd5b818501915085601f830112610a8b57600080fd5b813581811115610a9d57610a9d6109ce565b610acd847fffffffffffffffffffffffffffffffffffffffffffffffffffffffffffffffe0601f840116016109fd565b91508082528684828501011115610ae357600080fd5b8084840185840137600090820190930192909252509392505050565b600060208083528351808285015260005b81811015610b2c57858101830151858201604001528201610b10565b81811115610b3e576000604083870101525b50601f017fffffffffffffffffffffffffffffffffffffffffffffffffffffffffffffffe016929092016040019392505050565b63ffffffff8116811461071657600080fd5b600060208284031215610b9657600080fd5b81356100f281610b72565b73ffffffffffffffffffffffffffffffffffffffff8116811461071657600080fd5b600060208284031215610bd557600080fd5b81356100f281610ba1565b600060208284031215610bf257600080fd5b81516100f281610b72565b600060208284031215610c0f57600080fd5b81516100f281610ba1565b600060208284031215610c2c57600080fd5b81518060030b81146100f257600080fd5b805167ffffffffffffffff81168114610c5557600080fd5b919050565b600060a08284031215610c6c57600080fd5b60405160a0810181811067ffffffffffffffff82111715610c8f57610c8f6109ce565b604052610c9b83610c3d565b8152610ca960208401610c3d565b6020820152610cba60408401610c3d565b6040820152610ccb60608401610c3d565b6060820152608083015160808201528091505092915050565b600060408284031215610cf657600080fd5b6040516040810181811067ffffffffffffffff82111715610d1957610d196109ce565b604052610d2583610c3d565b8152610d3360208401610c3d565b60208201529392505050565b7f4e487b7100000000000000000000000000000000000000000000000000000000600052601160045260246000fd5b600067ffffffffffffffff83811690831681811015610d8f57610d8f610d3f565b039392505050565b600067ffffffffffffffff80841680610dd9577f4e487b7100000000000000000000000000000000000000000000000000000000600052601260045260246000fd5b92169190910492915050565b600067ffffffffffffffff808316818516808303821115610e0857610e08610d3f565b01949350505050565b60006020808385031215610e2457600080fd5b825167ffffffffffffffff80821115610e3c57600080fd5b818501915085601f830112610e5057600080fd5b815181811115610e6257610e626109ce565b8060051b9150610e738483016109fd565b8181529183018401918481019088841115610e8d57600080fd5b938501935b83851015610eab57845182529385019390850190610e92565b98975050505050505050565b7f4e487b7100000000000000000000000000000000000000000000000000000000600052603260045260246000fdfea26469706673582212209ce5d6ba96f910cff1ad40254ab67c5c404cde28eaf396bef60082f6a507e61064736f6c634300080d0033",
    "linkReferences": {}
  },
  "methodIdentifiers": {
    "execute(bytes)": "09c5eabe",
    "executeTyped(uint32)": "09c90324",
    "owner()": "8da5cb5b",
    "transferOwnership(address)": "f2fde38b"
  },
  "id": 254
}