{
  "abi": [
    {
      "inputs": [
        {
          "internalType": "contract IWorld",
          "name": "_world",
          "type": "address"
        },
        {
          "internalType": "address",
          "name": "_components",
          "type": "address"
        }
      ],
      "stateMutability": "nonpayable",
      "type": "constructor"
    },
    {
      "inputs": [],
      "name": "Ownable__NotOwner",
      "type": "error"
    },
    {
      "inputs": [],
      "name": "Ownable__NotTransitiveOwner",
      "type": "error"
    },
    {
      "anonymous": false,
      "inputs": [
        {
          "indexed": true,
          "internalType": "address",
          "name": "previousOwner",
          "type": "address"
        },
        {
          "indexed": true,
          "internalType": "address",
          "name": "newOwner",
          "type": "address"
        }
      ],
      "name": "OwnershipTransferred",
      "type": "event"
    },
    {
      "inputs": [
        {
          "components": [
            {
              "internalType": "uint256",
              "name": "sourceId",
              "type": "uint256"
            },
            {
              "internalType": "bool",
              "name": "isComponent",
              "type": "bool"
            },
            {
              "internalType": "uint256",
              "name": "entity",
              "type": "uint256"
            },
            {
              "internalType": "uint256",
              "name": "techEffectId",
              "type": "uint256"
            },
            {
              "internalType": "uint64",
              "name": "value",
              "type": "uint64"
            }
          ],
          "internalType": "struct TechEffectInfo",
          "name": "techEffectInfo",
          "type": "tuple"
        }
      ],
      "name": "effectLogic",
      "outputs": [
        {
          "internalType": "bytes",
          "name": "",
          "type": "bytes"
        }
      ],
      "stateMutability": "nonpayable",
      "type": "function"
    },
    {
      "inputs": [
        {
          "internalType": "bytes",
          "name": "args",
          "type": "bytes"
        }
      ],
      "name": "execute",
      "outputs": [
        {
          "internalType": "bytes",
          "name": "",
          "type": "bytes"
        }
      ],
      "stateMutability": "nonpayable",
      "type": "function"
    },
    {
      "inputs": [
        {
          "components": [
            {
              "internalType": "uint256",
              "name": "sourceId",
              "type": "uint256"
            },
            {
              "internalType": "bool",
              "name": "isComponent",
              "type": "bool"
            },
            {
              "internalType": "uint256",
              "name": "entity",
              "type": "uint256"
            },
            {
              "internalType": "uint256",
              "name": "techEffectId",
              "type": "uint256"
            },
            {
              "internalType": "uint64",
              "name": "value",
              "type": "uint64"
            }
          ],
          "internalType": "struct TechEffectInfo",
          "name": "effectInfo",
          "type": "tuple"
        }
      ],
      "name": "executeTyped",
      "outputs": [
        {
          "internalType": "bytes",
          "name": "",
          "type": "bytes"
        }
      ],
      "stateMutability": "nonpayable",
      "type": "function"
    },
    {
      "inputs": [],
      "name": "owner",
      "outputs": [
        {
          "internalType": "address",
          "name": "",
          "type": "address"
        }
      ],
      "stateMutability": "view",
      "type": "function"
    },
    {
      "inputs": [
        {
          "internalType": "address",
          "name": "account",
          "type": "address"
        }
      ],
      "name": "transferOwnership",
      "outputs": [],
      "stateMutability": "nonpayable",
      "type": "function"
    }
  ],
  "bytecode": {
    "object": "0x60806040523480156200001157600080fd5b5060405162000d9538038062000d95833981016040819052620000349162000230565b81818181620000433362000113565b6001600160a01b038116156200005a5780620000bf565b816001600160a01b031663ba62fbe46040518163ffffffff1660e01b8152600401602060405180830381865afa15801562000099573d6000803e3d6000fd5b505050506040513d601f19601f82011682018060405250810190620000bf91906200026f565b600080546001600160a01b03199081166001600160a01b0393841690811790925560018054909116928516928317905562000107919062000187602090811b620003c717901c565b50505050505062000296565b60006200012a620001f360201b620004581760201c565b80546040519192506001600160a01b03808516929116907f8be0079c531659141344cd1fd0a4f28419497f9722a3daafe3b4186f6b6457e090600090a380546001600160a01b0319166001600160a01b0392909216919091179055565b7ff67304f10c7772c78e439bc5cb07781db345424de8878c18100fdaa64d197a8780546001600160a01b039384166001600160a01b0319918216179091557ff67304f10c7772c78e439bc5cb07781db345424de8878c18100fdaa64d197a868054929093169116179055565b7f8a22373512790c48b83a1fe2efdd2888d4a917bcdc24d0adf63e60f67168046090565b6001600160a01b03811681146200022d57600080fd5b50565b600080604083850312156200024457600080fd5b8251620002518162000217565b6020840151909250620002648162000217565b809150509250929050565b6000602082840312156200028257600080fd5b81516200028f8162000217565b9392505050565b610aef80620002a66000396000f3fe608060405234801561001057600080fd5b50600436106100675760003560e01c80635b6996ea116100505780635b6996ea146100a85780638da5cb5b146100bb578063f2fde38b146100e857600080fd5b806306b54fb01461006c57806309c5eabe14610095575b600080fd5b61007f61007a36600461074b565b6100fd565b60405161008c9190610817565b60405180910390f35b61007f6100a336600461082a565b61010e565b61007f6100b636600461074b565b610138565b6100c3610306565b60405173ffffffffffffffffffffffffffffffffffffffff909116815260200161008c565b6100fb6100f63660046108dd565b61034b565b005b606061010882610138565b92915050565b60606000828060200190518101906101269190610913565b9050610131816100fd565b9392505050565b60408082015160015482517f614bfa6e000000000000000000000000000000000000000000000000000000008152925160609360009273ffffffffffffffffffffffffffffffffffffffff169163614bfa6e916004808201926020929091908290030181865afa1580156101b0573d6000803e3d6000fd5b505050506040513d601f19601f820116820180604052508101906101d49190610968565b60005490915061021a9073ffffffffffffffffffffffffffffffffffffffff167f505c771aef7299ec64f3cda5d64ebc66398fb3b326dba672c0cb26e1a53c422961047c565b73ffffffffffffffffffffffffffffffffffffffff1663a1fc65cb826040518060a001604052808860600151815260200160018152602001600167ffffffffffffffff168152602001886080015167ffffffffffffffff1681526020016040518060400160405280600e81526020017f74656368547265655570646174650000000000000000000000000000000000008152508152506040518363ffffffff1660e01b81526004016102cd929190610981565b600060405180830381600087803b1580156102e757600080fd5b505af11580156102fb573d6000803e3d6000fd5b505050505050919050565b60006103467f8a22373512790c48b83a1fe2efdd2888d4a917bcdc24d0adf63e60f6716804605473ffffffffffffffffffffffffffffffffffffffff1690565b905090565b7f8a22373512790c48b83a1fe2efdd2888d4a917bcdc24d0adf63e60f6716804605473ffffffffffffffffffffffffffffffffffffffff1633146103bb576040517f2f7a8ee100000000000000000000000000000000000000000000000000000000815260040160405180910390fd5b6103c4816105cc565b50565b7ff67304f10c7772c78e439bc5cb07781db345424de8878c18100fdaa64d197a87805473ffffffffffffffffffffffffffffffffffffffff9384167fffffffffffffffffffffffff0000000000000000000000000000000000000000918216179091557ff67304f10c7772c78e439bc5cb07781db345424de8878c18100fdaa64d197a868054929093169116179055565b7f8a22373512790c48b83a1fe2efdd2888d4a917bcdc24d0adf63e60f67168046090565b6040517ffbdfa1ea00000000000000000000000000000000000000000000000000000000815260048101829052600090819073ffffffffffffffffffffffffffffffffffffffff85169063fbdfa1ea90602401600060405180830381865afa1580156104ec573d6000803e3d6000fd5b505050506040513d6000823e601f3d9081017fffffffffffffffffffffffffffffffffffffffffffffffffffffffffffffffe016820160405261053291908101906109e4565b905080516000036105a3576040517f08c379a000000000000000000000000000000000000000000000000000000000815260206004820152601160248201527f6964206e6f742072656769737465726564000000000000000000000000000000604482015260640160405180910390fd5b6105c4816000815181106105b9576105b9610a8a565b602002602001015190565b949350505050565b7f8a22373512790c48b83a1fe2efdd2888d4a917bcdc24d0adf63e60f67168046080546040516103c4928492909173ffffffffffffffffffffffffffffffffffffffff8085169216907f8be0079c531659141344cd1fd0a4f28419497f9722a3daafe3b4186f6b6457e090600090a380547fffffffffffffffffffffffff00000000000000000000000000000000000000001673ffffffffffffffffffffffffffffffffffffffff92909216919091179055565b7f4e487b7100000000000000000000000000000000000000000000000000000000600052604160045260246000fd5b60405160a0810167ffffffffffffffff811182821017156106d2576106d2610680565b60405290565b604051601f82017fffffffffffffffffffffffffffffffffffffffffffffffffffffffffffffffe016810167ffffffffffffffff8111828210171561071f5761071f610680565b604052919050565b80151581146103c457600080fd5b67ffffffffffffffff811681146103c457600080fd5b600060a0828403121561075d57600080fd5b6107656106af565b82358152602083013561077781610727565b80602083015250604083013560408201526060830135606082015260808301356107a081610735565b60808201529392505050565b6000815180845260005b818110156107d2576020818501810151868301820152016107b6565b818111156107e4576000602083870101525b50601f017fffffffffffffffffffffffffffffffffffffffffffffffffffffffffffffffe0169290920160200192915050565b60208152600061013160208301846107ac565b6000602080838503121561083d57600080fd5b823567ffffffffffffffff8082111561085557600080fd5b818501915085601f83011261086957600080fd5b81358181111561087b5761087b610680565b6108ab847fffffffffffffffffffffffffffffffffffffffffffffffffffffffffffffffe0601f840116016106d8565b915080825286848285010111156108c157600080fd5b8084840185840137600090820190930192909252509392505050565b6000602082840312156108ef57600080fd5b813573ffffffffffffffffffffffffffffffffffffffff8116811461013157600080fd5b600060a0828403121561092557600080fd5b61092d6106af565b82518152602083015161093f81610727565b80602083015250604083015160408201526060830151606082015260808301516107a081610735565b60006020828403121561097a57600080fd5b5051919050565b8281526040602082015281516040820152602082015160608201526000604083015167ffffffffffffffff80821660808501528060608601511660a08501525050608083015160a060c08401526109db60e08401826107ac565b95945050505050565b600060208083850312156109f757600080fd5b825167ffffffffffffffff80821115610a0f57600080fd5b818501915085601f830112610a2357600080fd5b815181811115610a3557610a35610680565b8060051b9150610a468483016106d8565b8181529183018401918481019088841115610a6057600080fd5b938501935b83851015610a7e57845182529385019390850190610a65565b98975050505050505050565b7f4e487b7100000000000000000000000000000000000000000000000000000000600052603260045260246000fdfea2646970667358221220d9fc9f85ebafd7854aeceb81df6d4515409a98d9a2e776fa6f31565d595fe39864736f6c634300080d0033",
    "linkReferences": {}
  },
  "methodIdentifiers": {
    "effectLogic((uint256,bool,uint256,uint256,uint64))": "5b6996ea",
    "execute(bytes)": "09c5eabe",
    "executeTyped((uint256,bool,uint256,uint256,uint64))": "06b54fb0",
    "owner()": "8da5cb5b",
    "transferOwnership(address)": "f2fde38b"
  },
  "id": 250
}