{
  "abi": [
    {
      "inputs": [
        {
          "internalType": "address",
          "name": "world",
          "type": "address"
        }
      ],
      "stateMutability": "nonpayable",
      "type": "constructor"
    },
    {
      "inputs": [],
      "name": "BareComponent__NotImplemented",
      "type": "error"
    },
    {
      "inputs": [],
      "name": "OwnableWritable__NotWriter",
      "type": "error"
    },
    {
      "inputs": [],
      "name": "Ownable__NotOwner",
      "type": "error"
    },
    {
      "inputs": [],
      "name": "Ownable__NotTransitiveOwner",
      "type": "error"
    },
    {
      "anonymous": false,
      "inputs": [
        {
          "indexed": true,
          "internalType": "address",
          "name": "previousOwner",
          "type": "address"
        },
        {
          "indexed": true,
          "internalType": "address",
          "name": "newOwner",
          "type": "address"
        }
      ],
      "name": "OwnershipTransferred",
      "type": "event"
    },
    {
      "inputs": [
        {
          "internalType": "address",
          "name": "writer",
          "type": "address"
        }
      ],
      "name": "authorizeWriter",
      "outputs": [],
      "stateMutability": "nonpayable",
      "type": "function"
    },
    {
      "inputs": [],
      "name": "getEntities",
      "outputs": [
        {
          "internalType": "uint256[]",
          "name": "",
          "type": "uint256[]"
        }
      ],
      "stateMutability": "view",
      "type": "function"
    },
    {
      "inputs": [
        {
          "internalType": "bytes",
          "name": "",
          "type": "bytes"
        }
      ],
      "name": "getEntitiesWithValue",
      "outputs": [
        {
          "internalType": "uint256[]",
          "name": "",
          "type": "uint256[]"
        }
      ],
      "stateMutability": "view",
      "type": "function"
    },
    {
      "inputs": [
        {
          "internalType": "uint256",
          "name": "entity",
          "type": "uint256"
        }
      ],
      "name": "getRawValue",
      "outputs": [
        {
          "internalType": "bytes",
          "name": "",
          "type": "bytes"
        }
      ],
      "stateMutability": "view",
      "type": "function"
    },
    {
      "inputs": [],
      "name": "getSchema",
      "outputs": [
        {
          "internalType": "string[]",
          "name": "keys",
          "type": "string[]"
        },
        {
          "internalType": "enum LibTypes.SchemaValue[]",
          "name": "values",
          "type": "uint8[]"
        }
      ],
      "stateMutability": "pure",
      "type": "function"
    },
    {
      "inputs": [],
      "name": "getValue",
      "outputs": [
        {
          "internalType": "uint256",
          "name": "",
          "type": "uint256"
        }
      ],
      "stateMutability": "view",
      "type": "function"
    },
    {
      "inputs": [
        {
          "internalType": "uint256",
          "name": "entity",
          "type": "uint256"
        }
      ],
      "name": "has",
      "outputs": [
        {
          "internalType": "bool",
          "name": "",
          "type": "bool"
        }
      ],
      "stateMutability": "view",
      "type": "function"
    },
    {
      "inputs": [],
      "name": "id",
      "outputs": [
        {
          "internalType": "uint256",
          "name": "",
          "type": "uint256"
        }
      ],
      "stateMutability": "view",
      "type": "function"
    },
    {
      "inputs": [],
      "name": "owner",
      "outputs": [
        {
          "internalType": "address",
          "name": "",
          "type": "address"
        }
      ],
      "stateMutability": "view",
      "type": "function"
    },
    {
      "inputs": [
        {
          "internalType": "address",
          "name": "",
          "type": "address"
        }
      ],
      "name": "registerIndexer",
      "outputs": [],
      "stateMutability": "nonpayable",
      "type": "function"
    },
    {
      "inputs": [
        {
          "internalType": "address",
          "name": "_world",
          "type": "address"
        }
      ],
      "name": "registerWorld",
      "outputs": [],
      "stateMutability": "nonpayable",
      "type": "function"
    },
    {
      "inputs": [
        {
          "internalType": "uint256",
          "name": "entity",
          "type": "uint256"
        }
      ],
      "name": "remove",
      "outputs": [],
      "stateMutability": "nonpayable",
      "type": "function"
    },
    {
      "inputs": [
        {
          "internalType": "uint256",
          "name": "seed",
          "type": "uint256"
        }
      ],
      "name": "set",
      "outputs": [],
      "stateMutability": "nonpayable",
      "type": "function"
    },
    {
      "inputs": [
        {
          "internalType": "uint256",
          "name": "entity",
          "type": "uint256"
        },
        {
          "internalType": "bytes",
          "name": "value",
          "type": "bytes"
        }
      ],
      "name": "set",
      "outputs": [],
      "stateMutability": "nonpayable",
      "type": "function"
    },
    {
      "inputs": [
        {
          "internalType": "address",
          "name": "account",
          "type": "address"
        }
      ],
      "name": "transferOwnership",
      "outputs": [],
      "stateMutability": "nonpayable",
      "type": "function"
    },
    {
      "inputs": [
        {
          "internalType": "address",
          "name": "writer",
          "type": "address"
        }
      ],
      "name": "unauthorizeWriter",
      "outputs": [],
      "stateMutability": "nonpayable",
      "type": "function"
    },
    {
      "inputs": [],
      "name": "world",
      "outputs": [
        {
          "internalType": "address",
          "name": "",
          "type": "address"
        }
      ],
      "stateMutability": "view",
      "type": "function"
    },
    {
      "inputs": [
        {
          "internalType": "address",
          "name": "operator",
          "type": "address"
        }
      ],
      "name": "writeAccess",
      "outputs": [
        {
          "internalType": "bool",
          "name": "",
          "type": "bool"
        }
      ],
      "stateMutability": "view",
      "type": "function"
    }
  ],
  "bytecode": {
    "object": "0x60806040523480156200001157600080fd5b506040516200138838038062001388833981016040819052620000349162000200565b807f6ff1af157fa1e1b9d39dd94ba1bb33ea6a1a0d2f214bb2c71eb60cc093c06fc362000061336200008a565b60028190556001600160a01b0382161562000081576200008182620000fe565b50505062000232565b6000620000a1620001b660201b62000a001760201c565b80546040519192506001600160a01b03808516929116907f8be0079c531659141344cd1fd0a4f28419497f9722a3daafe3b4186f6b6457e090600090a380546001600160a01b0319166001600160a01b0392909216919091179055565b62000108620001da565b6001600160a01b0316336001600160a01b0316146200013a57604051632f7a8ee160e01b815260040160405180910390fd5b600080546001600160a01b0319166001600160a01b038316908117909155600254604051630f30347760e41b8152306004820152602481019190915263f303477090604401600060405180830381600087803b1580156200019a57600080fd5b505af1158015620001af573d6000803e3d6000fd5b5050505050565b7f8a22373512790c48b83a1fe2efdd2888d4a917bcdc24d0adf63e60f67168046090565b6000620001f1620001b660201b62000a001760201c565b546001600160a01b0316919050565b6000602082840312156200021357600080fd5b81516001600160a01b03811681146200022b57600080fd5b9392505050565b61114680620002426000396000f3fe608060405234801561001057600080fd5b50600436106101365760003560e01c80638b282947116100b2578063b361be4611610081578063bf4fe57e11610066578063bf4fe57e146102a1578063cccf7a8e146102b4578063f2fde38b146102c757600080fd5b8063b361be461461026e578063b8bc073d1461028157600080fd5b80638b282947146102375780638da5cb5b1461024a5780639d2c76b414610252578063af640d0f1461026557600080fd5b80634fef6a38116101095780636b122fe0116100ee5780636b122fe0146101eb57806375c0669c14610201578063861eb9051461021457600080fd5b80634fef6a38146101c557806360fe47b1146101d857600080fd5b8063209652551461013b57806330b67baa1461015657806331b933b91461019b5780634cc82215146101b0575b600080fd5b6101436102da565b6040519081526020015b60405180910390f35b6000546101769073ffffffffffffffffffffffffffffffffffffffff1681565b60405173ffffffffffffffffffffffffffffffffffffffff909116815260200161014d565b6101a36102ff565b60405161014d9190610cc7565b6101c36101be366004610d0b565b610333565b005b6101c36101d3366004610d24565b61037e565b6101c36101e6366004610d0b565b61045c565b6101f3610489565b60405161014d929190610dfb565b6101c361020f366004610d24565b610575565b610227610222366004610d24565b6105a7565b604051901515815260200161014d565b6101c3610245366004610fc5565b610632565b61017661067f565b6101c3610260366004610d24565b6106bf565b61014360025481565b6101a361027c36600461100c565b6102ff565b61029461028f366004610d0b565b6107e8565b60405161014d9190611049565b6101c36102af366004610d24565b61088a565b6102276102c2366004610d0b565b610965565b6101c36102d5366004610d24565b610987565b60006102e761060d6107e8565b8060200190518101906102fa919061105c565b905090565b60606040517f17d5b8e800000000000000000000000000000000000000000000000000000000815260040160405180910390fd5b61033c336105a7565b610372576040517f406ed3da00000000000000000000000000000000000000000000000000000000815260040160405180910390fd5b61037b81610a24565b50565b7f8a22373512790c48b83a1fe2efdd2888d4a917bcdc24d0adf63e60f6716804605473ffffffffffffffffffffffffffffffffffffffff1633146103ee576040517f2f7a8ee100000000000000000000000000000000000000000000000000000000815260040160405180910390fd5b73ffffffffffffffffffffffffffffffffffffffff1660009081527f8ffeadc5cba727b8cc3cdef48739619490ea317fdb3baae1259089d06f92c9096020526040902080547fffffffffffffffffffffffffffffffffffffffffffffffffffffffffffffff00166001179055565b61037b61060d8260405160200161047591815260200190565b604051602081830303815290604052610632565b604080516001808252818301909252606091829190816020015b60608152602001906001900390816104a3575050604080516001808252818301909252919350602080830190803683370190505090506040518060400160405280600481526020017f73656564000000000000000000000000000000000000000000000000000000008152508260008151811061052257610522611075565b6020026020010181905250600d8160008151811061054257610542611075565b6020026020010190602181111561055b5761055b610dcc565b9081602181111561056e5761056e610dcc565b9052509091565b6040517f17d5b8e800000000000000000000000000000000000000000000000000000000815260040160405180910390fd5b73ffffffffffffffffffffffffffffffffffffffff811660009081527f8ffeadc5cba727b8cc3cdef48739619490ea317fdb3baae1259089d06f92c909602052604081205460ff168061062c57506105fd61067f565b73ffffffffffffffffffffffffffffffffffffffff168273ffffffffffffffffffffffffffffffffffffffff16145b92915050565b61063b336105a7565b610671576040517f406ed3da00000000000000000000000000000000000000000000000000000000815260040160405180910390fd5b61067b8282610a92565b5050565b60006102fa7f8a22373512790c48b83a1fe2efdd2888d4a917bcdc24d0adf63e60f6716804605473ffffffffffffffffffffffffffffffffffffffff1690565b7f8a22373512790c48b83a1fe2efdd2888d4a917bcdc24d0adf63e60f6716804605473ffffffffffffffffffffffffffffffffffffffff16331461072f576040517f2f7a8ee100000000000000000000000000000000000000000000000000000000815260040160405180910390fd5b600080547fffffffffffffffffffffffff00000000000000000000000000000000000000001673ffffffffffffffffffffffffffffffffffffffff83169081179091556002546040517ff3034770000000000000000000000000000000000000000000000000000000008152306004820152602481019190915263f3034770906044015b600060405180830381600087803b1580156107cd57600080fd5b505af11580156107e1573d6000803e3d6000fd5b5050505050565b6000818152600160205260409020805460609190610805906110a4565b80601f0160208091040260200160405190810160405280929190818152602001828054610831906110a4565b801561087e5780601f106108535761010080835404028352916020019161087e565b820191906000526020600020905b81548152906001019060200180831161086157829003601f168201915b50505050509050919050565b7f8a22373512790c48b83a1fe2efdd2888d4a917bcdc24d0adf63e60f6716804605473ffffffffffffffffffffffffffffffffffffffff1633146108fa576040517f2f7a8ee100000000000000000000000000000000000000000000000000000000815260040160405180910390fd5b73ffffffffffffffffffffffffffffffffffffffff1660009081527f8ffeadc5cba727b8cc3cdef48739619490ea317fdb3baae1259089d06f92c9096020526040902080547fffffffffffffffffffffffffffffffffffffffffffffffffffffffffffffff00169055565b6000818152600160205260408120805461097e906110a4565b15159392505050565b7f8a22373512790c48b83a1fe2efdd2888d4a917bcdc24d0adf63e60f6716804605473ffffffffffffffffffffffffffffffffffffffff1633146109f7576040517f2f7a8ee100000000000000000000000000000000000000000000000000000000815260040160405180910390fd5b61037b81610b40565b7f8a22373512790c48b83a1fe2efdd2888d4a917bcdc24d0adf63e60f67168046090565b6000818152600160205260408120610a3b91610bf4565b6000546040517f0de3b7b50000000000000000000000000000000000000000000000000000000081526004810183905273ffffffffffffffffffffffffffffffffffffffff90911690630de3b7b5906024016107b3565b60008281526001602090815260409091208251610ab192840190610c2e565b506000546040517fcfd3c57f00000000000000000000000000000000000000000000000000000000815273ffffffffffffffffffffffffffffffffffffffff9091169063cfd3c57f90610b0a90859085906004016110f7565b600060405180830381600087803b158015610b2457600080fd5b505af1158015610b38573d6000803e3d6000fd5b505050505050565b7f8a22373512790c48b83a1fe2efdd2888d4a917bcdc24d0adf63e60f671680460805460405161037b928492909173ffffffffffffffffffffffffffffffffffffffff8085169216907f8be0079c531659141344cd1fd0a4f28419497f9722a3daafe3b4186f6b6457e090600090a380547fffffffffffffffffffffffff00000000000000000000000000000000000000001673ffffffffffffffffffffffffffffffffffffffff92909216919091179055565b508054610c00906110a4565b6000825580601f10610c10575050565b601f01602090049060005260206000209081019061037b9190610cb2565b828054610c3a906110a4565b90600052602060002090601f016020900481019282610c5c5760008555610ca2565b82601f10610c7557805160ff1916838001178555610ca2565b82800160010185558215610ca2579182015b82811115610ca2578251825591602001919060010190610c87565b50610cae929150610cb2565b5090565b5b80821115610cae5760008155600101610cb3565b6020808252825182820181905260009190848201906040850190845b81811015610cff57835183529284019291840191600101610ce3565b50909695505050505050565b600060208284031215610d1d57600080fd5b5035919050565b600060208284031215610d3657600080fd5b813573ffffffffffffffffffffffffffffffffffffffff81168114610d5a57600080fd5b9392505050565b6000815180845260005b81811015610d8757602081850181015186830182015201610d6b565b81811115610d99576000602083870101525b50601f017fffffffffffffffffffffffffffffffffffffffffffffffffffffffffffffffe0169290920160200192915050565b7f4e487b7100000000000000000000000000000000000000000000000000000000600052602160045260246000fd5b6000604082016040835280855180835260608501915060608160051b8601019250602080880160005b83811015610e70577fffffffffffffffffffffffffffffffffffffffffffffffffffffffffffffffa0888703018552610e5e868351610d61565b95509382019390820190600101610e24565b50508584038187015286518085528782019482019350915060005b82811015610ede57845160228110610ecc577f4e487b7100000000000000000000000000000000000000000000000000000000600052602160045260246000fd5b84529381019392810192600101610e8b565b5091979650505050505050565b7f4e487b7100000000000000000000000000000000000000000000000000000000600052604160045260246000fd5b600082601f830112610f2b57600080fd5b813567ffffffffffffffff80821115610f4657610f46610eeb565b604051601f83017fffffffffffffffffffffffffffffffffffffffffffffffffffffffffffffffe0908116603f01168101908282118183101715610f8c57610f8c610eeb565b81604052838152866020858801011115610fa557600080fd5b836020870160208301376000602085830101528094505050505092915050565b60008060408385031215610fd857600080fd5b82359150602083013567ffffffffffffffff811115610ff657600080fd5b61100285828601610f1a565b9150509250929050565b60006020828403121561101e57600080fd5b813567ffffffffffffffff81111561103557600080fd5b61104184828501610f1a565b949350505050565b602081526000610d5a6020830184610d61565b60006020828403121561106e57600080fd5b5051919050565b7f4e487b7100000000000000000000000000000000000000000000000000000000600052603260045260246000fd5b600181811c908216806110b857607f821691505b6020821081036110f1577f4e487b7100000000000000000000000000000000000000000000000000000000600052602260045260246000fd5b50919050565b8281526040602082015260006110416040830184610d6156fea2646970667358221220e58b62663bf0b38a085a65fc7147b99c701aa969cd2eea364217c1f18e4e16ae64736f6c634300080d0033",
    "linkReferences": {}
  },
  "methodIdentifiers": {
    "authorizeWriter(address)": "4fef6a38",
    "getEntities()": "31b933b9",
    "getEntitiesWithValue(bytes)": "b361be46",
    "getRawValue(uint256)": "b8bc073d",
    "getSchema()": "6b122fe0",
    "getValue()": "20965255",
    "has(uint256)": "cccf7a8e",
    "id()": "af640d0f",
    "owner()": "8da5cb5b",
    "registerIndexer(address)": "75c0669c",
    "registerWorld(address)": "9d2c76b4",
    "remove(uint256)": "4cc82215",
    "set(uint256)": "60fe47b1",
    "set(uint256,bytes)": "8b282947",
    "transferOwnership(address)": "f2fde38b",
    "unauthorizeWriter(address)": "bf4fe57e",
    "world()": "30b67baa",
    "writeAccess(address)": "861eb905"
  },
  "id": 85
}