{
  "abi": [
    {
      "inputs": [
        {
          "internalType": "contract IWorld",
          "name": "_world",
          "type": "address"
        },
        {
          "internalType": "address",
          "name": "_components",
          "type": "address"
        }
      ],
      "stateMutability": "nonpayable",
      "type": "constructor"
    },
    {
      "inputs": [],
      "name": "Ownable__NotOwner",
      "type": "error"
    },
    {
      "inputs": [],
      "name": "Ownable__NotTransitiveOwner",
      "type": "error"
    },
    {
      "anonymous": false,
      "inputs": [
        {
          "indexed": true,
          "internalType": "address",
          "name": "previousOwner",
          "type": "address"
        },
        {
          "indexed": true,
          "internalType": "address",
          "name": "newOwner",
          "type": "address"
        }
      ],
      "name": "OwnershipTransferred",
      "type": "event"
    },
    {
      "inputs": [
        {
          "internalType": "bytes",
          "name": "args",
          "type": "bytes"
        }
      ],
      "name": "execute",
      "outputs": [
        {
          "internalType": "bytes",
          "name": "",
          "type": "bytes"
        }
      ],
      "stateMutability": "nonpayable",
      "type": "function"
    },
    {
      "inputs": [
        {
          "internalType": "uint256",
          "name": "treasureId",
          "type": "uint256"
        }
      ],
      "name": "executeTyped",
      "outputs": [
        {
          "internalType": "bytes",
          "name": "",
          "type": "bytes"
        }
      ],
      "stateMutability": "nonpayable",
      "type": "function"
    },
    {
      "inputs": [],
      "name": "owner",
      "outputs": [
        {
          "internalType": "address",
          "name": "",
          "type": "address"
        }
      ],
      "stateMutability": "view",
      "type": "function"
    },
    {
      "inputs": [
        {
          "internalType": "address",
          "name": "account",
          "type": "address"
        }
      ],
      "name": "transferOwnership",
      "outputs": [],
      "stateMutability": "nonpayable",
      "type": "function"
    }
  ],
  "bytecode": {
    "object": "0x60806040523480156200001157600080fd5b50604051620015b7380380620015b783398101604081905262000034916200022c565b818162000041336200010f565b6001600160a01b03811615620000585780620000bd565b816001600160a01b031663ba62fbe46040518163ffffffff1660e01b8152600401602060405180830381865afa15801562000097573d6000803e3d6000fd5b505050506040513d601f19601f82011682018060405250810190620000bd91906200026b565b600080546001600160a01b03199081166001600160a01b0393841690811790925560018054909116928516928317905562000105919062000183602090811b6200065d17901c565b5050505062000292565b600062000126620001ef60201b620006ee1760201c565b80546040519192506001600160a01b03808516929116907f8be0079c531659141344cd1fd0a4f28419497f9722a3daafe3b4186f6b6457e090600090a380546001600160a01b0319166001600160a01b0392909216919091179055565b7ff67304f10c7772c78e439bc5cb07781db345424de8878c18100fdaa64d197a8780546001600160a01b039384166001600160a01b0319918216179091557ff67304f10c7772c78e439bc5cb07781db345424de8878c18100fdaa64d197a868054929093169116179055565b7f8a22373512790c48b83a1fe2efdd2888d4a917bcdc24d0adf63e60f67168046090565b6001600160a01b03811681146200022957600080fd5b50565b600080604083850312156200024057600080fd5b82516200024d8162000213565b6020840151909250620002608162000213565b809150509250929050565b6000602082840312156200027e57600080fd5b81516200028b8162000213565b9392505050565b61131580620002a26000396000f3fe608060405234801561001057600080fd5b506004361061004c5760003560e01c806309c5eabe146100515780633e991df31461007a5780638da5cb5b1461008d578063f2fde38b146100ba575b600080fd5b61006461005f366004610dd1565b6100cf565b6040516100719190610e81565b60405180910390f35b610064610088366004610ed2565b6100f9565b61009561059c565b60405173ffffffffffffffffffffffffffffffffffffffff9091168152602001610071565b6100cd6100c8366004610eeb565b6105e1565b005b60606000828060200190518101906100e79190610f21565b90506100f2816100f9565b9392505050565b6000805460609133916101429073ffffffffffffffffffffffffffffffffffffffff167f28b9f73e6b271728535a5e2b6da73f60f1fa049519ed11d9203e38922757cf06610712565b600080549192509061018a9073ffffffffffffffffffffffffffffffffffffffff167f86de2523be15c705f9f8dd1d4bb281bde3a61929d7080e6cb8cc6f383a0a143c610712565b60008054919250906101d29073ffffffffffffffffffffffffffffffffffffffff167f65188156108ab445e8ddb20e749f49402ca97dc723f07951b1c4a011dd8e1166610712565b73ffffffffffffffffffffffffffffffffffffffff16630ff4c916876040518263ffffffff1660e01b815260040161020c91815260200190565b600060405180830381865afa158015610229573d6000803e3d6000fd5b505050506040513d6000823e601f3d9081017fffffffffffffffffffffffffffffffffffffffffffffffffffffffffffffffe016820160405261026f9190810190610fc1565b6040517fcccf7a8e0000000000000000000000000000000000000000000000000000000081526004810188905290915073ffffffffffffffffffffffffffffffffffffffff84169063cccf7a8e90602401602060405180830381865afa1580156102dd573d6000803e3d6000fd5b505050506040513d601f19601f8201168201806040525081019061030191906110b9565b801561039b57506040517f0ff4c91600000000000000000000000000000000000000000000000000000000815260048101879052849073ffffffffffffffffffffffffffffffffffffffff851690630ff4c91690602401602060405180830381865afa158015610375573d6000803e3d6000fd5b505050506040513d601f19601f820116820180604052508101906103999190610f21565b145b610406576040517f08c379a000000000000000000000000000000000000000000000000000000000815260206004820152601260248201527f6e6f742076616c6964207472656173757265000000000000000000000000000060448201526064015b60405180910390fd5b6040517fcccf7a8e0000000000000000000000000000000000000000000000000000000081526004810187905273ffffffffffffffffffffffffffffffffffffffff83169063cccf7a8e90602401602060405180830381865afa158015610471573d6000803e3d6000fd5b505050506040513d601f19601f8201168201806040525081019061049591906110b9565b6104fb576040517f08c379a000000000000000000000000000000000000000000000000000000000815260206004820152600f60248201527f6e6f7420626f756e64656420796574000000000000000000000000000000000060448201526064016103fd565b806040015160ff16600003610513576105138661085e565b6040517f4cc822150000000000000000000000000000000000000000000000000000000081526004810187905273ffffffffffffffffffffffffffffffffffffffff831690634cc8221590602401600060405180830381600087803b15801561057b57600080fd5b505af115801561058f573d6000803e3d6000fd5b5050505050505050919050565b60006105dc7f8a22373512790c48b83a1fe2efdd2888d4a917bcdc24d0adf63e60f6716804605473ffffffffffffffffffffffffffffffffffffffff1690565b905090565b7f8a22373512790c48b83a1fe2efdd2888d4a917bcdc24d0adf63e60f6716804605473ffffffffffffffffffffffffffffffffffffffff163314610651576040517f2f7a8ee100000000000000000000000000000000000000000000000000000000815260040160405180910390fd5b61065a81610c0c565b50565b7ff67304f10c7772c78e439bc5cb07781db345424de8878c18100fdaa64d197a87805473ffffffffffffffffffffffffffffffffffffffff9384167fffffffffffffffffffffffff0000000000000000000000000000000000000000918216179091557ff67304f10c7772c78e439bc5cb07781db345424de8878c18100fdaa64d197a868054929093169116179055565b7f8a22373512790c48b83a1fe2efdd2888d4a917bcdc24d0adf63e60f67168046090565b6040517ffbdfa1ea00000000000000000000000000000000000000000000000000000000815260048101829052600090819073ffffffffffffffffffffffffffffffffffffffff85169063fbdfa1ea90602401600060405180830381865afa158015610782573d6000803e3d6000fd5b505050506040513d6000823e601f3d9081017fffffffffffffffffffffffffffffffffffffffffffffffffffffffffffffffe01682016040526107c891908101906110db565b90508051600003610835576040517f08c379a000000000000000000000000000000000000000000000000000000000815260206004820152601160248201527f6964206e6f74207265676973746572656400000000000000000000000000000060448201526064016103fd565b6108568160008151811061084b5761084b611181565b602002602001015190565b949350505050565b600080543391906108a59073ffffffffffffffffffffffffffffffffffffffff167f2d1944d7c92d4cf7892c9f8d3312e879c70e4e7904208d77f458b7bf7c952e19610712565b60008054919250906108ed9073ffffffffffffffffffffffffffffffffffffffff167f1f5722521ba251ca87967835668e1714c5eb024990bbd3f5f1dcdc98dc7cbbd0610712565b6040517ffbdfa1ea0000000000000000000000000000000000000000000000000000000081526004810185905290915060009073ffffffffffffffffffffffffffffffffffffffff84169063fbdfa1ea90602401600060405180830381865afa15801561095e573d6000803e3d6000fd5b505050506040513d6000823e601f3d9081017fffffffffffffffffffffffffffffffffffffffffffffffffffffffffffffffe01682016040526109a491908101906110db565b905060005b8151811015610c045760008373ffffffffffffffffffffffffffffffffffffffff16630ff4c9168484815181106109e2576109e2611181565b60200260200101516040518263ffffffff1660e01b8152600401610a0891815260200190565b600060405180830381865afa158015610a25573d6000803e3d6000fd5b505050506040513d6000823e601f3d9081017fffffffffffffffffffffffffffffffffffffffffffffffffffffffffffffffe0168201604052610a6b91908101906111b0565b6040517f74726561737572650000000000000000000000000000000000000000000000006020820152909150602801604051602081830303815290604052805190602001208160400151604051602001610ac59190611264565b60405160208183030381529060405280519060200120148015610aeb5750868160600151145b15610bf1576040517f4cc822150000000000000000000000000000000000000000000000000000000081526004810187905273ffffffffffffffffffffffffffffffffffffffff861690634cc8221590602401600060405180830381600087803b158015610b5857600080fd5b505af1158015610b6c573d6000803e3d6000fd5b50506040517f4cc82215000000000000000000000000000000000000000000000000000000008152600481018a905273ffffffffffffffffffffffffffffffffffffffff87169250634cc822159150602401600060405180830381600087803b158015610bd857600080fd5b505af1158015610bec573d6000803e3d6000fd5b505050505b5080610bfc81611280565b9150506109a9565b505050505050565b7f8a22373512790c48b83a1fe2efdd2888d4a917bcdc24d0adf63e60f671680460805460405161065a928492909173ffffffffffffffffffffffffffffffffffffffff8085169216907f8be0079c531659141344cd1fd0a4f28419497f9722a3daafe3b4186f6b6457e090600090a380547fffffffffffffffffffffffff00000000000000000000000000000000000000001673ffffffffffffffffffffffffffffffffffffffff92909216919091179055565b7f4e487b7100000000000000000000000000000000000000000000000000000000600052604160045260246000fd5b604051610100810167ffffffffffffffff81118282101715610d1357610d13610cc0565b60405290565b60405160c0810167ffffffffffffffff81118282101715610d1357610d13610cc0565b604051601f82017fffffffffffffffffffffffffffffffffffffffffffffffffffffffffffffffe016810167ffffffffffffffff81118282101715610d8357610d83610cc0565b604052919050565b600067ffffffffffffffff821115610da557610da5610cc0565b50601f017fffffffffffffffffffffffffffffffffffffffffffffffffffffffffffffffe01660200190565b600060208284031215610de357600080fd5b813567ffffffffffffffff811115610dfa57600080fd5b8201601f81018413610e0b57600080fd5b8035610e1e610e1982610d8b565b610d3c565b818152856020838501011115610e3357600080fd5b81602084016020830137600091810160200191909152949350505050565b60005b83811015610e6c578181015183820152602001610e54565b83811115610e7b576000848401525b50505050565b6020815260008251806020840152610ea0816040850160208701610e51565b601f017fffffffffffffffffffffffffffffffffffffffffffffffffffffffffffffffe0169190910160400192915050565b600060208284031215610ee457600080fd5b5035919050565b600060208284031215610efd57600080fd5b813573ffffffffffffffffffffffffffffffffffffffff811681146100f257600080fd5b600060208284031215610f3357600080fd5b5051919050565b600082601f830112610f4b57600080fd5b8151610f59610e1982610d8b565b818152846020838601011115610f6e57600080fd5b610856826020830160208701610e51565b805160ff81168114610f9057600080fd5b919050565b805167ffffffffffffffff81168114610f9057600080fd5b805163ffffffff81168114610f9057600080fd5b600060208284031215610fd357600080fd5b815167ffffffffffffffff80821115610feb57600080fd5b90830190610100828603121561100057600080fd5b611008610cef565b82518281111561101757600080fd5b61102387828601610f3a565b82525060208301518281111561103857600080fd5b61104487828601610f3a565b60208301525061105660408401610f7f565b604082015261106760608401610f7f565b606082015261107860808401610f95565b608082015261108960a08401610f95565b60a082015261109a60c08401610fad565b60c08201526110ab60e08401610f95565b60e082015295945050505050565b6000602082840312156110cb57600080fd5b815180151581146100f257600080fd5b600060208083850312156110ee57600080fd5b825167ffffffffffffffff8082111561110657600080fd5b818501915085601f83011261111a57600080fd5b81518181111561112c5761112c610cc0565b8060051b915061113d848301610d3c565b818152918301840191848101908884111561115757600080fd5b938501935b838510156111755784518252938501939085019061115c565b98975050505050505050565b7f4e487b7100000000000000000000000000000000000000000000000000000000600052603260045260246000fd5b6000602082840312156111c257600080fd5b815167ffffffffffffffff808211156111da57600080fd5b9083019060c082860312156111ee57600080fd5b6111f6610d19565b8251815261120660208401610fad565b602082015260408301518281111561121d57600080fd5b61122987828601610f3a565b6040830152506060830151606082015261124560808401610f95565b608082015261125660a08401610f95565b60a082015295945050505050565b60008251611276818460208701610e51565b9190910192915050565b60007fffffffffffffffffffffffffffffffffffffffffffffffffffffffffffffffff82036112d8577f4e487b7100000000000000000000000000000000000000000000000000000000600052601160045260246000fd5b506001019056fea26469706673582212202c79b7868375f67d3b8f0e12e864649f77f4b5ff0d47991e57db0dd852c45bbe64736f6c634300080d0033",
    "linkReferences": {}
  },
  "methodIdentifiers": {
    "execute(bytes)": "09c5eabe",
    "executeTyped(uint256)": "3e991df3",
    "owner()": "8da5cb5b",
    "transferOwnership(address)": "f2fde38b"
  },
  "id": 191
}